{
  "contractName": "ChildTunnel",
  "abi": [
    {
      "anonymous": false,
      "inputs": [
        {
          "indexed": false,
          "internalType": "bytes",
          "name": "message",
          "type": "bytes"
        }
      ],
      "name": "MessageSent",
      "type": "event"
    },
    {
      "anonymous": false,
      "inputs": [
        {
          "indexed": true,
          "internalType": "bytes32",
          "name": "role",
          "type": "bytes32"
        },
        {
          "indexed": true,
          "internalType": "bytes32",
          "name": "previousAdminRole",
          "type": "bytes32"
        },
        {
          "indexed": true,
          "internalType": "bytes32",
          "name": "newAdminRole",
          "type": "bytes32"
        }
      ],
      "name": "RoleAdminChanged",
      "type": "event"
    },
    {
      "anonymous": false,
      "inputs": [
        {
          "indexed": true,
          "internalType": "bytes32",
          "name": "role",
          "type": "bytes32"
        },
        {
          "indexed": true,
          "internalType": "address",
          "name": "account",
          "type": "address"
        },
        {
          "indexed": true,
          "internalType": "address",
          "name": "sender",
          "type": "address"
        }
      ],
      "name": "RoleGranted",
      "type": "event"
    },
    {
      "anonymous": false,
      "inputs": [
        {
          "indexed": true,
          "internalType": "bytes32",
          "name": "role",
          "type": "bytes32"
        },
        {
          "indexed": true,
          "internalType": "address",
          "name": "account",
          "type": "address"
        },
        {
          "indexed": true,
          "internalType": "address",
          "name": "sender",
          "type": "address"
        }
      ],
      "name": "RoleRevoked",
      "type": "event"
    },
    {
      "inputs": [],
      "name": "DEFAULT_ADMIN_ROLE",
      "outputs": [
        {
          "internalType": "bytes32",
          "name": "",
          "type": "bytes32"
        }
      ],
      "stateMutability": "view",
      "type": "function"
    },
    {
      "inputs": [],
      "name": "STATE_SYNCER_ROLE",
      "outputs": [
        {
          "internalType": "bytes32",
          "name": "",
          "type": "bytes32"
        }
      ],
      "stateMutability": "view",
      "type": "function"
    },
    {
      "inputs": [
        {
          "internalType": "bytes32",
          "name": "role",
          "type": "bytes32"
        }
      ],
      "name": "getRoleAdmin",
      "outputs": [
        {
          "internalType": "bytes32",
          "name": "",
          "type": "bytes32"
        }
      ],
      "stateMutability": "view",
      "type": "function"
    },
    {
      "inputs": [
        {
          "internalType": "bytes32",
          "name": "role",
          "type": "bytes32"
        },
        {
          "internalType": "uint256",
          "name": "index",
          "type": "uint256"
        }
      ],
      "name": "getRoleMember",
      "outputs": [
        {
          "internalType": "address",
          "name": "",
          "type": "address"
        }
      ],
      "stateMutability": "view",
      "type": "function"
    },
    {
      "inputs": [
        {
          "internalType": "bytes32",
          "name": "role",
          "type": "bytes32"
        }
      ],
      "name": "getRoleMemberCount",
      "outputs": [
        {
          "internalType": "uint256",
          "name": "",
          "type": "uint256"
        }
      ],
      "stateMutability": "view",
      "type": "function"
    },
    {
      "inputs": [
        {
          "internalType": "bytes32",
          "name": "role",
          "type": "bytes32"
        },
        {
          "internalType": "address",
          "name": "account",
          "type": "address"
        }
      ],
      "name": "grantRole",
      "outputs": [],
      "stateMutability": "nonpayable",
      "type": "function"
    },
    {
      "inputs": [
        {
          "internalType": "bytes32",
          "name": "role",
          "type": "bytes32"
        },
        {
          "internalType": "address",
          "name": "account",
          "type": "address"
        }
      ],
      "name": "hasRole",
      "outputs": [
        {
          "internalType": "bool",
          "name": "",
          "type": "bool"
        }
      ],
      "stateMutability": "view",
      "type": "function"
    },
    {
      "inputs": [
        {
          "internalType": "uint256",
          "name": "",
          "type": "uint256"
        },
        {
          "internalType": "bytes",
          "name": "message",
          "type": "bytes"
        }
      ],
      "name": "onStateReceive",
      "outputs": [],
      "stateMutability": "nonpayable",
      "type": "function"
    },
    {
      "inputs": [
        {
          "internalType": "bytes32",
          "name": "role",
          "type": "bytes32"
        },
        {
          "internalType": "address",
          "name": "account",
          "type": "address"
        }
      ],
      "name": "renounceRole",
      "outputs": [],
      "stateMutability": "nonpayable",
      "type": "function"
    },
    {
      "inputs": [
        {
          "internalType": "bytes32",
          "name": "role",
          "type": "bytes32"
        },
        {
          "internalType": "address",
          "name": "account",
          "type": "address"
        }
      ],
      "name": "revokeRole",
      "outputs": [],
      "stateMutability": "nonpayable",
      "type": "function"
    }
  ],
  "bytecode": "0x60806040526200001a6000336001600160e01b036200009316565b604080517053544154455f53594e4345525f524f4c4560781b8152905190819003601101902062000057906110016001600160e01b036200009316565b60408051808201909152600b81526a10da1a5b19151d5b9b995b60aa1b60208201526200008d906001600160e01b03620000ac16565b62000310565b620000a882826001600160e01b036200014e16565b5050565b806040516020018082805190602001908083835b60208310620000e15780518252601f199092019160209182019101620000c0565b51815160209384036101000a60001901801990921691161790527f3a20494e53554646494349454e545f5045524d495353494f4e530000000000009190930190815260408051808303600519018152601a90920190528051620000a895506001945092019190506200026e565b6000828152602081815260409091206200017391839062000668620001d0821b17901c565b15620000a8576200018c6001600160e01b03620001f916565b6001600160a01b0316816001600160a01b0316837f2f8788117e7eff1d82e926ec794901d17c78024a50270940304540a733656f0d60405160405180910390a45050565b6000620001f0836001600160a01b0384166001600160e01b03620001fe16565b90505b92915050565b335b90565b60006200021583836001600160e01b036200025616565b6200024d57508154600181810184556000848152602080822090930184905584548482528286019093526040902091909155620001f3565b506000620001f3565b60009081526001919091016020526040902054151590565b828054600181600116156101000203166002900490600052602060002090601f016020900481019282601f10620002b157805160ff1916838001178555620002e1565b82800160010185558215620002e1579182015b82811115620002e1578251825591602001919060010190620002c4565b50620002ef929150620002f3565b5090565b620001fb91905b80821115620002ef5760008155600101620002fa565b61090880620003206000396000f3fe608060405234801561001057600080fd5b506004361061009e5760003560e01c80639010d07c116100665780639010d07c146101e157806391d1485414610220578063a217fddf14610260578063ca15c87314610268578063d547741f146102855761009e565b8063248a9ca3146100a357806326c53bea146100d25780632f2ff15d1461018157806336568abe146101ad5780634dee4498146101d9575b600080fd5b6100c0600480360360208110156100b957600080fd5b50356102b1565b60408051918252519081900360200190f35b61017f600480360360408110156100e857600080fd5b8135919081019060408101602082013564010000000081111561010a57600080fd5b82018360208201111561011c57600080fd5b8035906020019184600183028401116401000000008311171561013e57600080fd5b91908080601f0160208091040260200160405190810160405280939291908181526020018383808284376000920191909152509295506102c6945050505050565b005b61017f6004803603604081101561019757600080fd5b50803590602001356001600160a01b03166103ac565b61017f600480360360408110156101c357600080fd5b50803590602001356001600160a01b0316610413565b6100c0610474565b610204600480360360408110156101f757600080fd5b508035906020013561049d565b604080516001600160a01b039092168252519081900360200190f35b61024c6004803603604081101561023657600080fd5b50803590602001356001600160a01b03166104c4565b604080519115158252519081900360200190f35b6100c06104e2565b6100c06004803603602081101561027e57600080fd5b50356104e7565b61017f6004803603604081101561029b57600080fd5b50803590602001356001600160a01b03166104fe565b60009081526020819052604090206002015490565b604080517053544154455f53594e4345525f524f4c4560781b815290519081900360110190206102fd816102f8610557565b6104c4565b60019061039d5760405162461bcd60e51b815260206004820190815282546002600019610100600184161502019091160460248301819052909182916044909101908490801561038e5780601f106103635761010080835404028352916020019161038e565b820191906000526020600020905b81548152906001019060200180831161037157829003601f168201915b50509250505060405180910390fd5b506103a78261055b565b505050565b6000828152602081905260409020600201546103ca906102f8610557565b6104055760405162461bcd60e51b815260040180806020018281038252602f815260200180610845602f913960400191505060405180910390fd5b61040f828261055e565b5050565b61041b610557565b6001600160a01b0316816001600160a01b03161461046a5760405162461bcd60e51b815260040180806020018281038252602f8152602001806108a4602f913960400191505060405180910390fd5b61040f82826105cd565b604080517053544154455f53594e4345525f524f4c4560781b8152905190819003601101902081565b60008281526020819052604081206104bb908363ffffffff61063c16565b90505b92915050565b60008281526020819052604081206104bb908363ffffffff61064816565b600081565b60008181526020819052604081206104be9061065d565b60008281526020819052604090206002015461051c906102f8610557565b61046a5760405162461bcd60e51b81526004018080602001828103825260308152602001806108746030913960400191505060405180910390fd5b3390565b50565b600082815260208190526040902061057c908263ffffffff61066816565b1561040f57610589610557565b6001600160a01b0316816001600160a01b0316837f2f8788117e7eff1d82e926ec794901d17c78024a50270940304540a733656f0d60405160405180910390a45050565b60008281526020819052604090206105eb908263ffffffff61067d16565b1561040f576105f8610557565b6001600160a01b0316816001600160a01b0316837ff6391f5c32d9c69d2a47ea670b442974b53935d1edc7fd64eb21e047a839171b60405160405180910390a45050565b60006104bb8383610692565b60006104bb836001600160a01b0384166106f6565b60006104be8261070e565b60006104bb836001600160a01b038416610712565b60006104bb836001600160a01b03841661075c565b815460009082106106d45760405162461bcd60e51b81526004018080602001828103825260228152602001806108236022913960400191505060405180910390fd5b8260000182815481106106e357fe5b9060005260206000200154905092915050565b60009081526001919091016020526040902054151590565b5490565b600061071e83836106f6565b610754575081546001818101845560008481526020808220909301849055845484825282860190935260409020919091556104be565b5060006104be565b60008181526001830160205260408120548015610818578354600019808301919081019060009087908390811061078f57fe5b90600052602060002001549050808760000184815481106107ac57fe5b6000918252602080832090910192909255828152600189810190925260409020908401905586548790806107dc57fe5b600190038181906000526020600020016000905590558660010160008781526020019081526020016000206000905560019450505050506104be565b60009150506104be56fe456e756d657261626c655365743a20696e646578206f7574206f6620626f756e6473416363657373436f6e74726f6c3a2073656e646572206d75737420626520616e2061646d696e20746f206772616e74416363657373436f6e74726f6c3a2073656e646572206d75737420626520616e2061646d696e20746f207265766f6b65416363657373436f6e74726f6c3a2063616e206f6e6c792072656e6f756e636520726f6c657320666f722073656c66a264697066735822122021af056d2ce5673aa9a3052857a1f177e318ce02354a987f550b16a367375b4c64736f6c63430006060033",
  "immutableReferences": {},
  "source": "pragma solidity 0.6.6;\n\nimport {BaseChildTunnel} from \"./BaseChildTunnel.sol\";\n\n\ncontract ChildTunnel is BaseChildTunnel {\n    function _processMessageFromRoot(bytes memory message) internal override {\n      // implement your core logic here\n    }\n}\n",
  "sourcePath": "/home/moiz/NETSOl/Task-25, Bridge between polygon and ethereum (erc-20) Use-case 2/Ethereum_Polygon_Custom_Bridge_ERC20_Contracts_on_Testnet_without_status_Checks_Use_case_2/contracts/tunnel/ChildTunnel.sol",
  "compiler": {
    "name": "solc",
    "version": "0.6.6+commit.6c089d02.Emscripten.clang"
  },
  "schemaVersion": "3.4.8",
  "updatedAt": "2022-09-21T07:45:21.986Z",
  "devdoc": {
    "methods": {
      "getRoleAdmin(bytes32)": {
        "details": "Returns the admin role that controls `role`. See {grantRole} and {revokeRole}.     * To change a role's admin, use {_setRoleAdmin}."
      },
      "getRoleMember(bytes32,uint256)": {
        "details": "Returns one of the accounts that have `role`. `index` must be a value between 0 and {getRoleMemberCount}, non-inclusive.     * Role bearers are not sorted in any particular way, and their ordering may change at any point.     * WARNING: When using {getRoleMember} and {getRoleMemberCount}, make sure you perform all queries on the same block. See the following https://forum.openzeppelin.com/t/iterating-over-elements-on-enumerableset-in-openzeppelin-contracts/2296[forum post] for more information."
      },
      "getRoleMemberCount(bytes32)": {
        "details": "Returns the number of accounts that have `role`. Can be used together with {getRoleMember} to enumerate all bearers of a role."
      },
      "grantRole(bytes32,address)": {
        "details": "Grants `role` to `account`.     * If `account` had not been already granted `role`, emits a {RoleGranted} event.     * Requirements:     * - the caller must have ``role``'s admin role."
      },
      "hasRole(bytes32,address)": {
        "details": "Returns `true` if `account` has been granted `role`."
      },
      "onStateReceive(uint256,bytes)": {
        "details": "This method will be called by Matic chain internally. This is executed without transaction using a system call."
      },
      "renounceRole(bytes32,address)": {
        "details": "Revokes `role` from the calling account.     * Roles are often managed via {grantRole} and {revokeRole}: this function's purpose is to provide a mechanism for accounts to lose their privileges if they are compromised (such as when a trusted device is misplaced).     * If the calling account had been granted `role`, emits a {RoleRevoked} event.     * Requirements:     * - the caller must be `account`."
      },
      "revokeRole(bytes32,address)": {
        "details": "Revokes `role` from `account`.     * If `account` had been granted `role`, emits a {RoleRevoked} event.     * Requirements:     * - the caller must have ``role``'s admin role."
      }
    }
  },
  "userdoc": {
    "methods": {
      "onStateReceive(uint256,bytes)": {
        "notice": "Receive state sync from matic contracts"
      }
    }
  }
}