{
  "contractName": "ChildChainManager",
  "abi": [
    {
      "anonymous": false,
      "inputs": [
        {
          "indexed": true,
          "internalType": "bytes32",
          "name": "tokenType",
          "type": "bytes32"
        },
        {
          "indexed": true,
          "internalType": "address",
          "name": "predicateAddress",
          "type": "address"
        }
      ],
      "name": "PredicateRegistered",
      "type": "event"
    },
    {
      "anonymous": false,
      "inputs": [
        {
          "indexed": true,
          "internalType": "bytes32",
          "name": "role",
          "type": "bytes32"
        },
        {
          "indexed": true,
          "internalType": "bytes32",
          "name": "previousAdminRole",
          "type": "bytes32"
        },
        {
          "indexed": true,
          "internalType": "bytes32",
          "name": "newAdminRole",
          "type": "bytes32"
        }
      ],
      "name": "RoleAdminChanged",
      "type": "event"
    },
    {
      "anonymous": false,
      "inputs": [
        {
          "indexed": true,
          "internalType": "bytes32",
          "name": "role",
          "type": "bytes32"
        },
        {
          "indexed": true,
          "internalType": "address",
          "name": "account",
          "type": "address"
        },
        {
          "indexed": true,
          "internalType": "address",
          "name": "sender",
          "type": "address"
        }
      ],
      "name": "RoleGranted",
      "type": "event"
    },
    {
      "anonymous": false,
      "inputs": [
        {
          "indexed": true,
          "internalType": "bytes32",
          "name": "role",
          "type": "bytes32"
        },
        {
          "indexed": true,
          "internalType": "address",
          "name": "account",
          "type": "address"
        },
        {
          "indexed": true,
          "internalType": "address",
          "name": "sender",
          "type": "address"
        }
      ],
      "name": "RoleRevoked",
      "type": "event"
    },
    {
      "anonymous": false,
      "inputs": [
        {
          "indexed": true,
          "internalType": "address",
          "name": "rootToken",
          "type": "address"
        },
        {
          "indexed": true,
          "internalType": "address",
          "name": "childToken",
          "type": "address"
        }
      ],
      "name": "TokenMapped",
      "type": "event"
    },
    {
      "anonymous": false,
      "inputs": [
        {
          "indexed": true,
          "internalType": "address",
          "name": "rootToken",
          "type": "address"
        },
        {
          "indexed": true,
          "internalType": "address",
          "name": "childToken",
          "type": "address"
        },
        {
          "indexed": true,
          "internalType": "bytes32",
          "name": "tokenType",
          "type": "bytes32"
        }
      ],
      "name": "TokenMapped",
      "type": "event"
    },
    {
      "inputs": [],
      "name": "DEFAULT_ADMIN_ROLE",
      "outputs": [
        {
          "internalType": "bytes32",
          "name": "",
          "type": "bytes32"
        }
      ],
      "stateMutability": "view",
      "type": "function",
      "constant": true
    },
    {
      "inputs": [],
      "name": "DEPOSIT",
      "outputs": [
        {
          "internalType": "bytes32",
          "name": "",
          "type": "bytes32"
        }
      ],
      "stateMutability": "view",
      "type": "function",
      "constant": true
    },
    {
      "inputs": [],
      "name": "ETHER_ADDRESS",
      "outputs": [
        {
          "internalType": "address",
          "name": "",
          "type": "address"
        }
      ],
      "stateMutability": "view",
      "type": "function",
      "constant": true
    },
    {
      "inputs": [],
      "name": "MAPPER_ROLE",
      "outputs": [
        {
          "internalType": "bytes32",
          "name": "",
          "type": "bytes32"
        }
      ],
      "stateMutability": "view",
      "type": "function",
      "constant": true
    },
    {
      "inputs": [],
      "name": "MAP_TOKEN",
      "outputs": [
        {
          "internalType": "bytes32",
          "name": "",
          "type": "bytes32"
        }
      ],
      "stateMutability": "view",
      "type": "function",
      "constant": true
    },
    {
      "inputs": [],
      "name": "STATE_SYNCER_ROLE",
      "outputs": [
        {
          "internalType": "bytes32",
          "name": "",
          "type": "bytes32"
        }
      ],
      "stateMutability": "view",
      "type": "function",
      "constant": true
    },
    {
      "inputs": [
        {
          "internalType": "address",
          "name": "",
          "type": "address"
        }
      ],
      "name": "childToRootToken",
      "outputs": [
        {
          "internalType": "address",
          "name": "",
          "type": "address"
        }
      ],
      "stateMutability": "view",
      "type": "function",
      "constant": true
    },
    {
      "inputs": [
        {
          "internalType": "bytes32",
          "name": "role",
          "type": "bytes32"
        }
      ],
      "name": "getRoleAdmin",
      "outputs": [
        {
          "internalType": "bytes32",
          "name": "",
          "type": "bytes32"
        }
      ],
      "stateMutability": "view",
      "type": "function",
      "constant": true
    },
    {
      "inputs": [
        {
          "internalType": "bytes32",
          "name": "role",
          "type": "bytes32"
        },
        {
          "internalType": "uint256",
          "name": "index",
          "type": "uint256"
        }
      ],
      "name": "getRoleMember",
      "outputs": [
        {
          "internalType": "address",
          "name": "",
          "type": "address"
        }
      ],
      "stateMutability": "view",
      "type": "function",
      "constant": true
    },
    {
      "inputs": [
        {
          "internalType": "bytes32",
          "name": "role",
          "type": "bytes32"
        }
      ],
      "name": "getRoleMemberCount",
      "outputs": [
        {
          "internalType": "uint256",
          "name": "",
          "type": "uint256"
        }
      ],
      "stateMutability": "view",
      "type": "function",
      "constant": true
    },
    {
      "inputs": [
        {
          "internalType": "bytes32",
          "name": "role",
          "type": "bytes32"
        },
        {
          "internalType": "address",
          "name": "account",
          "type": "address"
        }
      ],
      "name": "grantRole",
      "outputs": [],
      "stateMutability": "nonpayable",
      "type": "function"
    },
    {
      "inputs": [
        {
          "internalType": "bytes32",
          "name": "role",
          "type": "bytes32"
        },
        {
          "internalType": "address",
          "name": "account",
          "type": "address"
        }
      ],
      "name": "hasRole",
      "outputs": [
        {
          "internalType": "bool",
          "name": "",
          "type": "bool"
        }
      ],
      "stateMutability": "view",
      "type": "function",
      "constant": true
    },
    {
      "inputs": [
        {
          "internalType": "bytes32",
          "name": "",
          "type": "bytes32"
        }
      ],
      "name": "processedExits",
      "outputs": [
        {
          "internalType": "bool",
          "name": "",
          "type": "bool"
        }
      ],
      "stateMutability": "view",
      "type": "function",
      "constant": true
    },
    {
      "inputs": [
        {
          "internalType": "bytes32",
          "name": "role",
          "type": "bytes32"
        },
        {
          "internalType": "address",
          "name": "account",
          "type": "address"
        }
      ],
      "name": "renounceRole",
      "outputs": [],
      "stateMutability": "nonpayable",
      "type": "function"
    },
    {
      "inputs": [
        {
          "internalType": "bytes32",
          "name": "role",
          "type": "bytes32"
        },
        {
          "internalType": "address",
          "name": "account",
          "type": "address"
        }
      ],
      "name": "revokeRole",
      "outputs": [],
      "stateMutability": "nonpayable",
      "type": "function"
    },
    {
      "inputs": [],
      "name": "rootChainManagerAddress",
      "outputs": [
        {
          "internalType": "address",
          "name": "",
          "type": "address"
        }
      ],
      "stateMutability": "view",
      "type": "function",
      "constant": true
    },
    {
      "inputs": [
        {
          "internalType": "address",
          "name": "",
          "type": "address"
        }
      ],
      "name": "rootToChildToken",
      "outputs": [
        {
          "internalType": "address",
          "name": "",
          "type": "address"
        }
      ],
      "stateMutability": "view",
      "type": "function",
      "constant": true
    },
    {
      "inputs": [
        {
          "internalType": "address",
          "name": "",
          "type": "address"
        }
      ],
      "name": "tokenToType",
      "outputs": [
        {
          "internalType": "bytes32",
          "name": "",
          "type": "bytes32"
        }
      ],
      "stateMutability": "view",
      "type": "function",
      "constant": true
    },
    {
      "inputs": [
        {
          "internalType": "bytes32",
          "name": "",
          "type": "bytes32"
        }
      ],
      "name": "typeToPredicate",
      "outputs": [
        {
          "internalType": "address",
          "name": "",
          "type": "address"
        }
      ],
      "stateMutability": "view",
      "type": "function",
      "constant": true
    },
    {
      "inputs": [
        {
          "internalType": "address",
          "name": "_owner",
          "type": "address"
        }
      ],
      "name": "initialize",
      "outputs": [],
      "stateMutability": "nonpayable",
      "type": "function"
    },
    {
      "inputs": [
        {
          "internalType": "uint256",
          "name": "",
          "type": "uint256"
        },
        {
          "internalType": "bytes",
          "name": "data",
          "type": "bytes"
        },
        {
          "internalType": "address",
          "name": "childERC20Predicate",
          "type": "address"
        }
      ],
      "name": "onStateReceive",
      "outputs": [],
      "stateMutability": "nonpayable",
      "type": "function"
    },
    {
      "inputs": [
        {
          "internalType": "address",
          "name": "rootToken",
          "type": "address"
        },
        {
          "internalType": "address",
          "name": "childToken",
          "type": "address"
        }
      ],
      "name": "cleanMapToken",
      "outputs": [],
      "stateMutability": "nonpayable",
      "type": "function"
    },
    {
      "inputs": [
        {
          "internalType": "address",
          "name": "user",
          "type": "address"
        },
        {
          "internalType": "address",
          "name": "childToken",
          "type": "address"
        },
        {
          "internalType": "bytes",
          "name": "depositData",
          "type": "bytes"
        },
        {
          "internalType": "address",
          "name": "rootERC20Predicate",
          "type": "address"
        }
      ],
      "name": "depositFor",
      "outputs": [],
      "stateMutability": "nonpayable",
      "type": "function"
    },
    {
      "inputs": [
        {
          "internalType": "address",
          "name": "newRootChainManager",
          "type": "address"
        }
      ],
      "name": "setRootChainManagerAddress",
      "outputs": [],
      "stateMutability": "nonpayable",
      "type": "function"
    },
    {
      "inputs": [
        {
          "internalType": "address",
          "name": "newStateSender",
          "type": "address"
        }
      ],
      "name": "setStateSender",
      "outputs": [],
      "stateMutability": "nonpayable",
      "type": "function"
    },
    {
      "inputs": [],
      "name": "stateSenderAddress",
      "outputs": [
        {
          "internalType": "address",
          "name": "",
          "type": "address"
        }
      ],
      "stateMutability": "view",
      "type": "function",
      "constant": true
    },
    {
      "inputs": [
        {
          "internalType": "address",
          "name": "newCheckpointManager",
          "type": "address"
        }
      ],
      "name": "setCheckpointManager",
      "outputs": [],
      "stateMutability": "nonpayable",
      "type": "function"
    },
    {
      "inputs": [],
      "name": "checkpointManagerAddress",
      "outputs": [
        {
          "internalType": "address",
          "name": "",
          "type": "address"
        }
      ],
      "stateMutability": "view",
      "type": "function",
      "constant": true
    },
    {
      "inputs": [
        {
          "internalType": "bytes32",
          "name": "tokenType",
          "type": "bytes32"
        },
        {
          "internalType": "address",
          "name": "predicateAddress",
          "type": "address"
        }
      ],
      "name": "registerPredicate",
      "outputs": [],
      "stateMutability": "nonpayable",
      "type": "function"
    },
    {
      "inputs": [
        {
          "internalType": "address",
          "name": "rootToken",
          "type": "address"
        },
        {
          "internalType": "address",
          "name": "childToken",
          "type": "address"
        }
      ],
      "name": "mapToken",
      "outputs": [],
      "stateMutability": "nonpayable",
      "type": "function"
    },
    {
      "inputs": [
        {
          "internalType": "address",
          "name": "rootToken",
          "type": "address"
        },
        {
          "internalType": "address",
          "name": "childToken",
          "type": "address"
        },
        {
          "internalType": "bytes32",
          "name": "tokenType",
          "type": "bytes32"
        }
      ],
      "name": "mapToken",
      "outputs": [],
      "stateMutability": "nonpayable",
      "type": "function"
    }
  ],
  "bytecode": "0x60806040526000805460ff1916905534801561001a57600080fd5b506124908061002a6000396000f3fe608060405234801561001057600080fd5b50600436106101e55760003560e01c80639010d07c1161010f578063ca15c873116100a2578063e2c49de111610071578063e2c49de114610622578063e43009a61461062a578063e66f960314610650578063ea60c7c41461066d576101e5565b8063ca15c873146105c9578063cf1d21c0146105e6578063d547741f146105ee578063d81c8e521461061a576101e5565b8063a217fddf116100de578063a217fddf1461054f578063a4f3b1e914610557578063bc08452b1461057d578063c4d66de8146105a3576101e5565b80639010d07c1461044c5780639173b1391461046f57806391d14854146104a55780639e657a34146104d1576101e5565b80634dee4498116101875780636cb136b0116101565780636cb136b0146103685780636e86b7701461038e5780638188e218146103b4578063886a69ba14610444576101e5565b80634dee44981461031f57806352a7f5d214610327578063568b80b51461032f578063607f2d4214610337576101e5565b80632f2ff15d116101c35780632f2ff15d146102755780633138b6f1146102a157806336568abe146102c557806347400269146102f1576101e5565b80630c3894bb146101ea5780630c5982201461021a578063248a9ca314610246575b600080fd5b6102186004803603604081101561020057600080fd5b506001600160a01b0381358116916020013516610693565b005b6102186004803603604081101561023057600080fd5b50803590602001356001600160a01b03166107d3565b6102636004803603602081101561025c57600080fd5b50356108a2565b60408051918252519081900360200190f35b6102186004803603604081101561028b57600080fd5b50803590602001356001600160a01b03166108b7565b6102a961091e565b604080516001600160a01b039092168252519081900360200190f35b610218600480360360408110156102db57600080fd5b50803590602001356001600160a01b031661092e565b6102186004803603604081101561030757600080fd5b506001600160a01b038135811691602001351661098f565b610263610a31565b6102a9610a5a565b610263610a69565b6103546004803603602081101561034d57600080fd5b5035610a8c565b604080519115158252519081900360200190f35b6102186004803603602081101561037e57600080fd5b50356001600160a01b0316610aa1565b6102a9600480360360208110156103a457600080fd5b50356001600160a01b0316610b7e565b610218600480360360808110156103ca57600080fd5b6001600160a01b038235811692602081013590911691810190606081016040820135600160201b8111156103fd57600080fd5b82018360208201111561040f57600080fd5b803590602001918460018302840111600160201b8311171561043057600080fd5b9193509150356001600160a01b0316610b99565b610263610c3f565b6102a96004803603604081101561046257600080fd5b5080359060200135610c60565b6102186004803603606081101561048557600080fd5b506001600160a01b03813581169160208101359091169060400135610c87565b610354600480360360408110156104bb57600080fd5b50803590602001356001600160a01b0316610da6565b610218600480360360608110156104e757600080fd5b81359190810190604081016020820135600160201b81111561050857600080fd5b82018360208201111561051a57600080fd5b803590602001918460018302840111600160201b8311171561053b57600080fd5b9193509150356001600160a01b0316610dc4565b610263610fd5565b6102186004803603602081101561056d57600080fd5b50356001600160a01b0316610fda565b6102186004803603602081101561059357600080fd5b50356001600160a01b03166110b7565b610218600480360360208110156105b957600080fd5b50356001600160a01b0316611194565b610263600480360360208110156105df57600080fd5b5035611284565b6102a961129b565b6102186004803603604081101561060457600080fd5b50803590602001356001600160a01b03166112b3565b61026361130c565b6102a961132b565b6102636004803603602081101561064057600080fd5b50356001600160a01b031661133a565b6102a96004803603602081101561066657600080fd5b503561134c565b6102a96004803603602081101561068357600080fd5b50356001600160a01b0316611367565b604080516a4d41505045525f524f4c4560a81b8152905190819003600b0190206106c4816106bf611382565b610da6565b6002906107645760405162461bcd60e51b81526020600482019081528254600260001961010060018416150201909116046024830181905290918291604490910190849080156107555780601f1061072a57610100808354040283529160200191610755565b820191906000526020600020905b81548152906001019060200180831161073857829003601f168201915b50509250505060405180910390fd5b506001600160a01b03808416600081815260046020908152604080832080546001600160a01b03199081169091559487168084526005909252808320805490951690945592517f85920d35e6c72f6b2affffa04298b0cecfeba86e4a9f407df661f1cb8ab5e6179190a3505050565b60006107e1816106bf611382565b6002906108475760405162461bcd60e51b81526020600482019081528254600260001961010060018416150201909116046024830181905290918291604490910190849080156107555780601f1061072a57610100808354040283529160200191610755565b5060008381526003602052604080822080546001600160a01b0319166001600160a01b0386169081179091559051909185917f8643692ae1c12ec91fa18e50b82ed93fa314f580999a236824db6de9ae0d839b9190a3505050565b60009081526001602052604090206002015490565b6000828152600160205260409020600201546108d5906106bf611382565b6109105760405162461bcd60e51b815260040180806020018281038252602f815260200180612244602f913960400191505060405180910390fd5b61091a8282611386565b5050565b6009546001600160a01b03165b90565b610936611382565b6001600160a01b0316816001600160a01b0316146109855760405162461bcd60e51b815260040180806020018281038252602f81526020018061242c602f913960400191505060405180910390fd5b61091a82826113f5565b604080516a4d41505045525f524f4c4560a81b8152905190819003600b0190206109bb816106bf611382565b600290610a215760405162461bcd60e51b81526020600482019081528254600260001961010060018416150201909116046024830181905290918291604490910190849080156107555780601f1061072a57610100808354040283529160200191610755565b50610a2c8383611464565b505050565b604080517053544154455f53594e4345525f524f4c4560781b8152905190819003601101902081565b600a546001600160a01b031681565b604080516a4d41505045525f524f4c4560a81b8152905190819003600b01902081565b60076020526000908152604090205460ff1681565b6000610aaf816106bf611382565b600290610b155760405162461bcd60e51b81526020600482019081528254600260001961010060018416150201909116046024830181905290918291604490910190849080156107555780601f1061072a57610100808354040283529160200191610755565b506001600160a01b038216610b5b5760405162461bcd60e51b81526004018080602001828103825260278152602001806123e06027913960400191505060405180910390fd5b50600880546001600160a01b0319166001600160a01b0392909216919091179055565b6005602052600090815260409020546001600160a01b031681565b6001600160a01b03841673eeeeeeeeeeeeeeeeeeeeeeeeeeeeeeeeeeeeeeee1415610bf55760405162461bcd60e51b81526004018080602001828103825260268152602001806122ea6026913960400191505060405180910390fd5b610c38858585858080601f016020809104026020016040519081016040528093929190818152602001838380828437600092019190915250879250611588915050565b5050505050565b604080516826a0a82faa27a5a2a760b91b8152905190819003600901902081565b6000828152600160205260408120610c7e908363ffffffff611a6516565b90505b92915050565b604080516a4d41505045525f524f4c4560a81b8152905190819003600b019020610cb3816106bf611382565b600290610d195760405162461bcd60e51b81526020600482019081528254600260001961010060018416150201909116046024830181905290918291604490910190849080156107555780601f1061072a57610100808354040283529160200191610755565b506001600160a01b0384811660009081526004602052604090205416158015610d5a57506001600160a01b0383811660009081526005602052604090205416155b610d955760405162461bcd60e51b81526004018080602001828103825260218152602001806123bf6021913960400191505060405180910390fd5b610da0848484611a71565b50505050565b6000828152600160205260408120610c7e908363ffffffff611cfd16565b604080517053544154455f53594e4345525f524f4c4560781b81529051908190036011019020610df6816106bf611382565b600290610e5c5760405162461bcd60e51b81526020600482019081528254600260001961010060018416150201909116046024830181905290918291604490910190849080156107555780601f1061072a57610100808354040283529160200191610755565b506000606085856040811015610e7157600080fd5b81359190810190604081016020820135600160201b811115610e9257600080fd5b820183602082011115610ea457600080fd5b803590602001918460018302840111600160201b83111715610ec557600080fd5b91908080601f01602080910402602001604051908101604052809392919081815260200183838082843760009201919091525050604080516611115413d4d25560ca1b81529051908190036007019020969850919650505050918414159150610f39905057610f348185611d12565b610fcc565b604080516826a0a82faa27a5a2a760b91b81529051908190036009019020821415610f9557600080828060200190516060811015610f7657600080fd5b5080516020909101519092509050610f8e8282611464565b5050610fcc565b60405162461bcd60e51b81526004018080602001828103825260248152602001806122736024913960400191505060405180910390fd5b50505050505050565b600081565b6000610fe8816106bf611382565b60029061104e5760405162461bcd60e51b81526020600482019081528254600260001961010060018416150201909116046024830181905290918291604490910190849080156107555780601f1061072a57610100808354040283529160200191610755565b506001600160a01b0382166110945760405162461bcd60e51b815260040180806020018281038252602d815260200180612368602d913960400191505060405180910390fd5b50600a80546001600160a01b0319166001600160a01b0392909216919091179055565b60006110c5816106bf611382565b60029061112b5760405162461bcd60e51b81526020600482019081528254600260001961010060018416150201909116046024830181905290918291604490910190849080156107555780601f1061072a57610100808354040283529160200191610755565b506001600160a01b0382166111715760405162461bcd60e51b815260040180806020018281038252602d815260200180612310602d913960400191505060405180910390fd5b50600980546001600160a01b0319166001600160a01b0392909216919091179055565b60005460ff16156111dd576040805162461bcd60e51b815260206004820152600e60248201526d185b1c9958591e481a5b9a5d195960921b604482015290519081900360640190fd5b61120f6040518060400160405280601181526020017021b434b63221b430b4b726b0b730b3b2b960791b815250611efd565b61121a600082610910565b604080516a4d41505045525f524f4c4560a81b8152905190819003600b0190206112449082610910565b604080517053544154455f53594e4345525f524f4c4560781b815290519081900360110190206112749082610910565b506000805460ff19166001179055565b6000818152600160205260408120610c8190611f9b565b73eeeeeeeeeeeeeeeeeeeeeeeeeeeeeeeeeeeeeeee81565b6000828152600160205260409020600201546112d1906106bf611382565b6109855760405162461bcd60e51b81526004018080602001828103825260308152602001806122ba6030913960400191505060405180910390fd5b604080516611115413d4d25560ca1b8152905190819003600701902081565b6008546001600160a01b031690565b60066020526000908152604090205481565b6003602052600090815260409020546001600160a01b031681565b6004602052600090815260409020546001600160a01b031681565b3390565b60008281526001602052604090206113a4908263ffffffff611fa616565b1561091a576113b1611382565b6001600160a01b0316816001600160a01b0316837f2f8788117e7eff1d82e926ec794901d17c78024a50270940304540a733656f0d60405160405180910390a45050565b6000828152600160205260409020611413908263ffffffff611fbb16565b1561091a57611420611382565b6001600160a01b0316816001600160a01b0316837ff6391f5c32d9c69d2a47ea670b442974b53935d1edc7fd64eb21e047a839171b60405160405180910390a45050565b6001600160a01b03808316600090815260046020818152604080842054868616855260058352818520548616808652939092529092205491831692909116156114ce576001600160a01b038116600090815260046020526040902080546001600160a01b03191690555b6001600160a01b038281166000908152600560205260409020541615611515576001600160a01b038216600090815260056020526040902080546001600160a01b03191690555b6001600160a01b03808516600081815260046020908152604080832080549589166001600160a01b0319968716811790915580845260059092528083208054909516841790945592517f85920d35e6c72f6b2affffa04298b0cecfeba86e4a9f407df661f1cb8ab5e6179190a350505050565b6001600160a01b03808416600090815260066020908152604080832054600590925290912054909116158015906115be57508015155b6115f95760405162461bcd60e51b81526004018080602001828103825260238152602001806122976023913960400191505060405180910390fd5b6000818152600360205260409020546001600160a01b03168061164d5760405162461bcd60e51b81526004018080602001828103825260258152602001806124076025913960400191505060405180910390fd5b6001600160a01b0383166116925760405162461bcd60e51b815260040180806020018281038252602981526020018061221b6029913960400191505060405180910390fd5b6001600160a01b0386166116ed576040805162461bcd60e51b815260206004820152601f60248201527f4368696c64436861696e4d616e616765723a20494e56414c49445f5553455200604482015290519081900360640190fd5b806001600160a01b031663e375b64e611704611382565b8888886040518563ffffffff1660e01b815260040180856001600160a01b03166001600160a01b03168152602001846001600160a01b03166001600160a01b03168152602001836001600160a01b03166001600160a01b0316815260200180602001828103825283818151815260200191508051906020019080838360005b8381101561179b578181015183820152602001611783565b50505050905090810190601f1680156117c85780820380516001836020036101000a031916815260200191505b5095505050505050600060405180830381600087803b1580156117ea57600080fd5b505af11580156117fe573d6000803e3d6000fd5b50505050606086868660405160200180846001600160a01b03166001600160a01b03168152602001836001600160a01b03166001600160a01b0316815260200180602001828103825283818151815260200191508051906020019080838360005b8381101561187757818101518382015260200161185f565b50505050905090810190601f1680156118a45780820380516001836020036101000a031916815260200191505b5060408051601f19818403018152828252600854600a546611115413d4d25560ca1b855283519485900360070185206020868101828152878701968752855160608901528551959d506001600160a01b039485169c50636f44a7109b509290931698508e975095508a9490939260809091019185019080838360005b83811015611938578181015183820152602001611920565b50505050905090810190601f1680156119655780820380516001836020036101000a031916815260200191505b5093505050506040516020818303038152906040526040518463ffffffff1660e01b815260040180846001600160a01b03166001600160a01b03168152602001836001600160a01b03166001600160a01b0316815260200180602001828103825283818151815260200191508051906020019080838360005b838110156119f65781810151838201526020016119de565b50505050905090810190601f168015611a235780820380516001836020036101000a031916815260200191505b50945050505050600060405180830381600087803b158015611a4457600080fd5b505af1158015611a58573d6000803e3d6000fd5b5050505050505050505050565b6000610c7e8383611fd0565b6000818152600360205260409020546001600160a01b0316611ac45760405162461bcd60e51b815260040180806020018281038252602b81526020018061233d602b913960400191505060405180910390fd5b6001600160a01b03808416600081815260046020908152604080832080549588166001600160a01b031996871681179091558084526005835281842080549096168517909555600690915280822085905551849392917f9e651a8866fbea043e911d816ec254b0e3c992c06fff32d605e72362d6023bd991a4604080516001600160a01b038086166020808401919091528186168385015260608381018690528451808503820181526080808601808852600854600a546826a0a82faa27a5a2a760b91b9092528851978890036089018820888701818152898b019a8b528551968a019690965284519499918816986316f1983198939093169690958a9590949293909201919085019080838360005b83811015611bec578181015183820152602001611bd4565b50505050905090810190601f168015611c195780820380516001836020036101000a031916815260200191505b5093505050506040516020818303038152906040526040518363ffffffff1660e01b815260040180836001600160a01b03166001600160a01b0316815260200180602001828103825283818151815260200191508051906020019080838360005b83811015611c92578181015183820152602001611c7a565b50505050905090810190601f168015611cbf5780820380516001836020036101000a031916815260200191505b509350505050600060405180830381600087803b158015611cdf57600080fd5b505af1158015611cf3573d6000803e3d6000fd5b5050505050505050565b6000610c7e836001600160a01b038416612034565b6000806060848060200190516060811015611d2c57600080fd5b81516020830151604080850180519151939592948301929184600160201b821115611d5657600080fd5b908301906020820185811115611d6b57600080fd5b8251600160201b811182820188101715611d8457600080fd5b82525081516020918201929091019080838360005b83811015611db1578181015183820152602001611d99565b50505050905090810190601f168015611dde5780820380516001836020036101000a031916815260200191505b5060409081526001600160a01b0380871660009081526004602052919091205496995094975092955050509116905080611e495760405162461bcd60e51b81526004018080602001828103825260238152602001806122976023913960400191505060405180910390fd5b6001600160a01b038516611e8e5760405162461bcd60e51b815260040180806020018281038252602a815260200180612395602a913960400191505060405180910390fd5b6040516324eaf9f960e11b81526001600160a01b038581166004830190815287821660448401526060602484019081528551606485015285518594938516936349d5f3f2938a9389938d93608401906020860190808383600083156119f65781810151838201526020016119de565b806040516020018082805190602001908083835b60208310611f305780518252601f199092019160209182019101611f11565b51815160209384036101000a60001901801990921691161790527f3a20494e53554646494349454e545f5045524d495353494f4e530000000000009190930190815260408051808303600519018152601a9092019052805161091a9550600294509201919050612160565b6000610c818261204c565b6000610c7e836001600160a01b038416612050565b6000610c7e836001600160a01b03841661209a565b815460009082106120125760405162461bcd60e51b81526004018080602001828103825260228152602001806121f96022913960400191505060405180910390fd5b82600001828154811061202157fe5b9060005260206000200154905092915050565b60009081526001919091016020526040902054151590565b5490565b600061205c8383612034565b61209257508154600181810184556000848152602080822090930184905584548482528286019093526040902091909155610c81565b506000610c81565b6000818152600183016020526040812054801561215657835460001980830191908101906000908790839081106120cd57fe5b90600052602060002001549050808760000184815481106120ea57fe5b60009182526020808320909101929092558281526001898101909252604090209084019055865487908061211a57fe5b60019003818190600052602060002001600090559055866001016000878152602001908152602001600020600090556001945050505050610c81565b6000915050610c81565b828054600181600116156101000203166002900490600052602060002090601f016020900481019282601f106121a157805160ff19168380011785556121ce565b828001600101855582156121ce579182015b828111156121ce5782518255916020019190600101906121b3565b506121da9291506121de565b5090565b61092b91905b808211156121da57600081556001016121e456fe456e756d657261626c655365743a20696e646578206f7574206f6620626f756e64734368696c64436861696e4d616e616765723a20494e56414c49445f524f4f545f505245444943415445416363657373436f6e74726f6c3a2073656e646572206d75737420626520616e2061646d696e20746f206772616e744368696c64436861696e4d616e616765723a20494e56414c49445f53594e435f545950454368696c64436861696e4d616e616765723a20544f4b454e5f4e4f545f4d4150504544416363657373436f6e74726f6c3a2073656e646572206d75737420626520616e2061646d696e20746f207265766f6b654368696c64436861696e4d616e616765723a20494e56414c49445f4348494c445f544f4b454e4368696c64436861696e4d616e616765723a204241445f4e45575f434845434b504f494e545f4d414e414745524368696c64436861696e4d616e616765723a20544f4b454e5f545950455f4e4f545f535550504f525445444368696c64436861696e4d616e616765723a20494e56414c49445f524f4f545f434841494e5f414444524553534368696c64436861696e4d616e616765723a20494e56414c49445f4348494c445f5052454449434154454368696c64436861696e4d616e616765723a20414c52454144595f4d41505045444368696c64436861696e4d616e616765723a204241445f4e45575f53544154455f53454e4445524368696c64436861696e4d616e616765723a20494e56414c49445f544f4b454e5f54595045416363657373436f6e74726f6c3a2063616e206f6e6c792072656e6f756e636520726f6c657320666f722073656c66a2646970667358221220019600b77b4036900141bc246297885936419575dc7624af912cda5384474d9464736f6c63430006060033",
  "immutableReferences": {},
  "source": "pragma solidity 0.6.6;\n\nimport {IERC20} from \"@openzeppelin/contracts/token/ERC20/IERC20.sol\";\nimport {IChildChainManager} from \"./IChildChainManager.sol\";\nimport {IChildToken} from \"../ChildToken/IChildToken.sol\";\nimport {Initializable} from \"../../common/Initializable.sol\";\nimport {AccessControlMixin} from \"../../common/AccessControlMixin.sol\";\nimport {IStateReceiver} from \"../IStateReceiver.sol\";\nimport {ITokenPredicate} from \"../TokenPredicates/ITokenPredicate.sol\";\nimport {ChildChainManagerStorage} from \"./ChildChainManagerStorage.sol\";\nimport {IStateSender} from \"../StateSender/IStateSender.sol\";\nimport {ICheckpointManager} from \"../ICheckpointManager.sol\";\n\ncontract ChildChainManager is\n    IChildChainManager,\n    Initializable,\n    AccessControlMixin,\n    IStateReceiver,\n    ChildChainManagerStorage\n{\n    bytes32 public constant DEPOSIT = keccak256(\"DEPOSIT\");\n    bytes32 public constant MAP_TOKEN = keccak256(\"MAP_TOKEN\");\n    bytes32 public constant MAPPER_ROLE = keccak256(\"MAPPER_ROLE\");\n    bytes32 public constant STATE_SYNCER_ROLE = keccak256(\"STATE_SYNCER_ROLE\");\n    address public constant ETHER_ADDRESS =\n        0xEeeeeEeeeEeEeeEeEeEeeEEEeeeeEeeeeeeeEEeE;\n\n    // mapping(address => address) public rootToChildToken;\n\n    // mapping(address => address) public childToRootToken;\n\n    function initialize(address _owner) external initializer {\n        _setupContractId(\"ChildChainManager\");\n        _setupRole(DEFAULT_ADMIN_ROLE, _owner);\n        _setupRole(MAPPER_ROLE, _owner);\n        _setupRole(STATE_SYNCER_ROLE, _owner);\n    }\n\n    /**\n     * @notice Map a token to enable its movement via the PoS Portal, callable only by mappers\n     * Normally mapping should happen automatically using state sync\n     * This function should be used only while initial deployment when state sync is not registrered or if it fails\n     * @param rootToken address of token on root chain\n     * @param childToken address of token on child chain\n     */\n    function mapToken(address rootToken, address childToken)\n        external\n        override\n        only(MAPPER_ROLE)\n    {\n        _mapToken(rootToken, childToken);\n    }\n\n    /**\n     * @notice Receive state sync data from root chain, only callable by state syncer\n     * @dev state syncing mechanism is used for both depositing tokens and mapping them\n     * @param data bytes data from RootChainManager contract\n     * `data` is made up of bytes32 `syncType` and bytes `syncData`\n     * `syncType` determines if it is deposit or token mapping\n     * in case of token mapping, `syncData` is encoded address `rootToken`, address `childToken` and bytes32 `tokenType`\n     * in case of deposit, `syncData` is encoded address `user`, address `rootToken` and bytes `depositData`\n     * `depositData` is token specific data (amount in case of ERC20). It is passed as is to child token\n     */\n    function onStateReceive(\n        uint256,\n        bytes calldata data,\n        address childERC20Predicate\n    ) external override only(STATE_SYNCER_ROLE) {\n        (bytes32 syncType, bytes memory syncData) = abi.decode(\n            data,\n            (bytes32, bytes)\n        );\n\n        if (syncType == DEPOSIT) {\n            _syncDeposit(syncData, childERC20Predicate);\n        } else if (syncType == MAP_TOKEN) {\n            (address rootToken, address childToken, ) = abi.decode(\n                syncData,\n                (address, address, bytes32)\n            );\n            _mapToken(rootToken, childToken);\n        } else {\n            revert(\"ChildChainManager: INVALID_SYNC_TYPE\");\n        }\n    }\n\n    /**\n     * @notice Clean polluted token mapping\n     * @param rootToken address of token on root chain. Since rename token was introduced later stage,\n     * clean method is used to clean pollulated mapping\n     */\n    function cleanMapToken(address rootToken, address childToken)\n        external\n        override\n        only(MAPPER_ROLE)\n    {\n        rootToChildToken[rootToken] = address(0);\n        childToRootToken[childToken] = address(0);\n\n        emit TokenMapped(rootToken, childToken);\n    }\n\n    function _mapToken(address rootToken, address childToken) private {\n        address oldChildToken = rootToChildToken[rootToken];\n        address oldRootToken = childToRootToken[childToken];\n\n        if (rootToChildToken[oldRootToken] != address(0)) {\n            rootToChildToken[oldRootToken] = address(0);\n        }\n\n        if (childToRootToken[oldChildToken] != address(0)) {\n            childToRootToken[oldChildToken] = address(0);\n        }\n\n        rootToChildToken[rootToken] = childToken;\n        childToRootToken[childToken] = rootToken;\n\n        emit TokenMapped(rootToken, childToken);\n    }\n\n    function _syncDeposit(bytes memory syncData, address childERC20Predicate)\n        private\n    {\n        (address user, address rootToken, bytes memory depositData) = abi\n            .decode(syncData, (address, address, bytes));\n        address childTokenAddress = rootToChildToken[rootToken];\n        require(\n            childTokenAddress != address(0x0),\n            \"ChildChainManager: TOKEN_NOT_MAPPED\"\n        );\n        require(\n            childERC20Predicate != address(0x0),\n            \"ChildChainManager: INVALID_CHILD_PREDICATE\"\n        );\n\n        IChildToken childTokenContract = IChildToken(childTokenAddress);\n        childTokenContract.transfer(user, depositData, childERC20Predicate);\n    }\n\n    function depositFor(\n        address user,\n        address childToken,\n        bytes calldata depositData,\n        address rootERC20Predicate\n    ) external override {\n        require(\n            childToken != ETHER_ADDRESS,\n            \"ChildChainManager: INVALID_CHILD_TOKEN\"\n        );\n        _depositFor(user, childToken, depositData, rootERC20Predicate);\n    }\n\n    function _depositFor(\n        address user,\n        address childToken,\n        bytes memory depositData,\n        address rootERC20Predicate\n    ) private {\n        bytes32 tokenType = tokenToType[childToken];\n        require(\n            childToRootToken[childToken] != address(0x0) && tokenType != 0,\n            \"ChildChainManager: TOKEN_NOT_MAPPED\"\n        );\n        address predicateAddress = typeToPredicate[tokenType];\n        require(\n            predicateAddress != address(0),\n            \"ChildChainManager: INVALID_TOKEN_TYPE\"\n        );\n        require(\n            rootERC20Predicate != address(0),\n            \"ChildChainManager: INVALID_ROOT_PREDICATE\"\n        );\n        require(user != address(0), \"ChildChainManager: INVALID_USER\");\n\n        ITokenPredicate(predicateAddress).lockTokens(\n            _msgSender(),\n            user,\n            childToken,\n            depositData\n        );\n        bytes memory syncData = abi.encode(user, childToken, depositData);\n        _stateSender.syncStateU2(\n            rootChainManagerAddress,\n            rootERC20Predicate,\n            abi.encode(DEPOSIT, syncData)\n        );\n    }\n\n    function setRootChainManagerAddress(address newRootChainManager)\n        external\n        only(DEFAULT_ADMIN_ROLE)\n    {\n        require(\n            newRootChainManager != address(0x0),\n            \"ChildChainManager: INVALID_ROOT_CHAIN_ADDRESS\"\n        );\n        rootChainManagerAddress = newRootChainManager;\n    }\n\n    function setStateSender(address newStateSender)\n        external\n        only(DEFAULT_ADMIN_ROLE)\n    {\n        require(\n            newStateSender != address(0),\n            \"ChildChainManager: BAD_NEW_STATE_SENDER\"\n        );\n        _stateSender = IStateSender(newStateSender);\n    }\n\n    /**\n     * @notice Get the address of contract set as state sender\n     * @return The address of state sender contract\n     */\n    function stateSenderAddress() external view returns (address) {\n        return address(_stateSender);\n    }\n\n    /**\n     * @notice Set the checkpoint manager, callable only by admins\n     * @dev This should be the plasma contract responsible for keeping track of checkpoints\n     * @param newCheckpointManager address of checkpoint manager contract\n     */\n    function setCheckpointManager(address newCheckpointManager)\n        external\n        only(DEFAULT_ADMIN_ROLE)\n    {\n        require(\n            newCheckpointManager != address(0),\n            \"ChildChainManager: BAD_NEW_CHECKPOINT_MANAGER\"\n        );\n        _checkpointManager = ICheckpointManager(newCheckpointManager);\n    }\n\n    /**\n     * @notice Get the address of contract set as checkpoint manager\n     * @return The address of checkpoint manager contract\n     */\n    function checkpointManagerAddress() external view returns (address) {\n        return address(_checkpointManager);\n    }\n\n    function registerPredicate(bytes32 tokenType, address predicateAddress)\n        external\n        override\n        only(DEFAULT_ADMIN_ROLE)\n    {\n        typeToPredicate[tokenType] = predicateAddress;\n        emit PredicateRegistered(tokenType, predicateAddress);\n    }\n\n    function mapToken(\n        address rootToken,\n        address childToken,\n        bytes32 tokenType\n    ) external override only(MAPPER_ROLE) {\n        // explicit check if token is already mapped to avoid accidental remaps\n        require(\n            rootToChildToken[rootToken] == address(0) &&\n                childToRootToken[childToken] == address(0),\n            \"ChildChainManager: ALREADY_MAPPED\"\n        );\n        _mapToken(rootToken, childToken, tokenType);\n    }\n\n    function _mapToken(\n        address rootToken,\n        address childToken,\n        bytes32 tokenType\n    ) private {\n        require(\n            typeToPredicate[tokenType] != address(0x0),\n            \"ChildChainManager: TOKEN_TYPE_NOT_SUPPORTED\"\n        );\n\n        rootToChildToken[rootToken] = childToken;\n        childToRootToken[childToken] = rootToken;\n        tokenToType[childToken] = tokenType;\n\n        emit TokenMapped(rootToken, childToken, tokenType);\n\n        bytes memory syncData = abi.encode(rootToken, childToken, tokenType);\n        _stateSender.syncState(\n            rootChainManagerAddress,\n            abi.encode(MAP_TOKEN, syncData)\n        );\n    }\n}\n",
  "sourcePath": "/home/moiz/Desktop/Eth_Matic_Custom_Bridge_Use_Case_2-Actual-/contracts/child/ChildChainManager/ChildChainManager.sol",
  "compiler": {
    "name": "solc",
    "version": "0.6.6+commit.6c089d02.Emscripten.clang"
  },
  "schemaVersion": "3.4.10",
  "updatedAt": "2022-09-26T13:08:30.840Z",
  "networkType": "ethereum",
  "devdoc": {
    "methods": {
      "cleanMapToken(address,address)": {
        "params": {
          "rootToken": "address of token on root chain. Since rename token was introduced later stage, clean method is used to clean pollulated mapping"
        }
      },
      "getRoleAdmin(bytes32)": {
        "details": "Returns the admin role that controls `role`. See {grantRole} and {revokeRole}.     * To change a role's admin, use {_setRoleAdmin}."
      },
      "getRoleMember(bytes32,uint256)": {
        "details": "Returns one of the accounts that have `role`. `index` must be a value between 0 and {getRoleMemberCount}, non-inclusive.     * Role bearers are not sorted in any particular way, and their ordering may change at any point.     * WARNING: When using {getRoleMember} and {getRoleMemberCount}, make sure you perform all queries on the same block. See the following https://forum.openzeppelin.com/t/iterating-over-elements-on-enumerableset-in-openzeppelin-contracts/2296[forum post] for more information."
      },
      "getRoleMemberCount(bytes32)": {
        "details": "Returns the number of accounts that have `role`. Can be used together with {getRoleMember} to enumerate all bearers of a role."
      },
      "grantRole(bytes32,address)": {
        "details": "Grants `role` to `account`.     * If `account` had not been already granted `role`, emits a {RoleGranted} event.     * Requirements:     * - the caller must have ``role``'s admin role."
      },
      "hasRole(bytes32,address)": {
        "details": "Returns `true` if `account` has been granted `role`."
      },
      "mapToken(address,address)": {
        "params": {
          "childToken": "address of token on child chain",
          "rootToken": "address of token on root chain"
        }
      },
      "onStateReceive(uint256,bytes,address)": {
        "details": "state syncing mechanism is used for both depositing tokens and mapping them",
        "params": {
          "data": "bytes data from RootChainManager contract `data` is made up of bytes32 `syncType` and bytes `syncData` `syncType` determines if it is deposit or token mapping in case of token mapping, `syncData` is encoded address `rootToken`, address `childToken` and bytes32 `tokenType` in case of deposit, `syncData` is encoded address `user`, address `rootToken` and bytes `depositData` `depositData` is token specific data (amount in case of ERC20). It is passed as is to child token"
        }
      },
      "renounceRole(bytes32,address)": {
        "details": "Revokes `role` from the calling account.     * Roles are often managed via {grantRole} and {revokeRole}: this function's purpose is to provide a mechanism for accounts to lose their privileges if they are compromised (such as when a trusted device is misplaced).     * If the calling account had been granted `role`, emits a {RoleRevoked} event.     * Requirements:     * - the caller must be `account`."
      },
      "revokeRole(bytes32,address)": {
        "details": "Revokes `role` from `account`.     * If `account` had been granted `role`, emits a {RoleRevoked} event.     * Requirements:     * - the caller must have ``role``'s admin role."
      },
      "setCheckpointManager(address)": {
        "details": "This should be the plasma contract responsible for keeping track of checkpoints",
        "params": {
          "newCheckpointManager": "address of checkpoint manager contract"
        }
      }
    }
  },
  "userdoc": {
    "methods": {
      "checkpointManagerAddress()": {
        "notice": "Get the address of contract set as checkpoint manager"
      },
      "cleanMapToken(address,address)": {
        "notice": "Clean polluted token mapping"
      },
      "mapToken(address,address)": {
        "notice": "Map a token to enable its movement via the PoS Portal, callable only by mappers Normally mapping should happen automatically using state sync This function should be used only while initial deployment when state sync is not registrered or if it fails"
      },
      "onStateReceive(uint256,bytes,address)": {
        "notice": "Receive state sync data from root chain, only callable by state syncer"
      },
      "setCheckpointManager(address)": {
        "notice": "Set the checkpoint manager, callable only by admins"
      },
      "stateSenderAddress()": {
        "notice": "Get the address of contract set as state sender"
      }
    }
  }
}