{
  "contractName": "ChildDummyStateSender",
  "abi": [
    {
      "anonymous": false,
      "inputs": [
        {
          "indexed": true,
          "internalType": "uint256",
          "name": "id",
          "type": "uint256"
        },
        {
          "indexed": true,
          "internalType": "address",
          "name": "contractAddress",
          "type": "address"
        },
        {
          "indexed": false,
          "internalType": "bytes",
          "name": "data",
          "type": "bytes"
        }
      ],
      "name": "StateSynced",
      "type": "event"
    },
    {
      "inputs": [],
      "name": "_data",
      "outputs": [
        {
          "internalType": "bytes",
          "name": "",
          "type": "bytes"
        }
      ],
      "stateMutability": "view",
      "type": "function"
    },
    {
      "inputs": [],
      "name": "_rootERC20Predicate",
      "outputs": [
        {
          "internalType": "address",
          "name": "",
          "type": "address"
        }
      ],
      "stateMutability": "view",
      "type": "function"
    },
    {
      "inputs": [],
      "name": "idOfTheSync",
      "outputs": [
        {
          "internalType": "uint256",
          "name": "",
          "type": "uint256"
        }
      ],
      "stateMutability": "view",
      "type": "function"
    },
    {
      "inputs": [],
      "name": "receiverContractAddressOnRootChain",
      "outputs": [
        {
          "internalType": "address",
          "name": "",
          "type": "address"
        }
      ],
      "stateMutability": "view",
      "type": "function"
    },
    {
      "inputs": [
        {
          "internalType": "address",
          "name": "receiver",
          "type": "address"
        },
        {
          "internalType": "bytes",
          "name": "data",
          "type": "bytes"
        }
      ],
      "name": "syncState",
      "outputs": [],
      "stateMutability": "nonpayable",
      "type": "function"
    },
    {
      "inputs": [
        {
          "internalType": "address",
          "name": "receiver",
          "type": "address"
        },
        {
          "internalType": "address",
          "name": "rootERC20Predicate",
          "type": "address"
        },
        {
          "internalType": "bytes",
          "name": "data",
          "type": "bytes"
        }
      ],
      "name": "syncStateU2",
      "outputs": [],
      "stateMutability": "nonpayable",
      "type": "function"
    }
  ],
  "bytecode": "0x608060405234801561001057600080fd5b50610500806100206000396000f3fe608060405234801561001057600080fd5b50600436106100625760003560e01c806316f198311461006757806346221e9b146100e957806368beab3f1461010d5780636f44a7101461018a5780637786b6d514610213578063dc46aa331461022d575b600080fd5b6100e76004803603604081101561007d57600080fd5b6001600160a01b0382351691908101906040810160208201356401000000008111156100a857600080fd5b8201836020820111156100ba57600080fd5b803590602001918460018302840111640100000000831117156100dc57600080fd5b509092509050610235565b005b6100f16102ce565b604080516001600160a01b039092168252519081900360200190f35b6101156102dd565b6040805160208082528351818301528351919283929083019185019080838360005b8381101561014f578181015183820152602001610137565b50505050905090810190601f16801561017c5780820380516001836020036101000a031916815260200191505b509250505060405180910390f35b6100e7600480360360608110156101a057600080fd5b6001600160a01b0382358116926020810135909116918101906060810160408201356401000000008111156101d457600080fd5b8201836020820111156101e657600080fd5b8035906020019184600183028401116401000000008311171561020857600080fd5b50909250905061036b565b61021b61041a565b60408051918252519081900360200190f35b6100f1610420565b600180546001600160a01b0319166001600160a01b03851617905561025c6003838361042f565b50826001600160a01b031660017f103fed9db65eac19c4d870f49ab7520fe03b99f1838e5996caf47e9e43308392848460405180806020018281038252848482818152602001925080828437600083820152604051601f909101601f19169092018290039550909350505050a3505050565b6001546001600160a01b031681565b6003805460408051602060026001851615610100026000190190941693909304601f810184900484028201840190925281815292918301828280156103635780601f1061033857610100808354040283529160200191610363565b820191906000526020600020905b81548152906001019060200180831161034657829003601f168201915b505050505081565b600180546001600160a01b038087166001600160a01b03199283161790925560028054928616929091169190911790556103a76003838361042f565b50836001600160a01b031660017f103fed9db65eac19c4d870f49ab7520fe03b99f1838e5996caf47e9e43308392848460405180806020018281038252848482818152602001925080828437600083820152604051601f909101601f19169092018290039550909350505050a350505050565b60005481565b6002546001600160a01b031681565b828054600181600116156101000203166002900490600052602060002090601f016020900481019282601f106104705782800160ff1982351617855561049d565b8280016001018555821561049d579182015b8281111561049d578235825591602001919060010190610482565b506104a99291506104ad565b5090565b6104c791905b808211156104a957600081556001016104b3565b9056fea2646970667358221220d5ecc5405fac4d5bb47c0725dec5508421fbe2974ec673b85e930f0b7f395dc564736f6c63430006060033",
  "immutableReferences": {},
  "source": "pragma solidity 0.6.6;\n\nimport {IStateSender} from \"../StateSender/IStateSender.sol\";\n\n/**\n * @notice Dummy State Sender contract to simulate plasma state sender while testing\n */\ncontract ChildDummyStateSender is IStateSender {\n    uint256 public idOfTheSync;\n    address public receiverContractAddressOnRootChain;\n    address public _rootERC20Predicate;\n    bytes public _data;\n\n    /**\n     * @notice Event emitted when when syncState is called\n     * @dev Heimdall bridge listens to this event and sends the data to receiver contract on child chain\n     * @param id Id of the sync, increamented for each event in case of actual state sender contract\n     * @param contractAddress the contract receiving data on child chain\n     * @param data bytes data to be sent\n     */\n\n    event StateSynced(\n        uint256 indexed id,\n        address indexed contractAddress,\n        bytes data\n    );\n\n    /**\n     * @notice called to send data to child chain\n     * @dev sender and receiver contracts need to be registered in case of actual state sender contract\n     * @param receiver the contract receiving data on child chain\n     * @param data bytes data to be sent\n     */\n    function syncState(address receiver, bytes calldata data)\n        external\n        override\n    {\n        receiverContractAddressOnRootChain = receiver;\n        _data = data;\n\n        emit StateSynced(1, receiver, data);\n    }\n\n    function syncStateU2(\n        address receiver,\n        address rootERC20Predicate,\n        bytes calldata data\n    ) external override {\n        receiverContractAddressOnRootChain = receiver;\n        _rootERC20Predicate = rootERC20Predicate;\n        _data = data;\n\n        emit StateSynced(1, receiver, data);\n    }\n}\n",
  "sourcePath": "/home/moiz/Desktop/Eth_Matic_Custom_Bridge_Use_Case_2-Actual-/contracts/child/StateSender/DummyStateSender.sol",
  "compiler": {
    "name": "solc",
    "version": "0.6.6+commit.6c089d02.Emscripten.clang"
  },
  "schemaVersion": "3.4.10",
  "updatedAt": "2022-09-26T13:08:10.820Z",
  "devdoc": {
    "methods": {
      "syncState(address,bytes)": {
        "details": "sender and receiver contracts need to be registered in case of actual state sender contract",
        "params": {
          "data": "bytes data to be sent",
          "receiver": "the contract receiving data on child chain"
        }
      }
    }
  },
  "userdoc": {
    "methods": {
      "syncState(address,bytes)": {
        "notice": "called to send data to child chain"
      }
    },
    "notice": "Dummy State Sender contract to simulate plasma state sender while testing"
  }
}