{
  "contractName": "DummyStateSender",
  "abi": [
    {
      "anonymous": false,
      "inputs": [
        {
          "indexed": true,
          "internalType": "uint256",
          "name": "id",
          "type": "uint256"
        },
        {
          "indexed": true,
          "internalType": "address",
          "name": "contractAddress",
          "type": "address"
        },
        {
          "indexed": false,
          "internalType": "bytes",
          "name": "data",
          "type": "bytes"
        }
      ],
      "name": "StateSynced",
      "type": "event"
    },
    {
      "inputs": [],
      "name": "_data",
      "outputs": [
        {
          "internalType": "bytes",
          "name": "",
          "type": "bytes"
        }
      ],
      "stateMutability": "view",
      "type": "function",
      "constant": true
    },
    {
      "inputs": [],
      "name": "idOfTheSync",
      "outputs": [
        {
          "internalType": "uint256",
          "name": "",
          "type": "uint256"
        }
      ],
      "stateMutability": "view",
      "type": "function",
      "constant": true
    },
    {
      "inputs": [],
      "name": "receiverContractAddressOnChildChain",
      "outputs": [
        {
          "internalType": "address",
          "name": "",
          "type": "address"
        }
      ],
      "stateMutability": "view",
      "type": "function",
      "constant": true
    },
    {
      "inputs": [
        {
          "internalType": "address",
          "name": "receiver",
          "type": "address"
        },
        {
          "internalType": "bytes",
          "name": "data",
          "type": "bytes"
        }
      ],
      "name": "syncState",
      "outputs": [],
      "stateMutability": "nonpayable",
      "type": "function"
    }
  ],
  "bytecode": "0x608060405234801561001057600080fd5b50610398806100206000396000f3fe608060405234801561001057600080fd5b506004361061004c5760003560e01c806316f198311461005157806368beab3f146100d35780637786b6d514610150578063a9ebca3c1461016a575b600080fd5b6100d16004803603604081101561006757600080fd5b6001600160a01b03823516919081019060408101602082013564010000000081111561009257600080fd5b8201836020820111156100a457600080fd5b803590602001918460018302840111640100000000831117156100c657600080fd5b50909250905061018e565b005b6100db610227565b6040805160208082528351818301528351919283929083019185019080838360005b838110156101155781810151838201526020016100fd565b50505050905090810190601f1680156101425780820380516001836020036101000a031916815260200191505b509250505060405180910390f35b6101586102b2565b60408051918252519081900360200190f35b6101726102b8565b604080516001600160a01b039092168252519081900360200190f35b600180546001600160a01b0319166001600160a01b0385161790556101b5600283836102c7565b50826001600160a01b031660017f103fed9db65eac19c4d870f49ab7520fe03b99f1838e5996caf47e9e43308392848460405180806020018281038252848482818152602001925080828437600083820152604051601f909101601f19169092018290039550909350505050a3505050565b6002805460408051602060018416156101000260001901909316849004601f810184900484028201840190925281815292918301828280156102aa5780601f1061027f576101008083540402835291602001916102aa565b820191906000526020600020905b81548152906001019060200180831161028d57829003601f168201915b505050505081565b60005481565b6001546001600160a01b031681565b828054600181600116156101000203166002900490600052602060002090601f016020900481019282601f106103085782800160ff19823516178555610335565b82800160010185558215610335579182015b8281111561033557823582559160200191906001019061031a565b50610341929150610345565b5090565b61035f91905b80821115610341576000815560010161034b565b9056fea26469706673582212204b4cee431737f5b32885a5de27eedad2aaaea711969dd756cbbd56aee4f8ba0e64736f6c63430006060033",
  "immutableReferences": {},
  "source": "pragma solidity 0.6.6;\n\nimport {IStateSender} from \"../StateSender/IStateSender.sol\";\n\n/**\n * @notice Dummy State Sender contract to simulate plasma state sender while testing\n */\ncontract DummyStateSender is IStateSender {\n    uint256 public idOfTheSync;\n    address public receiverContractAddressOnChildChain;\n    bytes public _data;\n\n    /**\n     * @notice Event emitted when when syncState is called\n     * @dev Heimdall bridge listens to this event and sends the data to receiver contract on child chain\n     * @param id Id of the sync, increamented for each event in case of actual state sender contract\n     * @param contractAddress the contract receiving data on child chain\n     * @param data bytes data to be sent\n     */\n\n    event StateSynced(\n        uint256 indexed id,\n        address indexed contractAddress,\n        bytes data\n    );\n\n    /**\n     * @notice called to send data to child chain\n     * @dev sender and receiver contracts need to be registered in case of actual state sender contract\n     * @param receiver the contract receiving data on child chain\n     * @param data bytes data to be sent\n     */\n    function syncState(address receiver, bytes calldata data)\n        external\n        override\n    {\n        receiverContractAddressOnChildChain = receiver;\n        _data = data;\n\n        emit StateSynced(1, receiver, data);\n    }\n}\n",
  "sourcePath": "/home/moiz/NETSOl/Task-25, Bridge between polygon and ethereum (erc-20) Use-case 2/Ethereum_Polygon_Custom_Bridge_ERC20_Contracts_on_Testnet_without_status_Checks_Use_case_2/contracts/root/StateSender/DummyStateSender.sol",
  "compiler": {
    "name": "solc",
    "version": "0.6.6+commit.6c089d02.Emscripten.clang"
  },
  "schemaVersion": "3.4.8",
  "updatedAt": "2022-09-21T07:54:15.217Z",
  "networkType": "ethereum",
  "devdoc": {
    "methods": {
      "syncState(address,bytes)": {
        "details": "sender and receiver contracts need to be registered in case of actual state sender contract",
        "params": {
          "data": "bytes data to be sent",
          "receiver": "the contract receiving data on child chain"
        }
      }
    }
  },
  "userdoc": {
    "methods": {
      "syncState(address,bytes)": {
        "notice": "called to send data to child chain"
      }
    },
    "notice": "Dummy State Sender contract to simulate plasma state sender while testing"
  }
}