{
  "contractName": "DummyERC20",
  "abi": [
    {
      "inputs": [
        {
          "internalType": "string",
          "name": "name_",
          "type": "string"
        },
        {
          "internalType": "string",
          "name": "symbol_",
          "type": "string"
        },
        {
          "internalType": "address",
          "name": "rootERC20Predicate_",
          "type": "address"
        }
      ],
      "stateMutability": "nonpayable",
      "type": "constructor"
    },
    {
      "anonymous": false,
      "inputs": [
        {
          "indexed": true,
          "internalType": "address",
          "name": "owner",
          "type": "address"
        },
        {
          "indexed": true,
          "internalType": "address",
          "name": "spender",
          "type": "address"
        },
        {
          "indexed": false,
          "internalType": "uint256",
          "name": "value",
          "type": "uint256"
        }
      ],
      "name": "Approval",
      "type": "event"
    },
    {
      "anonymous": false,
      "inputs": [
        {
          "indexed": false,
          "internalType": "address",
          "name": "userAddress",
          "type": "address"
        },
        {
          "indexed": false,
          "internalType": "address payable",
          "name": "relayerAddress",
          "type": "address"
        },
        {
          "indexed": false,
          "internalType": "bytes",
          "name": "functionSignature",
          "type": "bytes"
        }
      ],
      "name": "MetaTransactionExecuted",
      "type": "event"
    },
    {
      "anonymous": false,
      "inputs": [
        {
          "indexed": true,
          "internalType": "address",
          "name": "from",
          "type": "address"
        },
        {
          "indexed": true,
          "internalType": "address",
          "name": "to",
          "type": "address"
        },
        {
          "indexed": false,
          "internalType": "uint256",
          "name": "value",
          "type": "uint256"
        }
      ],
      "name": "Transfer",
      "type": "event"
    },
    {
      "inputs": [],
      "name": "DEPOSITOR_ROLE",
      "outputs": [
        {
          "internalType": "bytes32",
          "name": "",
          "type": "bytes32"
        }
      ],
      "stateMutability": "view",
      "type": "function",
      "constant": true
    },
    {
      "inputs": [],
      "name": "ERC712_VERSION",
      "outputs": [
        {
          "internalType": "string",
          "name": "",
          "type": "string"
        }
      ],
      "stateMutability": "view",
      "type": "function",
      "constant": true
    },
    {
      "inputs": [
        {
          "internalType": "address",
          "name": "owner",
          "type": "address"
        },
        {
          "internalType": "address",
          "name": "spender",
          "type": "address"
        }
      ],
      "name": "allowance",
      "outputs": [
        {
          "internalType": "uint256",
          "name": "",
          "type": "uint256"
        }
      ],
      "stateMutability": "view",
      "type": "function",
      "constant": true
    },
    {
      "inputs": [
        {
          "internalType": "address",
          "name": "spender",
          "type": "address"
        },
        {
          "internalType": "uint256",
          "name": "amount",
          "type": "uint256"
        }
      ],
      "name": "approve",
      "outputs": [
        {
          "internalType": "bool",
          "name": "",
          "type": "bool"
        }
      ],
      "stateMutability": "nonpayable",
      "type": "function"
    },
    {
      "inputs": [
        {
          "internalType": "address",
          "name": "account",
          "type": "address"
        }
      ],
      "name": "balanceOf",
      "outputs": [
        {
          "internalType": "uint256",
          "name": "",
          "type": "uint256"
        }
      ],
      "stateMutability": "view",
      "type": "function",
      "constant": true
    },
    {
      "inputs": [],
      "name": "decimals",
      "outputs": [
        {
          "internalType": "uint8",
          "name": "",
          "type": "uint8"
        }
      ],
      "stateMutability": "view",
      "type": "function",
      "constant": true
    },
    {
      "inputs": [
        {
          "internalType": "address",
          "name": "spender",
          "type": "address"
        },
        {
          "internalType": "uint256",
          "name": "subtractedValue",
          "type": "uint256"
        }
      ],
      "name": "decreaseAllowance",
      "outputs": [
        {
          "internalType": "bool",
          "name": "",
          "type": "bool"
        }
      ],
      "stateMutability": "nonpayable",
      "type": "function"
    },
    {
      "inputs": [
        {
          "internalType": "address",
          "name": "userAddress",
          "type": "address"
        },
        {
          "internalType": "bytes",
          "name": "functionSignature",
          "type": "bytes"
        },
        {
          "internalType": "bytes32",
          "name": "sigR",
          "type": "bytes32"
        },
        {
          "internalType": "bytes32",
          "name": "sigS",
          "type": "bytes32"
        },
        {
          "internalType": "uint8",
          "name": "sigV",
          "type": "uint8"
        }
      ],
      "name": "executeMetaTransaction",
      "outputs": [
        {
          "internalType": "bytes",
          "name": "",
          "type": "bytes"
        }
      ],
      "stateMutability": "payable",
      "type": "function",
      "payable": true
    },
    {
      "inputs": [],
      "name": "getChainId",
      "outputs": [
        {
          "internalType": "uint256",
          "name": "",
          "type": "uint256"
        }
      ],
      "stateMutability": "pure",
      "type": "function",
      "constant": true
    },
    {
      "inputs": [],
      "name": "getDomainSeperator",
      "outputs": [
        {
          "internalType": "bytes32",
          "name": "",
          "type": "bytes32"
        }
      ],
      "stateMutability": "view",
      "type": "function",
      "constant": true
    },
    {
      "inputs": [
        {
          "internalType": "address",
          "name": "user",
          "type": "address"
        }
      ],
      "name": "getNonce",
      "outputs": [
        {
          "internalType": "uint256",
          "name": "nonce",
          "type": "uint256"
        }
      ],
      "stateMutability": "view",
      "type": "function",
      "constant": true
    },
    {
      "inputs": [
        {
          "internalType": "address",
          "name": "spender",
          "type": "address"
        },
        {
          "internalType": "uint256",
          "name": "addedValue",
          "type": "uint256"
        }
      ],
      "name": "increaseAllowance",
      "outputs": [
        {
          "internalType": "bool",
          "name": "",
          "type": "bool"
        }
      ],
      "stateMutability": "nonpayable",
      "type": "function"
    },
    {
      "inputs": [],
      "name": "name",
      "outputs": [
        {
          "internalType": "string",
          "name": "",
          "type": "string"
        }
      ],
      "stateMutability": "view",
      "type": "function",
      "constant": true
    },
    {
      "inputs": [],
      "name": "symbol",
      "outputs": [
        {
          "internalType": "string",
          "name": "",
          "type": "string"
        }
      ],
      "stateMutability": "view",
      "type": "function",
      "constant": true
    },
    {
      "inputs": [],
      "name": "totalSupply",
      "outputs": [
        {
          "internalType": "uint256",
          "name": "",
          "type": "uint256"
        }
      ],
      "stateMutability": "view",
      "type": "function",
      "constant": true
    },
    {
      "inputs": [
        {
          "internalType": "address",
          "name": "sender",
          "type": "address"
        },
        {
          "internalType": "address",
          "name": "recipient",
          "type": "address"
        },
        {
          "internalType": "uint256",
          "name": "amount",
          "type": "uint256"
        }
      ],
      "name": "transferFrom",
      "outputs": [
        {
          "internalType": "bool",
          "name": "",
          "type": "bool"
        }
      ],
      "stateMutability": "nonpayable",
      "type": "function"
    },
    {
      "inputs": [
        {
          "internalType": "address",
          "name": "user",
          "type": "address"
        },
        {
          "internalType": "bytes",
          "name": "depositData",
          "type": "bytes"
        },
        {
          "internalType": "address",
          "name": "rootERC20Predicate",
          "type": "address"
        }
      ],
      "name": "transfer",
      "outputs": [],
      "stateMutability": "nonpayable",
      "type": "function"
    },
    {
      "inputs": [
        {
          "internalType": "address",
          "name": "recipient",
          "type": "address"
        },
        {
          "internalType": "uint256",
          "name": "amount",
          "type": "uint256"
        }
      ],
      "name": "transfer",
      "outputs": [
        {
          "internalType": "bool",
          "name": "",
          "type": "bool"
        }
      ],
      "stateMutability": "nonpayable",
      "type": "function"
    }
  ],
  "bytecode": "0x60806040526005805461ff00191690553480156200001c57600080fd5b5060405162001c8b38038062001c8b833981810160405260608110156200004257600080fd5b81019080805160405193929190846401000000008211156200006357600080fd5b9083019060208201858111156200007957600080fd5b82516401000000008111828201881017156200009457600080fd5b82525081516020918201929091019080838360005b83811015620000c3578181015183820152602001620000a9565b50505050905090810190601f168015620000f15780820380516001836020036101000a031916815260200191505b50604052602001805160405193929190846401000000008211156200011557600080fd5b9083019060208201858111156200012b57600080fd5b82516401000000008111828201881017156200014657600080fd5b82525081516020918201929091019080838360005b83811015620001755781810151838201526020016200015b565b50505050905090810190601f168015620001a35780820380516001836020036101000a031916815260200191505b5060405260209081015185519093508592508491620001c891600391850190620007b6565b508051620001de906004906020840190620007b6565b50506005805460ff191660121790555062000202836001600160e01b036200027a16565b68056bc75e2d6310000060088190556802b5e3af16b188000090620002329030906001600160e01b03620002ef16565b6200025a306200024a6001600160e01b03620003f616565b836001600160e01b036200041316565b620002703083836001600160e01b036200041316565b5050505062000858565b600554610100900460ff1615620002c9576040805162461bcd60e51b815260206004820152600e60248201526d185b1c9958591e481a5b9a5d195960921b604482015290519081900360640190fd5b620002dd816001600160e01b036200058916565b506005805461ff001916610100179055565b6001600160a01b0382166200034b576040805162461bcd60e51b815260206004820152601f60248201527f45524332303a206d696e7420746f20746865207a65726f206164647265737300604482015290519081900360640190fd5b62000362600083836001600160e01b036200065116565b6200037e816002546200065660201b62000dc21790919060201c565b6002556001600160a01b03821660009081526020818152604090912054620003b191839062000dc262000656821b17901c565b6001600160a01b03831660008181526020818152604080832094909455835185815293519293919260008051602062001c468339815191529281900390910190a35050565b60006200040d620006b860201b620010211760201c565b90505b90565b6001600160a01b0383166200045a5760405162461bcd60e51b815260040180806020018281038252602581526020018062001c666025913960400191505060405180910390fd5b6001600160a01b038216620004a15760405162461bcd60e51b815260040180806020018281038252602381526020018062001bae6023913960400191505060405180910390fd5b620004b78383836001600160e01b036200065116565b620005028160405180606001604052806026815260200162001c20602691396001600160a01b0386166000908152602081815260409091205492919062000f8a62000717821b17901c565b6001600160a01b0380851660009081526020818152604080832094909455918516815291909120546200054091839062000dc262000656821b17901c565b6001600160a01b0380841660008181526020818152604091829020949094558051858152905191939287169260008051602062001c4683398151915292918290030190a3505050565b6040518060800160405280604f815260200162001bd1604f913980516020918201208251838301206040805180820190915260018152603160f81b930192909252907fc89efdaa54c0f20c7adf612882df0950f5a951637e0307cdcb4c672f298b8bc630620006006001600160e01b03620007b216565b604080516020808201979097528082019590955260608501939093526001600160a01b03909116608084015260a0808401919091528151808403909101815260c09092019052805191012060065550565b505050565b600082820183811015620006b1576040805162461bcd60e51b815260206004820152601b60248201527f536166654d6174683a206164646974696f6e206f766572666c6f770000000000604482015290519081900360640190fd5b9392505050565b600033301415620007125760606000368080601f0160208091040260200160405190810160405280939291908181526020018383808284376000920191909152505050503601516001600160a01b03169150620004109050565b503390565b60008184841115620007aa5760405162461bcd60e51b81526004018080602001828103825283818151815260200191508051906020019080838360005b838110156200076e57818101518382015260200162000754565b50505050905090810190601f1680156200079c5780820380516001836020036101000a031916815260200191505b509250505060405180910390fd5b505050900390565b4690565b828054600181600116156101000203166002900490600052602060002090601f016020900481019282601f10620007f957805160ff191683800117855562000829565b8280016001018555821562000829579182015b82811115620008295782518255916020019190600101906200080c565b50620008379291506200083b565b5090565b6200041091905b8082111562000837576000815560010162000842565b61134680620008686000396000f3fe6080604052600436106101095760003560e01c80633408e4701161009557806395d89b411161006457806395d89b41146104b4578063a3b0b5a3146104c9578063a457c2d7146104de578063a9059cbb14610517578063dd62ed3e1461055057610109565b80633408e4701461039b57806339509351146103b057806349d5f3f2146103e957806370a082311461048157610109565b806318160ddd116100dc57806318160ddd146102be57806320379ee5146102e557806323b872dd146102fa5780632d0335ab1461033d578063313ce5671461037057610109565b806306fdde031461010e578063095ea7b3146101985780630c53c51c146101e55780630f7e5970146102a9575b600080fd5b34801561011a57600080fd5b5061012361058b565b6040805160208082528351818301528351919283929083019185019080838360005b8381101561015d578181015183820152602001610145565b50505050905090810190601f16801561018a5780820380516001836020036101000a031916815260200191505b509250505060405180910390f35b3480156101a457600080fd5b506101d1600480360360408110156101bb57600080fd5b506001600160a01b038135169060200135610621565b604080519115158252519081900360200190f35b610123600480360360a08110156101fb57600080fd5b6001600160a01b03823516919081019060408101602082013564010000000081111561022657600080fd5b82018360208201111561023857600080fd5b8035906020019184600183028401116401000000008311171561025a57600080fd5b91908080601f016020809104026020016040519081016040528093929190818152602001838380828437600092019190915250929550508235935050506020810135906040013560ff1661063e565b3480156102b557600080fd5b50610123610941565b3480156102ca57600080fd5b506102d361095e565b60408051918252519081900360200190f35b3480156102f157600080fd5b506102d3610964565b34801561030657600080fd5b506101d16004803603606081101561031d57600080fd5b506001600160a01b0381358116916020810135909116906040013561096a565b34801561034957600080fd5b506102d36004803603602081101561036057600080fd5b50356001600160a01b03166109f7565b34801561037c57600080fd5b50610385610a12565b6040805160ff9092168252519081900360200190f35b3480156103a757600080fd5b506102d3610a1b565b3480156103bc57600080fd5b506101d1600480360360408110156103d357600080fd5b506001600160a01b038135169060200135610a1f565b3480156103f557600080fd5b5061047f6004803603606081101561040c57600080fd5b6001600160a01b03823516919081019060408101602082013564010000000081111561043757600080fd5b82018360208201111561044957600080fd5b8035906020019184600183028401116401000000008311171561046b57600080fd5b9193509150356001600160a01b0316610a73565b005b34801561048d57600080fd5b506102d3600480360360208110156104a457600080fd5b50356001600160a01b0316610a9b565b3480156104c057600080fd5b50610123610ab6565b3480156104d557600080fd5b506102d3610b17565b3480156104ea57600080fd5b506101d16004803603604081101561050157600080fd5b506001600160a01b038135169060200135610b3d565b34801561052357600080fd5b506101d16004803603604081101561053a57600080fd5b506001600160a01b038135169060200135610bab565b34801561055c57600080fd5b506102d36004803603604081101561057357600080fd5b506001600160a01b0381358116916020013516610bbf565b60038054604080516020601f60026000196101006001881615020190951694909404938401819004810282018101909252828152606093909290918301828280156106175780601f106105ec57610100808354040283529160200191610617565b820191906000526020600020905b8154815290600101906020018083116105fa57829003601f168201915b5050505050905090565b600061063561062e610bea565b8484610bf9565b50600192915050565b606061064861115c565b50604080516060810182526001600160a01b038816600081815260076020908152908490205483528201529081018690526106868782878787610ce5565b6106c15760405162461bcd60e51b81526004018080602001828103825260218152602001806112826021913960400191505060405180910390fd5b6001600160a01b0387166000908152600760205260409020546106eb90600163ffffffff610dc216565b6001600160a01b03881660008181526007602090815260408083209490945583519283523383820181905260609484018581528b51958501959095528a517f5845892132946850460bff5a0083f71031bc5bf9aadcd40f1de79423eac9b10b958d9592948d94919260808501928601918190849084905b8381101561077a578181015183820152602001610762565b50505050905090810190601f1680156107a75780820380516001836020036101000a031916815260200191505b5094505050505060405180910390a160006060306001600160a01b0316888a6040516020018083805190602001908083835b602083106107f85780518252601f1990920191602091820191016107d9565b6001836020036101000a038019825116818451168082178552505050505050905001826001600160a01b03166001600160a01b031660601b8152601401925050506040516020818303038152906040526040518082805190602001908083835b602083106108775780518252601f199092019160209182019101610858565b6001836020036101000a0380198251168184511680821785525050505050509050019150506000604051808303816000865af19150503d80600081146108d9576040519150601f19603f3d011682016040523d82523d6000602084013e6108de565b606091505b509150915081610935576040805162461bcd60e51b815260206004820152601c60248201527f46756e6374696f6e2063616c6c206e6f74207375636365737366756c00000000604482015290519081900360640190fd5b98975050505050505050565b604051806040016040528060018152602001603160f81b81525081565b60025490565b60065490565b6000610977848484610e23565b6109ed84610983610bea565b6109e88560405180606001604052806028815260200161125a602891396001600160a01b038a166000908152600160205260408120906109c1610bea565b6001600160a01b03168152602081019190915260400160002054919063ffffffff610f8a16565b610bf9565b5060019392505050565b6001600160a01b031660009081526007602052604090205490565b60055460ff1690565b4690565b6000610635610a2c610bea565b846109e88560016000610a3d610bea565b6001600160a01b03908116825260208083019390935260409182016000908120918c16815292529020549063ffffffff610dc216565b600083836020811015610a8557600080fd5b50359050610a94828683610e23565b5050505050565b6001600160a01b031660009081526020819052604090205490565b60048054604080516020601f60026000196101006001881615020190951694909404938401819004810282018101909252828152606093909290918301828280156106175780601f106105ec57610100808354040283529160200191610617565b604080516d4445504f5349544f525f524f4c4560901b8152905190819003600e01902081565b6000610635610b4a610bea565b846109e8856040518060600160405280602581526020016112ec6025913960016000610b74610bea565b6001600160a01b03908116825260208083019390935260409182016000908120918d1681529252902054919063ffffffff610f8a16565b6000610635610bb8610bea565b8484610e23565b6001600160a01b03918216600090815260016020908152604080832093909416825291909152205490565b6000610bf4611021565b905090565b6001600160a01b038316610c3e5760405162461bcd60e51b81526004018080602001828103825260248152602001806112c86024913960400191505060405180910390fd5b6001600160a01b038216610c835760405162461bcd60e51b81526004018080602001828103825260228152602001806111ed6022913960400191505060405180910390fd5b6001600160a01b03808416600081815260016020908152604080832094871680845294825291829020859055815185815291517f8c5be1e5ebec7d5bd14f71427d1e84f3dd0314c0f7b2291e5b200ac8c7c3b9259281900390910190a3505050565b60006001600160a01b038616610d2c5760405162461bcd60e51b81526004018080602001828103825260258152602001806112356025913960400191505060405180910390fd5b6001610d3f610d3a8761107f565b61110b565b83868660405160008152602001604052604051808581526020018460ff1660ff1681526020018381526020018281526020019450505050506020604051602081039080840390855afa158015610d99573d6000803e3d6000fd5b505050602060405103516001600160a01b0316866001600160a01b031614905095945050505050565b600082820183811015610e1c576040805162461bcd60e51b815260206004820152601b60248201527f536166654d6174683a206164646974696f6e206f766572666c6f770000000000604482015290519081900360640190fd5b9392505050565b6001600160a01b038316610e685760405162461bcd60e51b81526004018080602001828103825260258152602001806112a36025913960400191505060405180910390fd5b6001600160a01b038216610ead5760405162461bcd60e51b81526004018080602001828103825260238152602001806111876023913960400191505060405180910390fd5b610eb8838383611157565b610efb8160405180606001604052806026815260200161120f602691396001600160a01b038616600090815260208190526040902054919063ffffffff610f8a16565b6001600160a01b038085166000908152602081905260408082209390935590841681522054610f30908263ffffffff610dc216565b6001600160a01b038084166000818152602081815260409182902094909455805185815290519193928716927fddf252ad1be2c89b69c2b068fc378daa952ba7f163c4a11628f55a4df523b3ef92918290030190a3505050565b600081848411156110195760405162461bcd60e51b81526004018080602001828103825283818151815260200191508051906020019080838360005b83811015610fde578181015183820152602001610fc6565b50505050905090810190601f16801561100b5780820380516001836020036101000a031916815260200191505b509250505060405180910390fd5b505050900390565b6000333014156110795760606000368080601f0160208091040260200160405190810160405280939291908181526020018383808284376000920191909152505050503601516001600160a01b0316915061107c9050565b50335b90565b60006040518060800160405280604381526020016111aa60439139805190602001208260000151836020015184604001518051906020012060405160200180858152602001848152602001836001600160a01b03166001600160a01b03168152602001828152602001945050505050604051602081830303815290604052805190602001209050919050565b6000611115610964565b82604051602001808061190160f01b81525060020183815260200182815260200192505050604051602081830303815290604052805190602001209050919050565b505050565b60405180606001604052806000815260200160006001600160a01b0316815260200160608152509056fe45524332303a207472616e7366657220746f20746865207a65726f20616464726573734d6574615472616e73616374696f6e2875696e74323536206e6f6e63652c616464726573732066726f6d2c62797465732066756e6374696f6e5369676e61747572652945524332303a20617070726f766520746f20746865207a65726f206164647265737345524332303a207472616e7366657220616d6f756e7420657863656564732062616c616e63654e61746976654d6574615472616e73616374696f6e3a20494e56414c49445f5349474e455245524332303a207472616e7366657220616d6f756e74206578636565647320616c6c6f77616e63655369676e657220616e64207369676e617475726520646f206e6f74206d6174636845524332303a207472616e736665722066726f6d20746865207a65726f206164647265737345524332303a20617070726f76652066726f6d20746865207a65726f206164647265737345524332303a2064656372656173656420616c6c6f77616e63652062656c6f77207a65726fa26469706673582212200ada29916fdef43402a808d6aaf1e7a1ae631647d49ea683b0838e1dc259699664736f6c6343000606003345524332303a207472616e7366657220746f20746865207a65726f2061646472657373454950373132446f6d61696e28737472696e67206e616d652c737472696e672076657273696f6e2c6164647265737320766572696679696e67436f6e74726163742c627974657333322073616c742945524332303a207472616e7366657220616d6f756e7420657863656564732062616c616e6365ddf252ad1be2c89b69c2b068fc378daa952ba7f163c4a11628f55a4df523b3ef45524332303a207472616e736665722066726f6d20746865207a65726f2061646472657373",
  "immutableReferences": {},
  "source": "// This contract is not supposed to be used in production\n// It's strictly for testing purpose\n\npragma solidity 0.6.6;\n\nimport {ERC20} from \"@openzeppelin/contracts/token/ERC20/ERC20.sol\";\nimport {NativeMetaTransaction} from \"../../common/NativeMetaTransaction.sol\";\nimport {ContextMixin} from \"../../common/ContextMixin.sol\";\nimport {IRootToken} from \"./IRootToken.sol\";\nimport {AccessControlMixin} from \"../../common/AccessControlMixin.sol\";\n\ncontract DummyERC20 is ERC20, NativeMetaTransaction, ContextMixin, IRootToken {\n    bytes32 public constant DEPOSITOR_ROLE = keccak256(\"DEPOSITOR_ROLE\");\n\n    uint256 private totalSupplyContract;\n\n    constructor(\n        string memory name_,\n        string memory symbol_,\n        // address rootChainManager,\n        address rootERC20Predicate_\n    ) public ERC20(name_, symbol_) {\n        // _setupRole(DEPOSITOR_ROLE, rootChainManager);\n        _initializeEIP712(name_);\n\n        totalSupplyContract = 100 * (10**18);\n        uint256 amount = 50 * (10**18);\n        _mint(address(this), totalSupplyContract);\n        _transfer(address(this), _msgSender(), amount);\n        _transfer(address(this), rootERC20Predicate_, amount);\n    }\n\n    // function mint(uint256 amount) public {\n    //     require(amount < totalSupplyContract, \"Minting limit reached\");\n    //     _mint(_msgSender(), amount);\n    // }\n\n    function transfer(\n        address user,\n        bytes calldata depositData,\n        address rootERC20Predicate\n    ) external override {\n        uint256 amount = abi.decode(depositData, (uint256));\n        _transfer(rootERC20Predicate, user, amount);\n    }\n\n    function _msgSender()\n        internal\n        view\n        override\n        returns (address payable sender)\n    {\n        return ContextMixin.msgSender();\n    }\n}\n",
  "sourcePath": "/home/moiz/Desktop/Eth_Matic_Custom_Bridge_Use_Case_2-Actual-/contracts/root/RootToken/DummyERC20.sol",
  "compiler": {
    "name": "solc",
    "version": "0.6.6+commit.6c089d02.Emscripten.clang"
  },
  "schemaVersion": "3.4.10",
  "updatedAt": "2022-09-26T13:06:54.993Z",
  "networkType": "ethereum",
  "devdoc": {
    "methods": {
      "allowance(address,address)": {
        "details": "See {IERC20-allowance}."
      },
      "approve(address,uint256)": {
        "details": "See {IERC20-approve}.     * Requirements:     * - `spender` cannot be the zero address."
      },
      "balanceOf(address)": {
        "details": "See {IERC20-balanceOf}."
      },
      "decimals()": {
        "details": "Returns the number of decimals used to get its user representation. For example, if `decimals` equals `2`, a balance of `505` tokens should be displayed to a user as `5,05` (`505 / 10 ** 2`).     * Tokens usually opt for a value of 18, imitating the relationship between Ether and Wei. This is the value {ERC20} uses, unless {_setupDecimals} is called.     * NOTE: This information is only used for _display_ purposes: it in no way affects any of the arithmetic of the contract, including {IERC20-balanceOf} and {IERC20-transfer}."
      },
      "decreaseAllowance(address,uint256)": {
        "details": "Atomically decreases the allowance granted to `spender` by the caller.     * This is an alternative to {approve} that can be used as a mitigation for problems described in {IERC20-approve}.     * Emits an {Approval} event indicating the updated allowance.     * Requirements:     * - `spender` cannot be the zero address. - `spender` must have allowance for the caller of at least `subtractedValue`."
      },
      "increaseAllowance(address,uint256)": {
        "details": "Atomically increases the allowance granted to `spender` by the caller.     * This is an alternative to {approve} that can be used as a mitigation for problems described in {IERC20-approve}.     * Emits an {Approval} event indicating the updated allowance.     * Requirements:     * - `spender` cannot be the zero address."
      },
      "name()": {
        "details": "Returns the name of the token."
      },
      "symbol()": {
        "details": "Returns the symbol of the token, usually a shorter version of the name."
      },
      "totalSupply()": {
        "details": "See {IERC20-totalSupply}."
      },
      "transfer(address,uint256)": {
        "details": "See {IERC20-transfer}.     * Requirements:     * - `recipient` cannot be the zero address. - the caller must have a balance of at least `amount`."
      },
      "transferFrom(address,address,uint256)": {
        "details": "See {IERC20-transferFrom}.     * Emits an {Approval} event indicating the updated allowance. This is not required by the EIP. See the note at the beginning of {ERC20};     * Requirements: - `sender` and `recipient` cannot be the zero address. - `sender` must have a balance of at least `amount`. - the caller must have allowance for ``sender``'s tokens of at least `amount`."
      }
    }
  },
  "userdoc": {
    "methods": {}
  }
}