{
  "contractName": "DummyERC20",
  "abi": [
    {
      "inputs": [
        {
          "internalType": "string",
          "name": "name_",
          "type": "string"
        },
        {
          "internalType": "string",
          "name": "symbol_",
          "type": "string"
        },
        {
          "internalType": "address",
          "name": "rootChainManager",
          "type": "address"
        },
        {
          "internalType": "address",
          "name": "rootERC20Predicate_",
          "type": "address"
        }
      ],
      "stateMutability": "nonpayable",
      "type": "constructor"
    },
    {
      "anonymous": false,
      "inputs": [
        {
          "indexed": true,
          "internalType": "address",
          "name": "owner",
          "type": "address"
        },
        {
          "indexed": true,
          "internalType": "address",
          "name": "spender",
          "type": "address"
        },
        {
          "indexed": false,
          "internalType": "uint256",
          "name": "value",
          "type": "uint256"
        }
      ],
      "name": "Approval",
      "type": "event"
    },
    {
      "anonymous": false,
      "inputs": [
        {
          "indexed": false,
          "internalType": "address",
          "name": "userAddress",
          "type": "address"
        },
        {
          "indexed": false,
          "internalType": "address payable",
          "name": "relayerAddress",
          "type": "address"
        },
        {
          "indexed": false,
          "internalType": "bytes",
          "name": "functionSignature",
          "type": "bytes"
        }
      ],
      "name": "MetaTransactionExecuted",
      "type": "event"
    },
    {
      "anonymous": false,
      "inputs": [
        {
          "indexed": true,
          "internalType": "bytes32",
          "name": "role",
          "type": "bytes32"
        },
        {
          "indexed": true,
          "internalType": "bytes32",
          "name": "previousAdminRole",
          "type": "bytes32"
        },
        {
          "indexed": true,
          "internalType": "bytes32",
          "name": "newAdminRole",
          "type": "bytes32"
        }
      ],
      "name": "RoleAdminChanged",
      "type": "event"
    },
    {
      "anonymous": false,
      "inputs": [
        {
          "indexed": true,
          "internalType": "bytes32",
          "name": "role",
          "type": "bytes32"
        },
        {
          "indexed": true,
          "internalType": "address",
          "name": "account",
          "type": "address"
        },
        {
          "indexed": true,
          "internalType": "address",
          "name": "sender",
          "type": "address"
        }
      ],
      "name": "RoleGranted",
      "type": "event"
    },
    {
      "anonymous": false,
      "inputs": [
        {
          "indexed": true,
          "internalType": "bytes32",
          "name": "role",
          "type": "bytes32"
        },
        {
          "indexed": true,
          "internalType": "address",
          "name": "account",
          "type": "address"
        },
        {
          "indexed": true,
          "internalType": "address",
          "name": "sender",
          "type": "address"
        }
      ],
      "name": "RoleRevoked",
      "type": "event"
    },
    {
      "anonymous": false,
      "inputs": [
        {
          "indexed": true,
          "internalType": "address",
          "name": "from",
          "type": "address"
        },
        {
          "indexed": true,
          "internalType": "address",
          "name": "to",
          "type": "address"
        },
        {
          "indexed": false,
          "internalType": "uint256",
          "name": "value",
          "type": "uint256"
        }
      ],
      "name": "Transfer",
      "type": "event"
    },
    {
      "inputs": [],
      "name": "DEFAULT_ADMIN_ROLE",
      "outputs": [
        {
          "internalType": "bytes32",
          "name": "",
          "type": "bytes32"
        }
      ],
      "stateMutability": "view",
      "type": "function",
      "constant": true
    },
    {
      "inputs": [],
      "name": "DEPOSITOR_ROLE",
      "outputs": [
        {
          "internalType": "bytes32",
          "name": "",
          "type": "bytes32"
        }
      ],
      "stateMutability": "view",
      "type": "function",
      "constant": true
    },
    {
      "inputs": [],
      "name": "ERC712_VERSION",
      "outputs": [
        {
          "internalType": "string",
          "name": "",
          "type": "string"
        }
      ],
      "stateMutability": "view",
      "type": "function",
      "constant": true
    },
    {
      "inputs": [
        {
          "internalType": "address",
          "name": "owner",
          "type": "address"
        },
        {
          "internalType": "address",
          "name": "spender",
          "type": "address"
        }
      ],
      "name": "allowance",
      "outputs": [
        {
          "internalType": "uint256",
          "name": "",
          "type": "uint256"
        }
      ],
      "stateMutability": "view",
      "type": "function",
      "constant": true
    },
    {
      "inputs": [
        {
          "internalType": "address",
          "name": "spender",
          "type": "address"
        },
        {
          "internalType": "uint256",
          "name": "amount",
          "type": "uint256"
        }
      ],
      "name": "approve",
      "outputs": [
        {
          "internalType": "bool",
          "name": "",
          "type": "bool"
        }
      ],
      "stateMutability": "nonpayable",
      "type": "function"
    },
    {
      "inputs": [
        {
          "internalType": "address",
          "name": "account",
          "type": "address"
        }
      ],
      "name": "balanceOf",
      "outputs": [
        {
          "internalType": "uint256",
          "name": "",
          "type": "uint256"
        }
      ],
      "stateMutability": "view",
      "type": "function",
      "constant": true
    },
    {
      "inputs": [],
      "name": "decimals",
      "outputs": [
        {
          "internalType": "uint8",
          "name": "",
          "type": "uint8"
        }
      ],
      "stateMutability": "view",
      "type": "function",
      "constant": true
    },
    {
      "inputs": [
        {
          "internalType": "address",
          "name": "spender",
          "type": "address"
        },
        {
          "internalType": "uint256",
          "name": "subtractedValue",
          "type": "uint256"
        }
      ],
      "name": "decreaseAllowance",
      "outputs": [
        {
          "internalType": "bool",
          "name": "",
          "type": "bool"
        }
      ],
      "stateMutability": "nonpayable",
      "type": "function"
    },
    {
      "inputs": [
        {
          "internalType": "address",
          "name": "userAddress",
          "type": "address"
        },
        {
          "internalType": "bytes",
          "name": "functionSignature",
          "type": "bytes"
        },
        {
          "internalType": "bytes32",
          "name": "sigR",
          "type": "bytes32"
        },
        {
          "internalType": "bytes32",
          "name": "sigS",
          "type": "bytes32"
        },
        {
          "internalType": "uint8",
          "name": "sigV",
          "type": "uint8"
        }
      ],
      "name": "executeMetaTransaction",
      "outputs": [
        {
          "internalType": "bytes",
          "name": "",
          "type": "bytes"
        }
      ],
      "stateMutability": "payable",
      "type": "function",
      "payable": true
    },
    {
      "inputs": [],
      "name": "getChainId",
      "outputs": [
        {
          "internalType": "uint256",
          "name": "",
          "type": "uint256"
        }
      ],
      "stateMutability": "pure",
      "type": "function",
      "constant": true
    },
    {
      "inputs": [],
      "name": "getDomainSeperator",
      "outputs": [
        {
          "internalType": "bytes32",
          "name": "",
          "type": "bytes32"
        }
      ],
      "stateMutability": "view",
      "type": "function",
      "constant": true
    },
    {
      "inputs": [
        {
          "internalType": "address",
          "name": "user",
          "type": "address"
        }
      ],
      "name": "getNonce",
      "outputs": [
        {
          "internalType": "uint256",
          "name": "nonce",
          "type": "uint256"
        }
      ],
      "stateMutability": "view",
      "type": "function",
      "constant": true
    },
    {
      "inputs": [
        {
          "internalType": "bytes32",
          "name": "role",
          "type": "bytes32"
        }
      ],
      "name": "getRoleAdmin",
      "outputs": [
        {
          "internalType": "bytes32",
          "name": "",
          "type": "bytes32"
        }
      ],
      "stateMutability": "view",
      "type": "function",
      "constant": true
    },
    {
      "inputs": [
        {
          "internalType": "bytes32",
          "name": "role",
          "type": "bytes32"
        },
        {
          "internalType": "uint256",
          "name": "index",
          "type": "uint256"
        }
      ],
      "name": "getRoleMember",
      "outputs": [
        {
          "internalType": "address",
          "name": "",
          "type": "address"
        }
      ],
      "stateMutability": "view",
      "type": "function",
      "constant": true
    },
    {
      "inputs": [
        {
          "internalType": "bytes32",
          "name": "role",
          "type": "bytes32"
        }
      ],
      "name": "getRoleMemberCount",
      "outputs": [
        {
          "internalType": "uint256",
          "name": "",
          "type": "uint256"
        }
      ],
      "stateMutability": "view",
      "type": "function",
      "constant": true
    },
    {
      "inputs": [
        {
          "internalType": "bytes32",
          "name": "role",
          "type": "bytes32"
        },
        {
          "internalType": "address",
          "name": "account",
          "type": "address"
        }
      ],
      "name": "grantRole",
      "outputs": [],
      "stateMutability": "nonpayable",
      "type": "function"
    },
    {
      "inputs": [
        {
          "internalType": "bytes32",
          "name": "role",
          "type": "bytes32"
        },
        {
          "internalType": "address",
          "name": "account",
          "type": "address"
        }
      ],
      "name": "hasRole",
      "outputs": [
        {
          "internalType": "bool",
          "name": "",
          "type": "bool"
        }
      ],
      "stateMutability": "view",
      "type": "function",
      "constant": true
    },
    {
      "inputs": [
        {
          "internalType": "address",
          "name": "spender",
          "type": "address"
        },
        {
          "internalType": "uint256",
          "name": "addedValue",
          "type": "uint256"
        }
      ],
      "name": "increaseAllowance",
      "outputs": [
        {
          "internalType": "bool",
          "name": "",
          "type": "bool"
        }
      ],
      "stateMutability": "nonpayable",
      "type": "function"
    },
    {
      "inputs": [],
      "name": "name",
      "outputs": [
        {
          "internalType": "string",
          "name": "",
          "type": "string"
        }
      ],
      "stateMutability": "view",
      "type": "function",
      "constant": true
    },
    {
      "inputs": [
        {
          "internalType": "bytes32",
          "name": "role",
          "type": "bytes32"
        },
        {
          "internalType": "address",
          "name": "account",
          "type": "address"
        }
      ],
      "name": "renounceRole",
      "outputs": [],
      "stateMutability": "nonpayable",
      "type": "function"
    },
    {
      "inputs": [
        {
          "internalType": "bytes32",
          "name": "role",
          "type": "bytes32"
        },
        {
          "internalType": "address",
          "name": "account",
          "type": "address"
        }
      ],
      "name": "revokeRole",
      "outputs": [],
      "stateMutability": "nonpayable",
      "type": "function"
    },
    {
      "inputs": [],
      "name": "symbol",
      "outputs": [
        {
          "internalType": "string",
          "name": "",
          "type": "string"
        }
      ],
      "stateMutability": "view",
      "type": "function",
      "constant": true
    },
    {
      "inputs": [],
      "name": "totalSupply",
      "outputs": [
        {
          "internalType": "uint256",
          "name": "",
          "type": "uint256"
        }
      ],
      "stateMutability": "view",
      "type": "function",
      "constant": true
    },
    {
      "inputs": [
        {
          "internalType": "address",
          "name": "sender",
          "type": "address"
        },
        {
          "internalType": "address",
          "name": "recipient",
          "type": "address"
        },
        {
          "internalType": "uint256",
          "name": "amount",
          "type": "uint256"
        }
      ],
      "name": "transferFrom",
      "outputs": [
        {
          "internalType": "bool",
          "name": "",
          "type": "bool"
        }
      ],
      "stateMutability": "nonpayable",
      "type": "function"
    },
    {
      "inputs": [
        {
          "internalType": "address",
          "name": "user",
          "type": "address"
        },
        {
          "internalType": "bytes",
          "name": "depositData",
          "type": "bytes"
        },
        {
          "internalType": "address",
          "name": "rootERC20Predicate",
          "type": "address"
        }
      ],
      "name": "transfer",
      "outputs": [],
      "stateMutability": "nonpayable",
      "type": "function"
    },
    {
      "inputs": [
        {
          "internalType": "address",
          "name": "recipient",
          "type": "address"
        },
        {
          "internalType": "uint256",
          "name": "amount",
          "type": "uint256"
        }
      ],
      "name": "transfer",
      "outputs": [
        {
          "internalType": "bool",
          "name": "",
          "type": "bool"
        }
      ],
      "stateMutability": "nonpayable",
      "type": "function"
    }
  ],
  "bytecode": "0x60806040526005805461ff00191690553480156200001c57600080fd5b50604051620025e5380380620025e5833981810160405260808110156200004257600080fd5b81019080805160405193929190846401000000008211156200006357600080fd5b9083019060208201858111156200007957600080fd5b82516401000000008111828201881017156200009457600080fd5b82525081516020918201929091019080838360005b83811015620000c3578181015183820152602001620000a9565b50505050905090810190601f168015620000f15780820380516001836020036101000a031916815260200191505b50604052602001805160405193929190846401000000008211156200011557600080fd5b9083019060208201858111156200012b57600080fd5b82516401000000008111828201881017156200014657600080fd5b82525081516020918201929091019080838360005b83811015620001755781810151838201526020016200015b565b50505050905090810190601f168015620001a35780820380516001836020036101000a031916815260200191505b50604090815260208281015192909101518651929450925085918591620001d09160039185019062000926565b508051620001e690600490602084019062000926565b50506005805460ff1916601217905550604080516d4445504f5349544f525f524f4c4560901b8152905190819003600e0190206200022e90836001600160e01b03620002bb16565b62000242846001600160e01b03620002d416565b68056bc75e2d63100000600a8190556802b5e3af16b188000090620002729030906001600160e01b036200034916565b6200029a306200028a6001600160e01b036200045016565b836001600160e01b036200046d16565b620002b03083836001600160e01b036200046d16565b5050505050620009c8565b620002d082826001600160e01b03620005e316565b5050565b600554610100900460ff161562000323576040805162461bcd60e51b815260206004820152600e60248201526d185b1c9958591e481a5b9a5d195960921b604482015290519081900360640190fd5b62000337816001600160e01b036200066716565b506005805461ff001916610100179055565b6001600160a01b038216620003a5576040805162461bcd60e51b815260206004820152601f60248201527f45524332303a206d696e7420746f20746865207a65726f206164647265737300604482015290519081900360640190fd5b620003bc600083836001600160e01b036200072f16565b620003d8816002546200073460201b6200123f1790919060201c565b6002556001600160a01b038216600090815260208181526040909120546200040b9183906200123f62000734821b17901c565b6001600160a01b038316600081815260208181526040808320949094558351858152935192939192600080516020620025a08339815191529281900390910190a35050565b6000620004676200079860201b620015a11760201c565b90505b90565b6001600160a01b038316620004b45760405162461bcd60e51b8152600401808060200182810382526025815260200180620025c06025913960400191505060405180910390fd5b6001600160a01b038216620004fb5760405162461bcd60e51b8152600401808060200182810382526023815260200180620025086023913960400191505060405180910390fd5b620005118383836001600160e01b036200072f16565b6200055c816040518060600160405280602681526020016200257a602691396001600160a01b0386166000908152602081815260409091205492919062001400620007f7821b17901c565b6001600160a01b0380851660009081526020818152604080832094909455918516815291909120546200059a9183906200123f62000734821b17901c565b6001600160a01b03808416600081815260208181526040918290209490945580518581529051919392871692600080516020620025a083398151915292918290030190a3505050565b60008281526008602090815260409091206200060a918390620016dc62000892821b17901c565b15620002d057620006236001600160e01b036200045016565b6001600160a01b0316816001600160a01b0316837f2f8788117e7eff1d82e926ec794901d17c78024a50270940304540a733656f0d60405160405180910390a45050565b6040518060800160405280604f81526020016200252b604f913980516020918201208251838301206040805180820190915260018152603160f81b930192909252907fc89efdaa54c0f20c7adf612882df0950f5a951637e0307cdcb4c672f298b8bc630620006de6001600160e01b03620008b216565b604080516020808201979097528082019590955260608501939093526001600160a01b03909116608084015260a0808401919091528151808403909101815260c09092019052805191012060065550565b505050565b6000828201838110156200078f576040805162461bcd60e51b815260206004820152601b60248201527f536166654d6174683a206164646974696f6e206f766572666c6f770000000000604482015290519081900360640190fd5b90505b92915050565b600033301415620007f25760606000368080601f0160208091040260200160405190810160405280939291908181526020018383808284376000920191909152505050503601516001600160a01b031691506200046a9050565b503390565b600081848411156200088a5760405162461bcd60e51b81526004018080602001828103825283818151815260200191508051906020019080838360005b838110156200084e57818101518382015260200162000834565b50505050905090810190601f1680156200087c5780820380516001836020036101000a031916815260200191505b509250505060405180910390fd5b505050900390565b60006200078f836001600160a01b0384166001600160e01b03620008b616565b4690565b6000620008cd83836001600160e01b036200090e16565b620009055750815460018181018455600084815260208082209093018490558454848252828601909352604090209190915562000792565b50600062000792565b60009081526001919091016020526040902054151590565b828054600181600116156101000203166002900490600052602060002090601f016020900481019282601f106200096957805160ff191683800117855562000999565b8280016001018555821562000999579182015b82811115620009995782518255916020019190600101906200097c565b50620009a7929150620009ab565b5090565b6200046a91905b80821115620009a75760008155600101620009b2565b611b3080620009d86000396000f3fe6080604052600436106101815760003560e01c806339509351116100d1578063a217fddf1161008a578063a9059cbb11610064578063a9059cbb146106c5578063ca15c873146106fe578063d547741f14610728578063dd62ed3e1461076157610181565b8063a217fddf14610662578063a3b0b5a314610677578063a457c2d71461068c57610181565b806339509351146104c657806349d5f3f2146104ff57806370a08231146105955780639010d07c146105c857806391d148541461061457806395d89b411461064d57610181565b806323b872dd1161013e5780632f2ff15d116101185780632f2ff15d14610412578063313ce5671461044d5780633408e4701461047857806336568abe1461048d57610181565b806323b872dd14610372578063248a9ca3146103b55780632d0335ab146103df57610181565b806306fdde0314610186578063095ea7b3146102105780630c53c51c1461025d5780630f7e59701461032157806318160ddd1461033657806320379ee51461035d575b600080fd5b34801561019257600080fd5b5061019b61079c565b6040805160208082528351818301528351919283929083019185019080838360005b838110156101d55781810151838201526020016101bd565b50505050905090810190601f1680156102025780820380516001836020036101000a031916815260200191505b509250505060405180910390f35b34801561021c57600080fd5b506102496004803603604081101561023357600080fd5b506001600160a01b038135169060200135610832565b604080519115158252519081900360200190f35b61019b600480360360a081101561027357600080fd5b6001600160a01b03823516919081019060408101602082013564010000000081111561029e57600080fd5b8201836020820111156102b057600080fd5b803590602001918460018302840111640100000000831117156102d257600080fd5b91908080601f016020809104026020016040519081016040528093929190818152602001838380828437600092019190915250929550508235935050506020810135906040013560ff16610850565b34801561032d57600080fd5b5061019b610b53565b34801561034257600080fd5b5061034b610b70565b60408051918252519081900360200190f35b34801561036957600080fd5b5061034b610b76565b34801561037e57600080fd5b506102496004803603606081101561039557600080fd5b506001600160a01b03813581169160208101359091169060400135610b7c565b3480156103c157600080fd5b5061034b600480360360208110156103d857600080fd5b5035610c09565b3480156103eb57600080fd5b5061034b6004803603602081101561040257600080fd5b50356001600160a01b0316610c1e565b34801561041e57600080fd5b5061044b6004803603604081101561043557600080fd5b50803590602001356001600160a01b0316610c39565b005b34801561045957600080fd5b50610462610ca5565b6040805160ff9092168252519081900360200190f35b34801561048457600080fd5b5061034b610cae565b34801561049957600080fd5b5061044b600480360360408110156104b057600080fd5b50803590602001356001600160a01b0316610cb2565b3480156104d257600080fd5b50610249600480360360408110156104e957600080fd5b506001600160a01b038135169060200135610d13565b34801561050b57600080fd5b5061044b6004803603606081101561052257600080fd5b6001600160a01b03823516919081019060408101602082013564010000000081111561054d57600080fd5b82018360208201111561055f57600080fd5b8035906020019184600183028401116401000000008311171561058157600080fd5b9193509150356001600160a01b0316610d67565b3480156105a157600080fd5b5061034b600480360360208110156105b857600080fd5b50356001600160a01b0316610e60565b3480156105d457600080fd5b506105f8600480360360408110156105eb57600080fd5b5080359060200135610e7b565b604080516001600160a01b039092168252519081900360200190f35b34801561062057600080fd5b506102496004803603604081101561063757600080fd5b50803590602001356001600160a01b0316610ea0565b34801561065957600080fd5b5061019b610ebe565b34801561066e57600080fd5b5061034b610f1f565b34801561068357600080fd5b5061034b610f24565b34801561069857600080fd5b50610249600480360360408110156106af57600080fd5b506001600160a01b038135169060200135610f4a565b3480156106d157600080fd5b50610249600480360360408110156106e857600080fd5b506001600160a01b038135169060200135610fb8565b34801561070a57600080fd5b5061034b6004803603602081101561072157600080fd5b5035610fcc565b34801561073457600080fd5b5061044b6004803603604081101561074b57600080fd5b50803590602001356001600160a01b0316610fe3565b34801561076d57600080fd5b5061034b6004803603604081101561078457600080fd5b506001600160a01b038135811691602001351661103c565b60038054604080516020601f60026000196101006001881615020190951694909404938401819004810282018101909252828152606093909290918301828280156108285780601f106107fd57610100808354040283529160200191610828565b820191906000526020600020905b81548152906001019060200180831161080b57829003601f168201915b5050505050905090565b600061084661083f611067565b8484611076565b5060015b92915050565b606061085a611896565b50604080516060810182526001600160a01b038816600081815260076020908152908490205483528201529081018690526108988782878787611162565b6108d35760405162461bcd60e51b8152600401808060200182810382526021815260200180611a3d6021913960400191505060405180910390fd5b6001600160a01b0387166000908152600760205260409020546108fd90600163ffffffff61123f16565b6001600160a01b03881660008181526007602090815260408083209490945583519283523383820181905260609484018581528b51958501959095528a517f5845892132946850460bff5a0083f71031bc5bf9aadcd40f1de79423eac9b10b958d9592948d94919260808501928601918190849084905b8381101561098c578181015183820152602001610974565b50505050905090810190601f1680156109b95780820380516001836020036101000a031916815260200191505b5094505050505060405180910390a160006060306001600160a01b0316888a6040516020018083805190602001908083835b60208310610a0a5780518252601f1990920191602091820191016109eb565b6001836020036101000a038019825116818451168082178552505050505050905001826001600160a01b03166001600160a01b031660601b8152601401925050506040516020818303038152906040526040518082805190602001908083835b60208310610a895780518252601f199092019160209182019101610a6a565b6001836020036101000a0380198251168184511680821785525050505050509050019150506000604051808303816000865af19150503d8060008114610aeb576040519150601f19603f3d011682016040523d82523d6000602084013e610af0565b606091505b509150915081610b47576040805162461bcd60e51b815260206004820152601c60248201527f46756e6374696f6e2063616c6c206e6f74207375636365737366756c00000000604482015290519081900360640190fd5b98975050505050505050565b604051806040016040528060018152602001603160f81b81525081565b60025490565b60065490565b6000610b89848484611299565b610bff84610b95611067565b610bfa85604051806060016040528060288152602001611a15602891396001600160a01b038a16600090815260016020526040812090610bd3611067565b6001600160a01b03168152602081019190915260400160002054919063ffffffff61140016565b611076565b5060019392505050565b60009081526008602052604090206002015490565b6001600160a01b031660009081526007602052604090205490565b600082815260086020526040902060020154610c5c90610c57611067565b610ea0565b610c975760405162461bcd60e51b815260040180806020018281038252602f815260200180611906602f913960400191505060405180910390fd5b610ca18282611497565b5050565b60055460ff1690565b4690565b610cba611067565b6001600160a01b0316816001600160a01b031614610d095760405162461bcd60e51b815260040180806020018281038252602f815260200180611acc602f913960400191505060405180910390fd5b610ca18282611506565b6000610846610d20611067565b84610bfa8560016000610d31611067565b6001600160a01b03908116825260208083019390935260409182016000908120918c16815292529020549063ffffffff61123f16565b604080516d4445504f5349544f525f524f4c4560901b8152905190819003600e019020610d9681610c57611067565b600990610e365760405162461bcd60e51b8152602060048201908152825460026000196101006001841615020190911604602483018190529091829160449091019084908015610e275780601f10610dfc57610100808354040283529160200191610e27565b820191906000526020600020905b815481529060010190602001808311610e0a57829003601f168201915b50509250505060405180910390fd5b50600084846020811015610e4957600080fd5b50359050610e58838783611299565b505050505050565b6001600160a01b031660009081526020819052604090205490565b6000828152600860205260408120610e99908363ffffffff61157516565b9392505050565b6000828152600860205260408120610e99908363ffffffff61158116565b60048054604080516020601f60026000196101006001881615020190951694909404938401819004810282018101909252828152606093909290918301828280156108285780601f106107fd57610100808354040283529160200191610828565b600081565b604080516d4445504f5349544f525f524f4c4560901b8152905190819003600e01902081565b6000610846610f57611067565b84610bfa85604051806060016040528060258152602001611aa76025913960016000610f81611067565b6001600160a01b03908116825260208083019390935260409182016000908120918d1681529252902054919063ffffffff61140016565b6000610846610fc5611067565b8484611299565b600081815260086020526040812061084a90611596565b60008281526008602052604090206002015461100190610c57611067565b610d095760405162461bcd60e51b81526004018080602001828103825260308152602001806119c06030913960400191505060405180910390fd5b6001600160a01b03918216600090815260016020908152604080832093909416825291909152205490565b60006110716115a1565b905090565b6001600160a01b0383166110bb5760405162461bcd60e51b8152600401808060200182810382526024815260200180611a836024913960400191505060405180910390fd5b6001600160a01b0382166111005760405162461bcd60e51b81526004018080602001828103825260228152602001806119786022913960400191505060405180910390fd5b6001600160a01b03808416600081815260016020908152604080832094871680845294825291829020859055815185815291517f8c5be1e5ebec7d5bd14f71427d1e84f3dd0314c0f7b2291e5b200ac8c7c3b9259281900390910190a3505050565b60006001600160a01b0386166111a95760405162461bcd60e51b81526004018080602001828103825260258152602001806119f06025913960400191505060405180910390fd5b60016111bc6111b7876115ff565b61168b565b83868660405160008152602001604052604051808581526020018460ff1660ff1681526020018381526020018281526020019450505050506020604051602081039080840390855afa158015611216573d6000803e3d6000fd5b505050602060405103516001600160a01b0316866001600160a01b031614905095945050505050565b600082820183811015610e99576040805162461bcd60e51b815260206004820152601b60248201527f536166654d6174683a206164646974696f6e206f766572666c6f770000000000604482015290519081900360640190fd5b6001600160a01b0383166112de5760405162461bcd60e51b8152600401808060200182810382526025815260200180611a5e6025913960400191505060405180910390fd5b6001600160a01b0382166113235760405162461bcd60e51b81526004018080602001828103825260238152602001806118e36023913960400191505060405180910390fd5b61132e8383836116d7565b6113718160405180606001604052806026815260200161199a602691396001600160a01b038616600090815260208190526040902054919063ffffffff61140016565b6001600160a01b0380851660009081526020819052604080822093909355908416815220546113a6908263ffffffff61123f16565b6001600160a01b038084166000818152602081815260409182902094909455805185815290519193928716927fddf252ad1be2c89b69c2b068fc378daa952ba7f163c4a11628f55a4df523b3ef92918290030190a3505050565b6000818484111561148f5760405162461bcd60e51b81526004018080602001828103825283818151815260200191508051906020019080838360005b8381101561145457818101518382015260200161143c565b50505050905090810190601f1680156114815780820380516001836020036101000a031916815260200191505b509250505060405180910390fd5b505050900390565b60008281526008602052604090206114b5908263ffffffff6116dc16565b15610ca1576114c2611067565b6001600160a01b0316816001600160a01b0316837f2f8788117e7eff1d82e926ec794901d17c78024a50270940304540a733656f0d60405160405180910390a45050565b6000828152600860205260409020611524908263ffffffff6116f116565b15610ca157611531611067565b6001600160a01b0316816001600160a01b0316837ff6391f5c32d9c69d2a47ea670b442974b53935d1edc7fd64eb21e047a839171b60405160405180910390a45050565b6000610e998383611706565b6000610e99836001600160a01b03841661176a565b600061084a82611782565b6000333014156115f95760606000368080601f0160208091040260200160405190810160405280939291908181526020018383808284376000920191909152505050503601516001600160a01b031691506115fc9050565b50335b90565b600060405180608001604052806043815260200161193560439139805190602001208260000151836020015184604001518051906020012060405160200180858152602001848152602001836001600160a01b03166001600160a01b03168152602001828152602001945050505050604051602081830303815290604052805190602001209050919050565b6000611695610b76565b82604051602001808061190160f01b81525060020183815260200182815260200192505050604051602081830303815290604052805190602001209050919050565b505050565b6000610e99836001600160a01b038416611786565b6000610e99836001600160a01b0384166117d0565b815460009082106117485760405162461bcd60e51b81526004018080602001828103825260228152602001806118c16022913960400191505060405180910390fd5b82600001828154811061175757fe5b9060005260206000200154905092915050565b60009081526001919091016020526040902054151590565b5490565b6000611792838361176a565b6117c85750815460018181018455600084815260208082209093018490558454848252828601909352604090209190915561084a565b50600061084a565b6000818152600183016020526040812054801561188c578354600019808301919081019060009087908390811061180357fe5b906000526020600020015490508087600001848154811061182057fe5b60009182526020808320909101929092558281526001898101909252604090209084019055865487908061185057fe5b6001900381819060005260206000200160009055905586600101600087815260200190815260200160002060009055600194505050505061084a565b600091505061084a565b60405180606001604052806000815260200160006001600160a01b0316815260200160608152509056fe456e756d657261626c655365743a20696e646578206f7574206f6620626f756e647345524332303a207472616e7366657220746f20746865207a65726f2061646472657373416363657373436f6e74726f6c3a2073656e646572206d75737420626520616e2061646d696e20746f206772616e744d6574615472616e73616374696f6e2875696e74323536206e6f6e63652c616464726573732066726f6d2c62797465732066756e6374696f6e5369676e61747572652945524332303a20617070726f766520746f20746865207a65726f206164647265737345524332303a207472616e7366657220616d6f756e7420657863656564732062616c616e6365416363657373436f6e74726f6c3a2073656e646572206d75737420626520616e2061646d696e20746f207265766f6b654e61746976654d6574615472616e73616374696f6e3a20494e56414c49445f5349474e455245524332303a207472616e7366657220616d6f756e74206578636565647320616c6c6f77616e63655369676e657220616e64207369676e617475726520646f206e6f74206d6174636845524332303a207472616e736665722066726f6d20746865207a65726f206164647265737345524332303a20617070726f76652066726f6d20746865207a65726f206164647265737345524332303a2064656372656173656420616c6c6f77616e63652062656c6f77207a65726f416363657373436f6e74726f6c3a2063616e206f6e6c792072656e6f756e636520726f6c657320666f722073656c66a2646970667358221220345b3398ce6825a215218ab2b1d8d2fac662916a714e6b25fd42cc2a288476c964736f6c6343000606003345524332303a207472616e7366657220746f20746865207a65726f2061646472657373454950373132446f6d61696e28737472696e67206e616d652c737472696e672076657273696f6e2c6164647265737320766572696679696e67436f6e74726163742c627974657333322073616c742945524332303a207472616e7366657220616d6f756e7420657863656564732062616c616e6365ddf252ad1be2c89b69c2b068fc378daa952ba7f163c4a11628f55a4df523b3ef45524332303a207472616e736665722066726f6d20746865207a65726f2061646472657373",
  "immutableReferences": {},
  "source": "// This contract is not supposed to be used in production\n// It's strictly for testing purpose\n\npragma solidity 0.6.6;\n\nimport {ERC20} from \"@openzeppelin/contracts/token/ERC20/ERC20.sol\";\nimport {NativeMetaTransaction} from \"../../common/NativeMetaTransaction.sol\";\nimport {ContextMixin} from \"../../common/ContextMixin.sol\";\nimport {IRootToken} from \"./IRootToken.sol\";\nimport {AccessControlMixin} from \"../../common/AccessControlMixin.sol\";\n\ncontract DummyERC20 is\n    ERC20,\n    NativeMetaTransaction,\n    ContextMixin,\n    IRootToken,\n    AccessControlMixin\n{\n    bytes32 public constant DEPOSITOR_ROLE = keccak256(\"DEPOSITOR_ROLE\");\n\n    uint256 private totalSupplyContract;\n\n    constructor(\n        string memory name_,\n        string memory symbol_,\n        address rootChainManager,\n        address rootERC20Predicate_\n    ) public ERC20(name_, symbol_) {\n        _setupRole(DEPOSITOR_ROLE, rootChainManager);\n        _initializeEIP712(name_);\n\n        totalSupplyContract = 100 * (10**18);\n        uint256 amount = 50 * (10**18);\n        _mint(address(this), totalSupplyContract);\n        _transfer(address(this), _msgSender(), amount);\n        _transfer(address(this), rootERC20Predicate_, amount);\n    }\n\n    function transfer(\n        address user,\n        bytes calldata depositData,\n        address rootERC20Predicate\n    ) external override only(DEPOSITOR_ROLE) {\n        uint256 amount = abi.decode(depositData, (uint256));\n        _transfer(rootERC20Predicate, user, amount);\n    }\n\n    function _msgSender()\n        internal\n        view\n        override\n        returns (address payable sender)\n    {\n        return ContextMixin.msgSender();\n    }\n}\n",
  "sourcePath": "/home/moiz/Desktop/Eth_Matic_Custom_Bridge_Use_Case_2-Actual-/contracts/root/RootToken/DummyERC20.sol",
  "compiler": {
    "name": "solc",
    "version": "0.6.6+commit.6c089d02.Emscripten.clang"
  },
  "schemaVersion": "3.4.10",
  "updatedAt": "2022-09-27T12:36:46.999Z",
  "networkType": "ethereum",
  "devdoc": {
    "methods": {
      "allowance(address,address)": {
        "details": "See {IERC20-allowance}."
      },
      "approve(address,uint256)": {
        "details": "See {IERC20-approve}.     * Requirements:     * - `spender` cannot be the zero address."
      },
      "balanceOf(address)": {
        "details": "See {IERC20-balanceOf}."
      },
      "decimals()": {
        "details": "Returns the number of decimals used to get its user representation. For example, if `decimals` equals `2`, a balance of `505` tokens should be displayed to a user as `5,05` (`505 / 10 ** 2`).     * Tokens usually opt for a value of 18, imitating the relationship between Ether and Wei. This is the value {ERC20} uses, unless {_setupDecimals} is called.     * NOTE: This information is only used for _display_ purposes: it in no way affects any of the arithmetic of the contract, including {IERC20-balanceOf} and {IERC20-transfer}."
      },
      "decreaseAllowance(address,uint256)": {
        "details": "Atomically decreases the allowance granted to `spender` by the caller.     * This is an alternative to {approve} that can be used as a mitigation for problems described in {IERC20-approve}.     * Emits an {Approval} event indicating the updated allowance.     * Requirements:     * - `spender` cannot be the zero address. - `spender` must have allowance for the caller of at least `subtractedValue`."
      },
      "getRoleAdmin(bytes32)": {
        "details": "Returns the admin role that controls `role`. See {grantRole} and {revokeRole}.     * To change a role's admin, use {_setRoleAdmin}."
      },
      "getRoleMember(bytes32,uint256)": {
        "details": "Returns one of the accounts that have `role`. `index` must be a value between 0 and {getRoleMemberCount}, non-inclusive.     * Role bearers are not sorted in any particular way, and their ordering may change at any point.     * WARNING: When using {getRoleMember} and {getRoleMemberCount}, make sure you perform all queries on the same block. See the following https://forum.openzeppelin.com/t/iterating-over-elements-on-enumerableset-in-openzeppelin-contracts/2296[forum post] for more information."
      },
      "getRoleMemberCount(bytes32)": {
        "details": "Returns the number of accounts that have `role`. Can be used together with {getRoleMember} to enumerate all bearers of a role."
      },
      "grantRole(bytes32,address)": {
        "details": "Grants `role` to `account`.     * If `account` had not been already granted `role`, emits a {RoleGranted} event.     * Requirements:     * - the caller must have ``role``'s admin role."
      },
      "hasRole(bytes32,address)": {
        "details": "Returns `true` if `account` has been granted `role`."
      },
      "increaseAllowance(address,uint256)": {
        "details": "Atomically increases the allowance granted to `spender` by the caller.     * This is an alternative to {approve} that can be used as a mitigation for problems described in {IERC20-approve}.     * Emits an {Approval} event indicating the updated allowance.     * Requirements:     * - `spender` cannot be the zero address."
      },
      "name()": {
        "details": "Returns the name of the token."
      },
      "renounceRole(bytes32,address)": {
        "details": "Revokes `role` from the calling account.     * Roles are often managed via {grantRole} and {revokeRole}: this function's purpose is to provide a mechanism for accounts to lose their privileges if they are compromised (such as when a trusted device is misplaced).     * If the calling account had been granted `role`, emits a {RoleRevoked} event.     * Requirements:     * - the caller must be `account`."
      },
      "revokeRole(bytes32,address)": {
        "details": "Revokes `role` from `account`.     * If `account` had been granted `role`, emits a {RoleRevoked} event.     * Requirements:     * - the caller must have ``role``'s admin role."
      },
      "symbol()": {
        "details": "Returns the symbol of the token, usually a shorter version of the name."
      },
      "totalSupply()": {
        "details": "See {IERC20-totalSupply}."
      },
      "transfer(address,uint256)": {
        "details": "See {IERC20-transfer}.     * Requirements:     * - `recipient` cannot be the zero address. - the caller must have a balance of at least `amount`."
      },
      "transferFrom(address,address,uint256)": {
        "details": "See {IERC20-transferFrom}.     * Emits an {Approval} event indicating the updated allowance. This is not required by the EIP. See the note at the beginning of {ERC20};     * Requirements: - `sender` and `recipient` cannot be the zero address. - `sender` must have a balance of at least `amount`. - the caller must have allowance for ``sender``'s tokens of at least `amount`."
      }
    }
  },
  "userdoc": {
    "methods": {}
  }
}