{
  "contractName": "ERC20Predicate",
  "abi": [
    {
      "inputs": [],
      "stateMutability": "nonpayable",
      "type": "constructor"
    },
    {
      "anonymous": false,
      "inputs": [
        {
          "indexed": true,
          "internalType": "address",
          "name": "exitor",
          "type": "address"
        },
        {
          "indexed": true,
          "internalType": "address",
          "name": "rootToken",
          "type": "address"
        },
        {
          "indexed": false,
          "internalType": "uint256",
          "name": "amount",
          "type": "uint256"
        }
      ],
      "name": "ExitedERC20",
      "type": "event"
    },
    {
      "anonymous": false,
      "inputs": [
        {
          "indexed": true,
          "internalType": "address",
          "name": "depositor",
          "type": "address"
        },
        {
          "indexed": true,
          "internalType": "address",
          "name": "depositReceiver",
          "type": "address"
        },
        {
          "indexed": true,
          "internalType": "address",
          "name": "rootToken",
          "type": "address"
        },
        {
          "indexed": false,
          "internalType": "uint256",
          "name": "amount",
          "type": "uint256"
        }
      ],
      "name": "LockedERC20",
      "type": "event"
    },
    {
      "anonymous": false,
      "inputs": [
        {
          "indexed": true,
          "internalType": "bytes32",
          "name": "role",
          "type": "bytes32"
        },
        {
          "indexed": true,
          "internalType": "bytes32",
          "name": "previousAdminRole",
          "type": "bytes32"
        },
        {
          "indexed": true,
          "internalType": "bytes32",
          "name": "newAdminRole",
          "type": "bytes32"
        }
      ],
      "name": "RoleAdminChanged",
      "type": "event"
    },
    {
      "anonymous": false,
      "inputs": [
        {
          "indexed": true,
          "internalType": "bytes32",
          "name": "role",
          "type": "bytes32"
        },
        {
          "indexed": true,
          "internalType": "address",
          "name": "account",
          "type": "address"
        },
        {
          "indexed": true,
          "internalType": "address",
          "name": "sender",
          "type": "address"
        }
      ],
      "name": "RoleGranted",
      "type": "event"
    },
    {
      "anonymous": false,
      "inputs": [
        {
          "indexed": true,
          "internalType": "bytes32",
          "name": "role",
          "type": "bytes32"
        },
        {
          "indexed": true,
          "internalType": "address",
          "name": "account",
          "type": "address"
        },
        {
          "indexed": true,
          "internalType": "address",
          "name": "sender",
          "type": "address"
        }
      ],
      "name": "RoleRevoked",
      "type": "event"
    },
    {
      "inputs": [],
      "name": "DEFAULT_ADMIN_ROLE",
      "outputs": [
        {
          "internalType": "bytes32",
          "name": "",
          "type": "bytes32"
        }
      ],
      "stateMutability": "view",
      "type": "function"
    },
    {
      "inputs": [],
      "name": "MANAGER_ROLE",
      "outputs": [
        {
          "internalType": "bytes32",
          "name": "",
          "type": "bytes32"
        }
      ],
      "stateMutability": "view",
      "type": "function"
    },
    {
      "inputs": [],
      "name": "TOKEN_TYPE",
      "outputs": [
        {
          "internalType": "bytes32",
          "name": "",
          "type": "bytes32"
        }
      ],
      "stateMutability": "view",
      "type": "function"
    },
    {
      "inputs": [],
      "name": "TRANSFER_EVENT_SIG",
      "outputs": [
        {
          "internalType": "bytes32",
          "name": "",
          "type": "bytes32"
        }
      ],
      "stateMutability": "view",
      "type": "function"
    },
    {
      "inputs": [
        {
          "internalType": "bytes32",
          "name": "role",
          "type": "bytes32"
        }
      ],
      "name": "getRoleAdmin",
      "outputs": [
        {
          "internalType": "bytes32",
          "name": "",
          "type": "bytes32"
        }
      ],
      "stateMutability": "view",
      "type": "function"
    },
    {
      "inputs": [
        {
          "internalType": "bytes32",
          "name": "role",
          "type": "bytes32"
        },
        {
          "internalType": "uint256",
          "name": "index",
          "type": "uint256"
        }
      ],
      "name": "getRoleMember",
      "outputs": [
        {
          "internalType": "address",
          "name": "",
          "type": "address"
        }
      ],
      "stateMutability": "view",
      "type": "function"
    },
    {
      "inputs": [
        {
          "internalType": "bytes32",
          "name": "role",
          "type": "bytes32"
        }
      ],
      "name": "getRoleMemberCount",
      "outputs": [
        {
          "internalType": "uint256",
          "name": "",
          "type": "uint256"
        }
      ],
      "stateMutability": "view",
      "type": "function"
    },
    {
      "inputs": [
        {
          "internalType": "bytes32",
          "name": "role",
          "type": "bytes32"
        },
        {
          "internalType": "address",
          "name": "account",
          "type": "address"
        }
      ],
      "name": "grantRole",
      "outputs": [],
      "stateMutability": "nonpayable",
      "type": "function"
    },
    {
      "inputs": [
        {
          "internalType": "bytes32",
          "name": "role",
          "type": "bytes32"
        },
        {
          "internalType": "address",
          "name": "account",
          "type": "address"
        }
      ],
      "name": "hasRole",
      "outputs": [
        {
          "internalType": "bool",
          "name": "",
          "type": "bool"
        }
      ],
      "stateMutability": "view",
      "type": "function"
    },
    {
      "inputs": [
        {
          "internalType": "bytes32",
          "name": "role",
          "type": "bytes32"
        },
        {
          "internalType": "address",
          "name": "account",
          "type": "address"
        }
      ],
      "name": "renounceRole",
      "outputs": [],
      "stateMutability": "nonpayable",
      "type": "function"
    },
    {
      "inputs": [
        {
          "internalType": "bytes32",
          "name": "role",
          "type": "bytes32"
        },
        {
          "internalType": "address",
          "name": "account",
          "type": "address"
        }
      ],
      "name": "revokeRole",
      "outputs": [],
      "stateMutability": "nonpayable",
      "type": "function"
    },
    {
      "inputs": [
        {
          "internalType": "address",
          "name": "_owner",
          "type": "address"
        }
      ],
      "name": "initialize",
      "outputs": [],
      "stateMutability": "nonpayable",
      "type": "function"
    },
    {
      "inputs": [
        {
          "internalType": "address",
          "name": "depositor",
          "type": "address"
        },
        {
          "internalType": "address",
          "name": "depositReceiver",
          "type": "address"
        },
        {
          "internalType": "address",
          "name": "rootToken",
          "type": "address"
        },
        {
          "internalType": "bytes",
          "name": "depositData",
          "type": "bytes"
        }
      ],
      "name": "lockTokens",
      "outputs": [],
      "stateMutability": "nonpayable",
      "type": "function"
    },
    {
      "inputs": [
        {
          "internalType": "address",
          "name": "_withdrawer",
          "type": "address"
        },
        {
          "internalType": "address",
          "name": "_rootTokenAddress",
          "type": "address"
        },
        {
          "internalType": "uint256",
          "name": "_tokenAmount",
          "type": "uint256"
        }
      ],
      "name": "exitTokens",
      "outputs": [],
      "stateMutability": "nonpayable",
      "type": "function"
    }
  ],
  "bytecode": "0x60806040526002805460ff1916905534801561001a57600080fd5b506110ce8061002a6000396000f3fe608060405234801561001057600080fd5b50600436106100ea5760003560e01c8063a217fddf1161008c578063ca15c87311610066578063ca15c8731461026b578063d547741f14610288578063e375b64e146102b4578063ec87621c14610345576100ea565b8063a217fddf14610235578063b017a30f1461023d578063c4d66de814610245576100ea565b8063609c92b8116100c8578063609c92b8146101785780639010d07c1461018057806391d14854146101bf578063988ec987146101ff576100ea565b8063248a9ca3146100ef5780632f2ff15d1461011e57806336568abe1461014c575b600080fd5b61010c6004803603602081101561010557600080fd5b503561034d565b60408051918252519081900360200190f35b61014a6004803603604081101561013457600080fd5b50803590602001356001600160a01b0316610362565b005b61014a6004803603604081101561016257600080fd5b50803590602001356001600160a01b03166103ce565b61010c61042f565b6101a36004803603604081101561019657600080fd5b508035906020013561044c565b604080516001600160a01b039092168252519081900360200190f35b6101eb600480360360408110156101d557600080fd5b50803590602001356001600160a01b0316610473565b604080519115158252519081900360200190f35b61014a6004803603606081101561021557600080fd5b506001600160a01b03813581169160208101359091169060400135610491565b61010c6105ca565b61010c6105cf565b61014a6004803603602081101561025b57600080fd5b50356001600160a01b03166105f3565b61010c6004803603602081101561028157600080fd5b50356106b1565b61014a6004803603604081101561029e57600080fd5b50803590602001356001600160a01b03166106c8565b61014a600480360360808110156102ca57600080fd5b6001600160a01b038235811692602081013582169260408201359092169181019060808101606082013564010000000081111561030657600080fd5b82018360208201111561031857600080fd5b8035906020019184600183028401116401000000008311171561033a57600080fd5b509092509050610721565b61010c610838565b60009081526020819052604090206002015490565b6000828152602081905260409020600201546103859061038061085c565b610473565b6103c05760405162461bcd60e51b815260040180806020018281038252602f815260200180610fe1602f913960400191505060405180910390fd5b6103ca8282610861565b5050565b6103d661085c565b6001600160a01b0316816001600160a01b0316146104255760405162461bcd60e51b815260040180806020018281038252602f81526020018061106a602f913960400191505060405180910390fd5b6103ca82826108d0565b6040805164045524332360dc1b8152905190819003600501902081565b600082815260208190526040812061046a908363ffffffff61093f16565b90505b92915050565b600082815260208190526040812061046a908363ffffffff61094b16565b604080516b4d414e414745525f524f4c4560a01b8152905190819003600c0190206104be8161038061085c565b60019061055e5760405162461bcd60e51b815260206004820190815282546002600019610100600184161502019091160460248301819052909182916044909101908490801561054f5780601f106105245761010080835404028352916020019161054f565b820191906000526020600020905b81548152906001019060200180831161053257829003601f168201915b50509250505060405180910390fd5b506105796001600160a01b038416858463ffffffff61096016565b826001600160a01b0316846001600160a01b03167fbb61bd1b26b3684c7c028ff1a8f6dabcac2fac8ac57b66fa6b1efb6edeab03c4846040518082815260200191505060405180910390a350505050565b600081565b7fddf252ad1be2c89b69c2b068fc378daa952ba7f163c4a11628f55a4df523b3ef81565b60025460ff161561063c576040805162461bcd60e51b815260206004820152600e60248201526d185b1c9958591e481a5b9a5d195960921b604482015290519081900360640190fd5b61066b6040518060400160405280600e81526020016d455243323050726564696361746560901b8152506109b7565b6106766000826103c0565b604080516b4d414e414745525f524f4c4560a01b8152905190819003600c0190206106a190826103c0565b506002805460ff19166001179055565b600081815260208190526040812061046d90610a55565b6000828152602081905260409020600201546106e69061038061085c565b6104255760405162461bcd60e51b81526004018080602001828103825260308152602001806110106030913960400191505060405180910390fd5b604080516b4d414e414745525f524f4c4560a01b8152905190819003600c01902061074e8161038061085c565b6001906107b45760405162461bcd60e51b815260206004820190815282546002600019610100600184161502019091160460248301819052909182916044909101908490801561054f5780601f106105245761010080835404028352916020019161054f565b506000838360208110156107c757600080fd5b5060408051913580835290519092506001600160a01b038088169289821692918b16917f9b217a401a5ddf7c4d474074aff9958a18d48690d77cc2151c4706aa7348b4019181900360200190a461082f6001600160a01b03861688308463ffffffff610a6016565b50505050505050565b604080516b4d414e414745525f524f4c4560a01b8152905190819003600c01902081565b335b90565b600082815260208190526040902061087f908263ffffffff610ac016565b156103ca5761088c61085c565b6001600160a01b0316816001600160a01b0316837f2f8788117e7eff1d82e926ec794901d17c78024a50270940304540a733656f0d60405160405180910390a45050565b60008281526020819052604090206108ee908263ffffffff610ad516565b156103ca576108fb61085c565b6001600160a01b0316816001600160a01b0316837ff6391f5c32d9c69d2a47ea670b442974b53935d1edc7fd64eb21e047a839171b60405160405180910390a45050565b600061046a8383610aea565b600061046a836001600160a01b038416610b4e565b604080516001600160a01b038416602482015260448082018490528251808303909101815260649091019091526020810180516001600160e01b031663a9059cbb60e01b1790526109b2908490610b66565b505050565b806040516020018082805190602001908083835b602083106109ea5780518252601f1990920191602091820191016109cb565b51815160209384036101000a60001901801990921691161790527f3a20494e53554646494349454e545f5045524d495353494f4e530000000000009190930190815260408051808303600519018152601a909201905280516103ca9550600194509201919050610f26565b600061046d82610c17565b604080516001600160a01b0380861660248301528416604482015260648082018490528251808303909101815260849091019091526020810180516001600160e01b03166323b872dd60e01b179052610aba908590610b66565b50505050565b600061046a836001600160a01b038416610c1b565b600061046a836001600160a01b038416610c65565b81546000908210610b2c5760405162461bcd60e51b8152600401808060200182810382526022815260200180610fbf6022913960400191505060405180910390fd5b826000018281548110610b3b57fe5b9060005260206000200154905092915050565b60009081526001919091016020526040902054151590565b6060610bbb826040518060400160405280602081526020017f5361666545524332303a206c6f772d6c6576656c2063616c6c206661696c6564815250856001600160a01b0316610d2b9092919063ffffffff16565b8051909150156109b257808060200190516020811015610bda57600080fd5b50516109b25760405162461bcd60e51b815260040180806020018281038252602a815260200180611040602a913960400191505060405180910390fd5b5490565b6000610c278383610b4e565b610c5d5750815460018181018455600084815260208082209093018490558454848252828601909352604090209190915561046d565b50600061046d565b60008181526001830160205260408120548015610d215783546000198083019190810190600090879083908110610c9857fe5b9060005260206000200154905080876000018481548110610cb557fe5b600091825260208083209091019290925582815260018981019092526040902090840190558654879080610ce557fe5b6001900381819060005260206000200160009055905586600101600087815260200190815260200160002060009055600194505050505061046d565b600091505061046d565b6060610d3a8484600085610d42565b949350505050565b6060610d4d85610eed565b610d9e576040805162461bcd60e51b815260206004820152601d60248201527f416464726573733a2063616c6c20746f206e6f6e2d636f6e7472616374000000604482015290519081900360640190fd5b60006060866001600160a01b031685876040518082805190602001908083835b60208310610ddd5780518252601f199092019160209182019101610dbe565b6001836020036101000a03801982511681845116808217855250505050505090500191505060006040518083038185875af1925050503d8060008114610e3f576040519150601f19603f3d011682016040523d82523d6000602084013e610e44565b606091505b50915091508115610e58579150610d3a9050565b805115610e685780518082602001fd5b8360405162461bcd60e51b81526004018080602001828103825283818151815260200191508051906020019080838360005b83811015610eb2578181015183820152602001610e9a565b50505050905090810190601f168015610edf5780820380516001836020036101000a031916815260200191505b509250505060405180910390fd5b6000813f7fc5d2460186f7233c927e7db2dcc703c0e500b653ca82273b7bfad8045d85a470818114801590610d3a575050151592915050565b828054600181600116156101000203166002900490600052602060002090601f016020900481019282601f10610f6757805160ff1916838001178555610f94565b82800160010185558215610f94579182015b82811115610f94578251825591602001919060010190610f79565b50610fa0929150610fa4565b5090565b61085e91905b80821115610fa05760008155600101610faa56fe456e756d657261626c655365743a20696e646578206f7574206f6620626f756e6473416363657373436f6e74726f6c3a2073656e646572206d75737420626520616e2061646d696e20746f206772616e74416363657373436f6e74726f6c3a2073656e646572206d75737420626520616e2061646d696e20746f207265766f6b655361666545524332303a204552433230206f7065726174696f6e20646964206e6f742073756363656564416363657373436f6e74726f6c3a2063616e206f6e6c792072656e6f756e636520726f6c657320666f722073656c66a2646970667358221220c9ce0bdf1184b8fa0f8ff454973b50a889480a19db2185edb2a11d7f8446a65c64736f6c63430006060033",
  "immutableReferences": {},
  "source": "pragma solidity 0.6.6;\n\nimport {IERC20} from \"@openzeppelin/contracts/token/ERC20/IERC20.sol\";\nimport {SafeERC20} from \"@openzeppelin/contracts/token/ERC20/SafeERC20.sol\";\nimport {AccessControlMixin} from \"../../common/AccessControlMixin.sol\";\nimport {RLPReader} from \"../../lib/RLPReader.sol\";\nimport {ITokenPredicate} from \"./ITokenPredicate.sol\";\nimport {Initializable} from \"../../common/Initializable.sol\";\n\ncontract ERC20Predicate is ITokenPredicate, AccessControlMixin, Initializable {\n    using RLPReader for bytes;\n    using RLPReader for RLPReader.RLPItem;\n    using SafeERC20 for IERC20;\n\n    bytes32 public constant MANAGER_ROLE = keccak256(\"MANAGER_ROLE\");\n    bytes32 public constant TOKEN_TYPE = keccak256(\"ERC20\");\n    bytes32 public constant TRANSFER_EVENT_SIG =\n        0xddf252ad1be2c89b69c2b068fc378daa952ba7f163c4a11628f55a4df523b3ef;\n\n    event LockedERC20(\n        address indexed depositor,\n        address indexed depositReceiver,\n        address indexed rootToken,\n        uint256 amount\n    );\n\n    event ExitedERC20(\n        address indexed exitor,\n        address indexed rootToken,\n        uint256 amount\n    );\n\n    constructor() public {}\n\n    function initialize(address _owner) external initializer {\n        _setupContractId(\"ERC20Predicate\");\n        _setupRole(DEFAULT_ADMIN_ROLE, _owner);\n        _setupRole(MANAGER_ROLE, _owner);\n    }\n\n    /**\n     * @notice Lock ERC20 tokens for deposit, callable only by manager\n     * @param depositor Address who wants to deposit tokens\n     * @param depositReceiver Address (address) who wants to receive tokens on child chain\n     * @param rootToken Token which gets deposited\n     * @param depositData ABI encoded amount\n     */\n    function lockTokens(\n        address depositor,\n        address depositReceiver,\n        address rootToken,\n        bytes calldata depositData\n    ) external override only(MANAGER_ROLE) {\n        uint256 amount = abi.decode(depositData, (uint256));\n        emit LockedERC20(depositor, depositReceiver, rootToken, amount);\n        IERC20(rootToken).safeTransferFrom(depositor, address(this), amount);\n    }\n\n    /**\n     * @notice Sends the correct amount of ERC20Tokens to withdrawer address that locked ERC20Tokens on the rootChain.\n     * callable only by manager\n     * @param _withdrawer: Root chain Address whose ERC20Tokens were deposited and locked.\n     * @param _rootTokenAddress: Root Token address  on Ethereum Chain.\n     * @param _tokenAmount: ERC20 Tokens Amount which needs to be unlocked and refunded on the root chain\n     */\n\n    function exitTokens(\n        address _withdrawer,\n        address _rootTokenAddress,\n        uint256 _tokenAmount\n    ) public override only(MANAGER_ROLE) {\n        IERC20(_rootTokenAddress).safeTransfer(_withdrawer, _tokenAmount);\n\n        emit ExitedERC20(_withdrawer, _rootTokenAddress, _tokenAmount);\n    }\n}\n",
  "sourcePath": "/home/moiz/Desktop/Eth_Matic_Custom_Bridge_Use_Case_2-Actual-/contracts/root/TokenPredicates/ERC20Predicate.sol",
  "compiler": {
    "name": "solc",
    "version": "0.6.6+commit.6c089d02.Emscripten.clang"
  },
  "schemaVersion": "3.4.10",
  "updatedAt": "2022-09-26T13:08:30.008Z",
  "devdoc": {
    "methods": {
      "exitTokens(address,address,uint256)": {
        "params": {
          "_rootTokenAddress": ": Root Token address  on Ethereum Chain.",
          "_tokenAmount": ": ERC20 Tokens Amount which needs to be unlocked and refunded on the root chain",
          "_withdrawer": ": Root chain Address whose ERC20Tokens were deposited and locked."
        }
      },
      "getRoleAdmin(bytes32)": {
        "details": "Returns the admin role that controls `role`. See {grantRole} and {revokeRole}.     * To change a role's admin, use {_setRoleAdmin}."
      },
      "getRoleMember(bytes32,uint256)": {
        "details": "Returns one of the accounts that have `role`. `index` must be a value between 0 and {getRoleMemberCount}, non-inclusive.     * Role bearers are not sorted in any particular way, and their ordering may change at any point.     * WARNING: When using {getRoleMember} and {getRoleMemberCount}, make sure you perform all queries on the same block. See the following https://forum.openzeppelin.com/t/iterating-over-elements-on-enumerableset-in-openzeppelin-contracts/2296[forum post] for more information."
      },
      "getRoleMemberCount(bytes32)": {
        "details": "Returns the number of accounts that have `role`. Can be used together with {getRoleMember} to enumerate all bearers of a role."
      },
      "grantRole(bytes32,address)": {
        "details": "Grants `role` to `account`.     * If `account` had not been already granted `role`, emits a {RoleGranted} event.     * Requirements:     * - the caller must have ``role``'s admin role."
      },
      "hasRole(bytes32,address)": {
        "details": "Returns `true` if `account` has been granted `role`."
      },
      "lockTokens(address,address,address,bytes)": {
        "params": {
          "depositData": "ABI encoded amount",
          "depositReceiver": "Address (address) who wants to receive tokens on child chain",
          "depositor": "Address who wants to deposit tokens",
          "rootToken": "Token which gets deposited"
        }
      },
      "renounceRole(bytes32,address)": {
        "details": "Revokes `role` from the calling account.     * Roles are often managed via {grantRole} and {revokeRole}: this function's purpose is to provide a mechanism for accounts to lose their privileges if they are compromised (such as when a trusted device is misplaced).     * If the calling account had been granted `role`, emits a {RoleRevoked} event.     * Requirements:     * - the caller must be `account`."
      },
      "revokeRole(bytes32,address)": {
        "details": "Revokes `role` from `account`.     * If `account` had been granted `role`, emits a {RoleRevoked} event.     * Requirements:     * - the caller must have ``role``'s admin role."
      }
    }
  },
  "userdoc": {
    "methods": {
      "exitTokens(address,address,uint256)": {
        "notice": "Sends the correct amount of ERC20Tokens to withdrawer address that locked ERC20Tokens on the rootChain. callable only by manager"
      },
      "lockTokens(address,address,address,bytes)": {
        "notice": "Lock ERC20 tokens for deposit, callable only by manager"
      }
    }
  }
}