{
  "contractName": "MerklePatriciaTest",
  "abi": [
    {
      "inputs": [
        {
          "internalType": "uint256",
          "name": "receiptRoot",
          "type": "uint256"
        },
        {
          "internalType": "bytes",
          "name": "receipt",
          "type": "bytes"
        },
        {
          "internalType": "bytes",
          "name": "receiptProof",
          "type": "bytes"
        },
        {
          "internalType": "bytes",
          "name": "branchMask",
          "type": "bytes"
        }
      ],
      "name": "verify",
      "outputs": [
        {
          "internalType": "bool",
          "name": "",
          "type": "bool"
        }
      ],
      "stateMutability": "pure",
      "type": "function"
    }
  ],
  "bytecode": "0x608060405234801561001057600080fd5b50610ba2806100206000396000f3fe608060405234801561001057600080fd5b506004361061002b5760003560e01c8063d1f13e2814610030575b600080fd5b61014b6004803603608081101561004657600080fd5b8135919081019060408101602082013564010000000081111561006857600080fd5b82018360208201111561007a57600080fd5b8035906020019184600183028401116401000000008311171561009c57600080fd5b9193909290916020810190356401000000008111156100ba57600080fd5b8201836020820111156100cc57600080fd5b803590602001918460018302840111640100000000831117156100ee57600080fd5b91939092909160208101903564010000000081111561010c57600080fd5b82018360208201111561011e57600080fd5b8035906020019184600183028401116401000000008311171561014057600080fd5b50909250905061015f565b604080519115158252519081900360200190f35b600061020a87878080601f01602080910402602001604051908101604052809392919081815260200183838082843760009201919091525050604080516020601f8901819004810282018101909252878152925087915086908190840183828082843760009201919091525050604080516020601f8c018190048102820181019092528a815292508a91508990819084018382808284376000920191909152508e9250610216915050565b98975050505050505050565b6000610220610b52565b61022984610477565b905060606102368261049d565b9050606080856000826102488b610585565b905080516000141561026457600097505050505050505061046f565b60005b865181101561046657815183111561028a5760009850505050505050505061046f565b6102a687828151811061029957fe5b60200260200101516106f9565b9550858051906020012084146102c75760009850505050505050505061046f565b6102e38782815181106102d657fe5b602002602001015161049d565b94508451601114156103ad57815183141561034c578c8051906020012061031d8660108151811061031057fe5b6020026020010151610778565b80519060200120141561033b5760019850505050505050505061046f565b60009850505050505050505061046f565b600082848151811061035a57fe5b016020015160f81c9050601081111561037f576000995050505050505050505061046f565b61039e868260ff168151811061039157fe5b60200260200101516107f5565b9450506001929092019161045e565b84516002141561033b5760006103d36103cc8760008151811061031057fe5b8486610812565b905082518185011415610429578d805190602001206103f88760018151811061031057fe5b805190602001201415610417576001995050505050505050505061046f565b6000995050505050505050505061046f565b80610440576000995050505050505050505061046f565b80840193506104558660018151811061039157fe5b945061045e9050565b600101610267565b50505050505050505b949350505050565b61047f610b52565b5060408051808201909152815181526020828101908201525b919050565b60606104a8826108f1565b6104b157600080fd5b60006104bc8361092b565b905060608167ffffffffffffffff811180156104d757600080fd5b5060405190808252806020026020018201604052801561051157816020015b6104fe610b52565b8152602001906001900390816104f65790505b50905060006105238560200151610987565b60208601510190506000805b8481101561057a57610540836109ea565b915060405180604001604052808381526020018481525084828151811061056357fe5b60209081029190910101529181019160010161052f565b509195945050505050565b604080516020810190915260008152815160609190156106f3576000806105ad600086610a7e565b60f81c905060018114806105c457508060ff166003145b1561065357600185516002020367ffffffffffffffff811180156105e757600080fd5b506040519080825280601f01601f191660200182016040528015610612576020820181803683370190505b5092506000610622600187610a7e565b9050808460008151811061063257fe5b60200101906001600160f81b031916908160001a90535060019250506106a4565b600285516002020367ffffffffffffffff8111801561067157600080fd5b506040519080825280601f01601f19166020018201604052801561069c576020820181803683370190505b509250600091505b60ff82165b83518110156106ef576106c48360ff16820360020187610a7e565b8482815181106106d057fe5b60200101906001600160f81b031916908160001a9053506001016106a9565b5050505b92915050565b606080826000015167ffffffffffffffff8111801561071757600080fd5b506040519080825280601f01601f191660200182016040528015610742576020820181803683370190505b509050805160001415610756579050610498565b60008160200190506107718460200151828660000151610adb565b5092915050565b805160609061078657600080fd5b60008061079284610b2c565b9150915060608167ffffffffffffffff811180156107af57600080fd5b506040519080825280601f01601f1916602001820160405280156107da576020820181803683370190505b509050602081016107ec848285610adb565b50949350505050565b805160009060211461080657600080fd5b50602001516001015190565b600080606061082086610585565b90506060815167ffffffffffffffff8111801561083c57600080fd5b506040519080825280601f01601f191660200182016040528015610867576020820181803683370190505b509050845b825186018110156108c157600087828151811061088557fe5b602001015160f81c60f81b90508083888403815181106108a157fe5b60200101906001600160f81b031916908160001a9053505060010161086c565b508080519060200120828051906020012014156108e157815192506108e6565b600092505b509095945050505050565b805160009061090257506000610498565b6020820151805160001a9060c082101561092157600092505050610498565b5060019392505050565b805160009061093c57506000610498565b600080905060006109508460200151610987565b602085015185519181019250015b8082101561097e5761096f826109ea565b6001909301929091019061095e565b50909392505050565b8051600090811a60808110156109a1576000915050610498565b60b88110806109bc575060c081108015906109bc575060f881105b156109cb576001915050610498565b60c08110156109df5760b519019050610498565b60f519019050610498565b80516000908190811a6080811015610a055760019150610771565b60b8811015610a1a57607e1981019150610771565b60c0811015610a475760b78103600185019450806020036101000a85510460018201810193505050610771565b60f8811015610a5c5760be1981019150610771565b60019390930151602084900360f7016101000a900490920160f5190192915050565b60006002830615610aaf576010826002850481518110610a9a57fe5b016020015160f81c81610aa957fe5b06610ad1565b6010826002850481518110610ac057fe5b016020015160f81c81610acf57fe5b045b60f81b9392505050565b80610ae557610b27565b5b60208110610b05578251825260209283019290910190601f1901610ae6565b8015610b27578251825160208390036101000a60001901801990921691161782525b505050565b6000806000610b3e8460200151610987565b602085015194519481019594039392505050565b60405180604001604052806000815260200160008152509056fea2646970667358221220da50f57143041e25497c93e5936ea5387ed1af8ea3774edf2d447edd90727cae64736f6c63430006060033",
  "immutableReferences": {},
  "source": "pragma solidity 0.6.6;\n\nimport {MerklePatriciaProof} from \"../lib/MerklePatriciaProof.sol\";\nimport {RLPReader} from \"../lib/RLPReader.sol\";\n\ncontract MerklePatriciaTest {\n    using RLPReader for bytes;\n    using RLPReader for RLPReader.RLPItem;\n\n    function verify(uint receiptRoot, bytes calldata receipt, bytes calldata receiptProof, bytes calldata branchMask) external pure returns(bool) {\n\n        return MerklePatriciaProof.verify(\n            receipt, // receipt\n            branchMask, // branchMask\n            receiptProof, // receiptProof\n            bytes32(receiptRoot) // receiptRoot\n        );\n    }\n}\n",
  "sourcePath": "/home/moiz/NETSOl/Task-25, Bridge between polygon and ethereum (erc-20) Use-case 2/Ethereum_Polygon_Custom_Bridge_ERC20_Contracts_on_Testnet_without_status_Checks_Use_case_2/contracts/test/MerklePatriciaTest.sol",
  "compiler": {
    "name": "solc",
    "version": "0.6.6+commit.6c089d02.Emscripten.clang"
  },
  "schemaVersion": "3.4.8",
  "updatedAt": "2022-09-21T07:45:21.974Z",
  "devdoc": {
    "methods": {}
  },
  "userdoc": {
    "methods": {}
  }
}