{
  "contractName": "MockCheckpointManager",
  "abi": [
    {
      "inputs": [],
      "name": "currentCheckpointNumber",
      "outputs": [
        {
          "internalType": "uint256",
          "name": "",
          "type": "uint256"
        }
      ],
      "stateMutability": "view",
      "type": "function"
    },
    {
      "inputs": [
        {
          "internalType": "uint256",
          "name": "",
          "type": "uint256"
        }
      ],
      "name": "headerBlocks",
      "outputs": [
        {
          "internalType": "bytes32",
          "name": "root",
          "type": "bytes32"
        },
        {
          "internalType": "uint256",
          "name": "start",
          "type": "uint256"
        },
        {
          "internalType": "uint256",
          "name": "end",
          "type": "uint256"
        },
        {
          "internalType": "uint256",
          "name": "createdAt",
          "type": "uint256"
        },
        {
          "internalType": "address",
          "name": "proposer",
          "type": "address"
        }
      ],
      "stateMutability": "view",
      "type": "function"
    },
    {
      "inputs": [
        {
          "internalType": "bytes32",
          "name": "rootHash",
          "type": "bytes32"
        },
        {
          "internalType": "uint256",
          "name": "start",
          "type": "uint256"
        },
        {
          "internalType": "uint256",
          "name": "end",
          "type": "uint256"
        }
      ],
      "name": "setCheckpoint",
      "outputs": [],
      "stateMutability": "nonpayable",
      "type": "function"
    }
  ],
  "bytecode": "0x6080604052600060015534801561001557600080fd5b50610292806100256000396000f3fe608060405234801561001057600080fd5b50600436106100415760003560e01c806341539d4a146100465780634d5505d314610097578063afa764d7146100b1575b600080fd5b6100636004803603602081101561005c57600080fd5b50356100dc565b6040805195865260208601949094528484019290925260608401526001600160a01b03166080830152519081900360a00190f35b61009f610114565b60408051918252519081900360200190f35b6100da600480360360608110156100c757600080fd5b508035906020810135906040013561011a565b005b60006020819052908152604090208054600182015460028301546003840154600490940154929391929091906001600160a01b031685565b60015481565b610122610221565b506040805160a081018252848152602081018490529081018290524260608201523360808201526001805461015c9163ffffffff6101c016565b60018181556000918252602082815260409283902084518155908401519181019190915590820151600282015560608201516003820155608090910151600490910180546001600160a01b0319166001600160a01b03909216919091179055505050565b60008282018381101561021a576040805162461bcd60e51b815260206004820152601b60248201527f536166654d6174683a206164646974696f6e206f766572666c6f770000000000604482015290519081900360640190fd5b9392505050565b6040518060a001604052806000801916815260200160008152602001600081526020016000815260200160006001600160a01b03168152509056fea264697066735822122042f8763cca9b75a2caf9dffd598467d9541df1e7f97e58ca5f1ec429c0dff7eb64736f6c63430006060033",
  "immutableReferences": {},
  "source": "pragma solidity 0.6.6;\n\nimport {SafeMath} from \"@openzeppelin/contracts/math/SafeMath.sol\";\nimport {ICheckpointManager} from \"./ICheckpointManager.sol\";\n\n/**\n* @notice Mock Checkpoint Manager contract to simulate plasma checkpoints while testing\n*/\ncontract MockCheckpointManager is ICheckpointManager {\n    using SafeMath for uint256;\n\n    uint256 public currentCheckpointNumber = 0;\n\n    function setCheckpoint(bytes32 rootHash, uint256 start, uint256 end) public {\n        HeaderBlock memory headerBlock = HeaderBlock({\n            root: rootHash,\n            start: start,\n            end: end,\n            createdAt: now,\n            proposer: msg.sender\n        });\n\n        currentCheckpointNumber = currentCheckpointNumber.add(1);\n        headerBlocks[currentCheckpointNumber] = headerBlock;\n    }\n}\n",
  "sourcePath": "/home/moiz/Desktop/Eth_Matic_Custom_Bridge_Use_Case_2-Actual-/contracts/root/MockCheckpointManager.sol",
  "compiler": {
    "name": "solc",
    "version": "0.6.6+commit.6c089d02.Emscripten.clang"
  },
  "schemaVersion": "3.4.10",
  "updatedAt": "2022-09-27T12:38:09.846Z",
  "devdoc": {
    "methods": {}
  },
  "userdoc": {
    "methods": {},
    "notice": "Mock Checkpoint Manager contract to simulate plasma checkpoints while testing"
  }
}