{
  "contractName": "RootTunnel",
  "abi": [
    {
      "anonymous": false,
      "inputs": [
        {
          "indexed": true,
          "internalType": "bytes32",
          "name": "role",
          "type": "bytes32"
        },
        {
          "indexed": true,
          "internalType": "bytes32",
          "name": "previousAdminRole",
          "type": "bytes32"
        },
        {
          "indexed": true,
          "internalType": "bytes32",
          "name": "newAdminRole",
          "type": "bytes32"
        }
      ],
      "name": "RoleAdminChanged",
      "type": "event"
    },
    {
      "anonymous": false,
      "inputs": [
        {
          "indexed": true,
          "internalType": "bytes32",
          "name": "role",
          "type": "bytes32"
        },
        {
          "indexed": true,
          "internalType": "address",
          "name": "account",
          "type": "address"
        },
        {
          "indexed": true,
          "internalType": "address",
          "name": "sender",
          "type": "address"
        }
      ],
      "name": "RoleGranted",
      "type": "event"
    },
    {
      "anonymous": false,
      "inputs": [
        {
          "indexed": true,
          "internalType": "bytes32",
          "name": "role",
          "type": "bytes32"
        },
        {
          "indexed": true,
          "internalType": "address",
          "name": "account",
          "type": "address"
        },
        {
          "indexed": true,
          "internalType": "address",
          "name": "sender",
          "type": "address"
        }
      ],
      "name": "RoleRevoked",
      "type": "event"
    },
    {
      "inputs": [],
      "name": "DEFAULT_ADMIN_ROLE",
      "outputs": [
        {
          "internalType": "bytes32",
          "name": "",
          "type": "bytes32"
        }
      ],
      "stateMutability": "view",
      "type": "function"
    },
    {
      "inputs": [],
      "name": "SEND_MESSAGE_EVENT_SIG",
      "outputs": [
        {
          "internalType": "bytes32",
          "name": "",
          "type": "bytes32"
        }
      ],
      "stateMutability": "view",
      "type": "function"
    },
    {
      "inputs": [],
      "name": "checkpointManager",
      "outputs": [
        {
          "internalType": "contract ICheckpointManager",
          "name": "",
          "type": "address"
        }
      ],
      "stateMutability": "view",
      "type": "function"
    },
    {
      "inputs": [],
      "name": "childTunnel",
      "outputs": [
        {
          "internalType": "address",
          "name": "",
          "type": "address"
        }
      ],
      "stateMutability": "view",
      "type": "function"
    },
    {
      "inputs": [
        {
          "internalType": "bytes32",
          "name": "role",
          "type": "bytes32"
        }
      ],
      "name": "getRoleAdmin",
      "outputs": [
        {
          "internalType": "bytes32",
          "name": "",
          "type": "bytes32"
        }
      ],
      "stateMutability": "view",
      "type": "function"
    },
    {
      "inputs": [
        {
          "internalType": "bytes32",
          "name": "role",
          "type": "bytes32"
        },
        {
          "internalType": "uint256",
          "name": "index",
          "type": "uint256"
        }
      ],
      "name": "getRoleMember",
      "outputs": [
        {
          "internalType": "address",
          "name": "",
          "type": "address"
        }
      ],
      "stateMutability": "view",
      "type": "function"
    },
    {
      "inputs": [
        {
          "internalType": "bytes32",
          "name": "role",
          "type": "bytes32"
        }
      ],
      "name": "getRoleMemberCount",
      "outputs": [
        {
          "internalType": "uint256",
          "name": "",
          "type": "uint256"
        }
      ],
      "stateMutability": "view",
      "type": "function"
    },
    {
      "inputs": [
        {
          "internalType": "bytes32",
          "name": "role",
          "type": "bytes32"
        },
        {
          "internalType": "address",
          "name": "account",
          "type": "address"
        }
      ],
      "name": "grantRole",
      "outputs": [],
      "stateMutability": "nonpayable",
      "type": "function"
    },
    {
      "inputs": [
        {
          "internalType": "bytes32",
          "name": "role",
          "type": "bytes32"
        },
        {
          "internalType": "address",
          "name": "account",
          "type": "address"
        }
      ],
      "name": "hasRole",
      "outputs": [
        {
          "internalType": "bool",
          "name": "",
          "type": "bool"
        }
      ],
      "stateMutability": "view",
      "type": "function"
    },
    {
      "inputs": [
        {
          "internalType": "bytes32",
          "name": "",
          "type": "bytes32"
        }
      ],
      "name": "processedExits",
      "outputs": [
        {
          "internalType": "bool",
          "name": "",
          "type": "bool"
        }
      ],
      "stateMutability": "view",
      "type": "function"
    },
    {
      "inputs": [
        {
          "internalType": "bytes",
          "name": "inputData",
          "type": "bytes"
        }
      ],
      "name": "receiveMessage",
      "outputs": [],
      "stateMutability": "nonpayable",
      "type": "function"
    },
    {
      "inputs": [
        {
          "internalType": "bytes32",
          "name": "role",
          "type": "bytes32"
        },
        {
          "internalType": "address",
          "name": "account",
          "type": "address"
        }
      ],
      "name": "renounceRole",
      "outputs": [],
      "stateMutability": "nonpayable",
      "type": "function"
    },
    {
      "inputs": [
        {
          "internalType": "bytes32",
          "name": "role",
          "type": "bytes32"
        },
        {
          "internalType": "address",
          "name": "account",
          "type": "address"
        }
      ],
      "name": "revokeRole",
      "outputs": [],
      "stateMutability": "nonpayable",
      "type": "function"
    },
    {
      "inputs": [
        {
          "internalType": "address",
          "name": "newCheckpointManager",
          "type": "address"
        }
      ],
      "name": "setCheckpointManager",
      "outputs": [],
      "stateMutability": "nonpayable",
      "type": "function"
    },
    {
      "inputs": [
        {
          "internalType": "address",
          "name": "newChildTunnel",
          "type": "address"
        }
      ],
      "name": "setChildTunnel",
      "outputs": [],
      "stateMutability": "nonpayable",
      "type": "function"
    },
    {
      "inputs": [
        {
          "internalType": "address",
          "name": "newStateSender",
          "type": "address"
        }
      ],
      "name": "setStateSender",
      "outputs": [],
      "stateMutability": "nonpayable",
      "type": "function"
    },
    {
      "inputs": [],
      "name": "stateSender",
      "outputs": [
        {
          "internalType": "contract IStateSender",
          "name": "",
          "type": "address"
        }
      ],
      "stateMutability": "view",
      "type": "function"
    }
  ],
  "bytecode": "0x60806040526200001a6000336001600160e01b036200005516565b60408051808201909152600a815269149bdbdd151d5b9b995b60b21b60208201526200004f906001600160e01b036200006e16565b620002d2565b6200006a82826001600160e01b036200011016565b5050565b806040516020018082805190602001908083835b60208310620000a35780518252601f19909201916020918201910162000082565b51815160209384036101000a60001901801990921691161790527f3a20494e53554646494349454e545f5045524d495353494f4e530000000000009190930190815260408051808303600519018152601a909201905280516200006a955060019450920191905062000230565b6000828152602081815260409091206200013591839062000d9862000192821b17901c565b156200006a576200014e6001600160e01b03620001bb16565b6001600160a01b0316816001600160a01b0316837f2f8788117e7eff1d82e926ec794901d17c78024a50270940304540a733656f0d60405160405180910390a45050565b6000620001b2836001600160a01b0384166001600160e01b03620001c016565b90505b92915050565b335b90565b6000620001d783836001600160e01b036200021816565b6200020f57508154600181810184556000848152602080822090930184905584548482528286019093526040902091909155620001b5565b506000620001b5565b60009081526001919091016020526040902054151590565b828054600181600116156101000203166002900490600052602060002090601f016020900481019282601f106200027357805160ff1916838001178555620002a3565b82800160010185558215620002a3579182015b82811115620002a357825182559160200191906001019062000286565b50620002b1929150620002b5565b5090565b620001bd91905b80821115620002b15760008155600101620002bc565b61217d80620002e26000396000f3fe608060405234801561001057600080fd5b506004361061010b5760003560e01c806391d14854116100a2578063ca02b26711610071578063ca02b267146102a1578063ca15c873146102c7578063cb10f94c146102e4578063d547741f146102ec578063f953cec7146103185761010b565b806391d148541461023f578063a217fddf1461026b578063bc08452b14610273578063c0857ba0146102995761010b565b8063607f2d42116100de578063607f2d42146101a15780636cb136b0146101d25780636d6aa34d146101f85780639010d07c1461021c5761010b565b80630e387de614610110578063248a9ca31461012a5780632f2ff15d1461014757806336568abe14610175575b600080fd5b6101186103be565b60408051918252519081900360200190f35b6101186004803603602081101561014057600080fd5b50356103e2565b6101736004803603604081101561015d57600080fd5b50803590602001356001600160a01b03166103fa565b005b6101736004803603604081101561018b57600080fd5b50803590602001356001600160a01b0316610466565b6101be600480360360208110156101b757600080fd5b50356104c7565b604080519115158252519081900360200190f35b610173600480360360208110156101e857600080fd5b50356001600160a01b03166104dc565b610200610609565b604080516001600160a01b039092168252519081900360200190f35b6102006004803603604081101561023257600080fd5b5080359060200135610618565b6101be6004803603604081101561025557600080fd5b50803590602001356001600160a01b031661063f565b61011861065d565b6101736004803603602081101561028957600080fd5b50356001600160a01b0316610662565b61020061073f565b610173600480360360208110156102b757600080fd5b50356001600160a01b031661074e565b610118600480360360208110156102dd57600080fd5b503561082b565b610200610842565b6101736004803603604081101561030257600080fd5b50803590602001356001600160a01b0316610851565b6101736004803603602081101561032e57600080fd5b81019060208101813564010000000081111561034957600080fd5b82018360208201111561035b57600080fd5b8035906020019184600183028401116401000000008311171561037d57600080fd5b91908080601f0160208091040260200160405190810160405280939291908181526020018383808284376000920191909152509295506108aa945050505050565b7f8c5261668696ce22758910d05bab8f186d6eb247ceac2af2e82c7dc17669b03681565b6000818152602081905260409020600201545b919050565b60008281526020819052604090206002015461041d906104186108c0565b61063f565b6104585760405162461bcd60e51b815260040180806020018281038252602f815260200180612029602f913960400191505060405180910390fd5b61046282826108c4565b5050565b61046e6108c0565b6001600160a01b0316816001600160a01b0316146104bd5760405162461bcd60e51b815260040180806020018281038252602f8152602001806120f1602f913960400191505060405180910390fd5b6104628282610933565b60056020526000908152604090205460ff1681565b60006104ea816104186108c0565b60019061058a5760405162461bcd60e51b815260206004820190815282546002600019610100600184161502019091160460248301819052909182916044909101908490801561057b5780601f106105505761010080835404028352916020019161057b565b820191906000526020600020905b81548152906001019060200180831161055e57829003601f168201915b50509250505060405180910390fd5b506001600160a01b0382166105e6576040805162461bcd60e51b815260206004820181905260248201527f526f6f7454756e6e656c3a204241445f4e45575f53544154455f53454e444552604482015290519081900360640190fd5b50600280546001600160a01b0319166001600160a01b0392909216919091179055565b6004546001600160a01b031681565b6000828152602081905260408120610636908363ffffffff6109a216565b90505b92915050565b6000828152602081905260408120610636908363ffffffff6109ae16565b600081565b6000610670816104186108c0565b6001906106d65760405162461bcd60e51b815260206004820190815282546002600019610100600184161502019091160460248301819052909182916044909101908490801561057b5780601f106105505761010080835404028352916020019161057b565b506001600160a01b03821661071c5760405162461bcd60e51b81526004018080602001828103825260268152602001806120586026913960400191505060405180910390fd5b50600380546001600160a01b0319166001600160a01b0392909216919091179055565b6003546001600160a01b031681565b600061075c816104186108c0565b6001906107c25760405162461bcd60e51b815260206004820190815282546002600019610100600184161502019091160460248301819052909182916044909101908490801561057b5780601f106105505761010080835404028352916020019161057b565b506001600160a01b0382166108085760405162461bcd60e51b81526004018080602001828103825260288152602001806121206028913960400191505060405180910390fd5b50600480546001600160a01b0319166001600160a01b0392909216919091179055565b6000818152602081905260408120610639906109c3565b6002546001600160a01b031681565b60008281526020819052604090206002015461086f906104186108c0565b6104bd5760405162461bcd60e51b815260040180806020018281038252603081526020018061207e6030913960400191505060405180910390fd5b60606108b5826109ce565b905061046281610d95565b3390565b60008281526020819052604090206108e2908263ffffffff610d9816565b15610462576108ef6108c0565b6001600160a01b0316816001600160a01b0316837f2f8788117e7eff1d82e926ec794901d17c78024a50270940304540a733656f0d60405160405180910390a45050565b6000828152602081905260409020610951908263ffffffff610dad16565b156104625761095e6108c0565b6001600160a01b0316816001600160a01b0316837ff6391f5c32d9c69d2a47ea670b442974b53935d1edc7fd64eb21e047a839171b60405160405180910390a45050565b60006106368383610dc2565b6000610636836001600160a01b038416610e26565b600061063982610e3e565b60606109d8611f98565b6109e183610e42565b905060606109ee82610e72565b905060006109fb83610e95565b610a0483610eb8565b610a0d8561102b565b6040516020018084815260200183805190602001908083835b60208310610a455780518252601f199092019160209182019101610a26565b51815160209384036101000a6000190180199092169116179052920193845250604080518085038152938201815283519382019390932060008181526005909252929020549194505060ff16159150610ad190505760405162461bcd60e51b81526004018080602001828103825260228152602001806120ae6022913960400191505060405180910390fd5b6000818152600560205260409020805460ff19166001179055610af2611fab565b610afb84611041565b9050610b05611fcc565b610b0e8261112b565b9050610b1981611198565b6004546001600160a01b03908116911614610b7b576040805162461bcd60e51b815260206004820181905260248201527f526f6f7454756e6e656c3a20494e56414c49445f4348494c445f54554e4e454c604482015290519081900360640190fd5b610b9f610b87836111bb565b85610b91886111c2565b610b9a896111d8565b6111ee565b610bda5760405162461bcd60e51b81526004018080602001828103825260218152602001806120d06021913960400191505060405180910390fd5b610c18610be686610e95565b610bef87611435565b610bf88861144b565b610c01896111d8565b610c0a8a611461565b610c138b611477565b61148d565b50610c21611f98565b610c2a826115d6565b90507f8c5261668696ce22758910d05bab8f186d6eb247ceac2af2e82c7dc17669b036610c66610c6183600063ffffffff61160516565b61162b565b14610cb8576040805162461bcd60e51b815260206004820152601d60248201527f526f6f7454756e6e656c3a20494e56414c49445f5349474e4154555245000000604482015290519081900360640190fd5b6060610cc383611678565b8060200190516020811015610cd757600080fd5b8101908080516040519392919084640100000000821115610cf757600080fd5b908301906020820185811115610d0c57600080fd5b8251640100000000811182820188101715610d2657600080fd5b82525081516020918201929091019080838360005b83811015610d53578181015183820152602001610d3b565b50505050905090810190601f168015610d805780820380516001836020036101000a031916815260200191505b5060405250919b9a5050505050505050505050565b50565b6000610636836001600160a01b03841661168e565b6000610636836001600160a01b0384166116d8565b81546000908210610e045760405162461bcd60e51b81526004018080602001828103825260228152602001806120076022913960400191505060405180910390fd5b826000018281548110610e1357fe5b9060005260206000200154905092915050565b60009081526001919091016020526040902054151590565b5490565b610e4a611f98565b6060610e5d610e588461179e565b6117c3565b60408051602081019091529081529392505050565b60606106398260000151600881518110610e8857fe5b60200260200101516118ab565b60006106398260000151600281518110610eab57fe5b602002602001015161162b565b6040805160208101909152600081528151606091901561063957600080610ee0600086611928565b60f81c90506001811480610ef757508060ff166003145b15610f8657600185516002020367ffffffffffffffff81118015610f1a57600080fd5b506040519080825280601f01601f191660200182016040528015610f45576020820181803683370190505b5092506000610f55600187611928565b90508084600081518110610f6557fe5b60200101906001600160f81b031916908160001a9053506001925050610fd7565b600285516002020367ffffffffffffffff81118015610fa457600080fd5b506040519080825280601f01601f191660200182016040528015610fcf576020820181803683370190505b509250600091505b60ff82165b835181101561102257610ff78360ff16820360020187611928565b84828151811061100357fe5b60200101906001600160f81b031916908160001a905350600101610fdc565b50505092915050565b60006106398260000151600981518110610eab57fe5b611049611fab565b61105d8260000151600681518110610e8857fe5b602082015261106a611fec565b611077826020015161179e565b905061108281611985565b1561109757611090816117c3565b8252611117565b602082015180516060906000190167ffffffffffffffff811180156110bb57600080fd5b506040519080825280601f01601f1916602001820160405280156110e6576020820181803683370190505b509050600080836021019150826020019050611104828285516119bf565b611110610e588461179e565b8652505050505b6111208361102b565b604083015250919050565b611133611fcc565b61113b611fec565b61115c836000015160038151811061114f57fe5b60200260200101516117c3565b83604001518151811061116b57fe5b60200260200101519050604051806040016040528082815260200161118f836117c3565b90529392505050565b600061063982602001516000815181106111ae57fe5b6020026020010151611a0a565b6020015190565b60606106398260000151600781518110610e8857fe5b60006106398260000151600581518110610eab57fe5b60006111f8611fec565b6112018461179e565b9050606061120e826117c3565b9050606080856000826112208b610eb8565b905080516000141561123c57600097505050505050505061142d565b60005b86518110156114245781518311156112625760009850505050505050505061142d565b61127e87828151811061127157fe5b6020026020010151611a24565b95508580519060200120841461129f5760009850505050505050505061142d565b6112ae87828151811061114f57fe5b945084516011141561136b57815183141561130a578c805190602001206112db86601081518110610e8857fe5b8051906020012014156112f95760019850505050505050505061142d565b60009850505050505050505061142d565b600082848151811061131857fe5b016020015160f81c9050601081111561133d576000995050505050505050505061142d565b61135c868260ff168151811061134f57fe5b6020026020010151611aa3565b9450506001929092019161141c565b8451600214156112f957600061139161138a87600081518110610e8857fe5b8486611ac0565b9050825181850114156113e7578d805190602001206113b687600181518110610e8857fe5b8051906020012014156113d5576001995050505050505050505061142d565b6000995050505050505050505061142d565b806113fe576000995050505050505050505061142d565b80840193506114138660018151811061134f57fe5b945061141c9050565b60010161123f565b50505050505050505b949350505050565b60006106398260000151600381518110610eab57fe5b60006106398260000151600481518110610eab57fe5b60006106398260000151600081518110610eab57fe5b60606106398260000151600181518110610e8857fe5b600354604080516320a9cea560e11b81526004810185905290516000928392839283926001600160a01b0316916341539d4a9160248083019260a0929190829003018186803b1580156114df57600080fd5b505afa1580156114f3573d6000803e3d6000fd5b505050506040513d60a081101561150957600080fd5b508051602082015160609092015190945090925090506115786115328b8463ffffffff611b9f16565b6040805160208082018f90528183018e9052606082018d905260808083018d90528351808403909101815260a0909201909252805191012090858863ffffffff611be116565b6115c9576040805162461bcd60e51b815260206004820152601a60248201527f526f6f7454756e6e656c3a20494e56414c49445f484541444552000000000000604482015290519081900360640190fd5b9998505050505050505050565b6115de611f98565b60405180602001604052806115fd846020015160018151811061114f57fe5b905292915050565b61160d611fec565b825180518390811061161b57fe5b6020026020010151905092915050565b80516000901580159061164057508151602110155b61164957600080fd5b60008061165584611d37565b81519193509150602082101561142d5760208290036101000a9004949350505050565b60606106398260200151600281518110610e8857fe5b600061169a8383610e26565b6116d057508154600181810184556000848152602080822090930184905584548482528286019093526040902091909155610639565b506000610639565b60008181526001830160205260408120548015611794578354600019808301919081019060009087908390811061170b57fe5b906000526020600020015490508087600001848154811061172857fe5b60009182526020808320909101929092558281526001898101909252604090209084019055865487908061175857fe5b60019003818190600052602060002001600090559055866001016000878152602001908152602001600020600090556001945050505050610639565b6000915050610639565b6117a6611fec565b506040805180820190915281518152602082810190820152919050565b60606117ce82611985565b6117d757600080fd5b60006117e283611d5d565b905060608167ffffffffffffffff811180156117fd57600080fd5b5060405190808252806020026020018201604052801561183757816020015b611824611fec565b81526020019060019003908161181c5790505b50905060006118498560200151611db9565b60208601510190506000805b848110156118a05761186683611e1c565b915060405180604001604052808381526020018481525084828151811061188957fe5b602090810291909101015291810191600101611855565b509195945050505050565b80516060906118b957600080fd5b6000806118c584611d37565b9150915060608167ffffffffffffffff811180156118e257600080fd5b506040519080825280601f01601f19166020018201604052801561190d576020820181803683370190505b5090506020810161191f848285611eb0565b50949350505050565b6000600283061561195957601082600285048151811061194457fe5b016020015160f81c8161195357fe5b0661197b565b601082600285048151811061196a57fe5b016020015160f81c8161197957fe5b045b60f81b9392505050565b8051600090611996575060006103f5565b6020820151805160001a9060c08210156119b5576000925050506103f5565b5060019392505050565b806119c957611a05565b5b602081106119e9578251825260209283019290910190601f19016119ca565b8251825160208390036101000a60001901801990921691161782525b505050565b8051600090601514611a1b57600080fd5b6106398261162b565b606080826000015167ffffffffffffffff81118015611a4257600080fd5b506040519080825280601f01601f191660200182016040528015611a6d576020820181803683370190505b509050805160001415611a815790506103f5565b6000816020019050611a9c8460200151828660000151611eb0565b5092915050565b8051600090602114611ab457600080fd5b50602001516001015190565b6000806060611ace86610eb8565b90506060815167ffffffffffffffff81118015611aea57600080fd5b506040519080825280601f01601f191660200182016040528015611b15576020820181803683370190505b509050845b82518601811015611b6f576000878281518110611b3357fe5b602001015160f81c60f81b9050808388840381518110611b4f57fe5b60200101906001600160f81b031916908160001a90535050600101611b1a565b50808051906020012082805190602001201415611b8f5781519250611b94565b600092505b509095945050505050565b600061063683836040518060400160405280601e81526020017f536166654d6174683a207375627472616374696f6e206f766572666c6f770000815250611f01565b60006020825181611bee57fe5b0615611c38576040805162461bcd60e51b8152602060048201526014602482015273092dcecc2d8d2c840e0e4dedecc40d8cadccee8d60631b604482015290519081900360640190fd5b60006020835181611c4557fe5b0490508060020a8510611c97576040805162461bcd60e51b81526020600482015260156024820152744c65616620696e64657820697320746f6f2062696760581b604482015290519081900360640190fd5b60008660205b85518111611d295785810151925060028806611ce95781836040516020018083815260200182815260200192505050604051602081830303815290604052805190602001209150611d1b565b828260405160200180838152602001828152602001925050506040516020818303038152906040528051906020012091505b600288049750602001611c9d565b509094149695505050505050565b6000806000611d498460200151611db9565b602085015194519481019594039392505050565b8051600090611d6e575060006103f5565b60008090506000611d828460200151611db9565b602085015185519181019250015b80821015611db057611da182611e1c565b60019093019290910190611d90565b50909392505050565b8051600090811a6080811015611dd35760009150506103f5565b60b8811080611dee575060c08110801590611dee575060f881105b15611dfd5760019150506103f5565b60c0811015611e115760b5190190506103f5565b60f5190190506103f5565b80516000908190811a6080811015611e375760019150611a9c565b60b8811015611e4c57607e1981019150611a9c565b60c0811015611e795760b78103600185019450806020036101000a85510460018201810193505050611a9c565b60f8811015611e8e5760be1981019150611a9c565b60019390930151602084900360f7016101000a900490920160f5190192915050565b80611eba57611a05565b5b60208110611eda578251825260209283019290910190601f1901611ebb565b8015611a0557915181516020939093036101000a6000190180199091169216919091179052565b60008184841115611f905760405162461bcd60e51b81526004018080602001828103825283818151815260200191508051906020019080838360005b83811015611f55578181015183820152602001611f3d565b50505050905090810190601f168015611f825780820380516001836020036101000a031916815260200191505b509250505060405180910390fd5b505050900390565b6040518060200160405280606081525090565b60405180606001604052806060815260200160608152602001600081525090565b6040518060400160405280611fdf611fec565b8152602001606081525090565b60405180604001604052806000815260200160008152509056fe456e756d657261626c655365743a20696e646578206f7574206f6620626f756e6473416363657373436f6e74726f6c3a2073656e646572206d75737420626520616e2061646d696e20746f206772616e74526f6f7454756e6e656c3a204241445f4e45575f434845434b504f494e545f4d414e41474552416363657373436f6e74726f6c3a2073656e646572206d75737420626520616e2061646d696e20746f207265766f6b65526f6f7454756e6e656c3a20455849545f414c52454144595f50524f434553534544526f6f7454756e6e656c3a20494e56414c49445f524543454950545f50524f4f46416363657373436f6e74726f6c3a2063616e206f6e6c792072656e6f756e636520726f6c657320666f722073656c66526f6f7454756e6e656c3a20494e56414c49445f4348494c445f54554e4e454c5f41444452455353a26469706673582212205af18ff2fc9ae0d785e162f0000594ee8d6aa8f8e0f0b0eb896ff91dfdfc0eaa64736f6c63430006060033",
  "immutableReferences": {},
  "source": "pragma solidity 0.6.6;\n\nimport {BaseRootTunnel} from \"./BaseRootTunnel.sol\";\n\n\ncontract RootTunnel is BaseRootTunnel {\n    function _processMessageFromChild(bytes memory message) internal override {\n      // implement your core logic here\n    }\n}\n",
  "sourcePath": "/home/moiz/Desktop/Eth_Matic_Custom_Bridge_Use_Case_2-Actual-/contracts/tunnel/RootTunnel.sol",
  "compiler": {
    "name": "solc",
    "version": "0.6.6+commit.6c089d02.Emscripten.clang"
  },
  "schemaVersion": "3.4.10",
  "updatedAt": "2022-09-26T13:08:30.016Z",
  "devdoc": {
    "methods": {
      "getRoleAdmin(bytes32)": {
        "details": "Returns the admin role that controls `role`. See {grantRole} and {revokeRole}.     * To change a role's admin, use {_setRoleAdmin}."
      },
      "getRoleMember(bytes32,uint256)": {
        "details": "Returns one of the accounts that have `role`. `index` must be a value between 0 and {getRoleMemberCount}, non-inclusive.     * Role bearers are not sorted in any particular way, and their ordering may change at any point.     * WARNING: When using {getRoleMember} and {getRoleMemberCount}, make sure you perform all queries on the same block. See the following https://forum.openzeppelin.com/t/iterating-over-elements-on-enumerableset-in-openzeppelin-contracts/2296[forum post] for more information."
      },
      "getRoleMemberCount(bytes32)": {
        "details": "Returns the number of accounts that have `role`. Can be used together with {getRoleMember} to enumerate all bearers of a role."
      },
      "grantRole(bytes32,address)": {
        "details": "Grants `role` to `account`.     * If `account` had not been already granted `role`, emits a {RoleGranted} event.     * Requirements:     * - the caller must have ``role``'s admin role."
      },
      "hasRole(bytes32,address)": {
        "details": "Returns `true` if `account` has been granted `role`."
      },
      "receiveMessage(bytes)": {
        "details": "This function verifies if the transaction actually happened on child chain",
        "params": {
          "inputData": "RLP encoded data of the reference tx containing following list of fields 0 - headerNumber - Checkpoint header block number containing the reference tx 1 - blockProof - Proof that the block header (in the child chain) is a leaf in the submitted merkle root 2 - blockNumber - Block number containing the reference tx on child chain 3 - blockTime - Reference tx block time 4 - txRoot - Transactions root of block 5 - receiptRoot - Receipts root of block 6 - receipt - Receipt of the reference transaction 7 - receiptProof - Merkle proof of the reference receipt 8 - branchMask - 32 bits denoting the path of receipt in merkle tree 9 - receiptLogIndex - Log Index to read from the receipt"
        }
      },
      "renounceRole(bytes32,address)": {
        "details": "Revokes `role` from the calling account.     * Roles are often managed via {grantRole} and {revokeRole}: this function's purpose is to provide a mechanism for accounts to lose their privileges if they are compromised (such as when a trusted device is misplaced).     * If the calling account had been granted `role`, emits a {RoleRevoked} event.     * Requirements:     * - the caller must be `account`."
      },
      "revokeRole(bytes32,address)": {
        "details": "Revokes `role` from `account`.     * If `account` had been granted `role`, emits a {RoleRevoked} event.     * Requirements:     * - the caller must have ``role``'s admin role."
      },
      "setCheckpointManager(address)": {
        "details": "This should be the plasma contract responsible for keeping track of checkpoints",
        "params": {
          "newCheckpointManager": "address of checkpoint manager contract"
        }
      },
      "setChildTunnel(address)": {
        "details": "This should be the contract responsible to receive data bytes on child chain",
        "params": {
          "newChildTunnel": "address of child tunnel contract"
        }
      },
      "setStateSender(address)": {
        "details": "This should be the state sender from plasma contracts It is used to send bytes from root to child chain",
        "params": {
          "newStateSender": "address of state sender contract"
        }
      }
    }
  },
  "userdoc": {
    "methods": {
      "receiveMessage(bytes)": {
        "notice": "receive message from  L2 to L1, validated by proof"
      },
      "setCheckpointManager(address)": {
        "notice": "Set the checkpoint manager, callable only by admins"
      },
      "setChildTunnel(address)": {
        "notice": "Set the child chain tunnel, callable only by admins"
      },
      "setStateSender(address)": {
        "notice": "Set the state sender, callable only by admins"
      }
    }
  }
}