{
  "contractName": "TestRootTunnel",
  "abi": [
    {
      "anonymous": false,
      "inputs": [
        {
          "indexed": false,
          "internalType": "uint256",
          "name": "",
          "type": "uint256"
        }
      ],
      "name": "MessageReceivedFromChild",
      "type": "event"
    },
    {
      "anonymous": false,
      "inputs": [
        {
          "indexed": true,
          "internalType": "bytes32",
          "name": "role",
          "type": "bytes32"
        },
        {
          "indexed": true,
          "internalType": "bytes32",
          "name": "previousAdminRole",
          "type": "bytes32"
        },
        {
          "indexed": true,
          "internalType": "bytes32",
          "name": "newAdminRole",
          "type": "bytes32"
        }
      ],
      "name": "RoleAdminChanged",
      "type": "event"
    },
    {
      "anonymous": false,
      "inputs": [
        {
          "indexed": true,
          "internalType": "bytes32",
          "name": "role",
          "type": "bytes32"
        },
        {
          "indexed": true,
          "internalType": "address",
          "name": "account",
          "type": "address"
        },
        {
          "indexed": true,
          "internalType": "address",
          "name": "sender",
          "type": "address"
        }
      ],
      "name": "RoleGranted",
      "type": "event"
    },
    {
      "anonymous": false,
      "inputs": [
        {
          "indexed": true,
          "internalType": "bytes32",
          "name": "role",
          "type": "bytes32"
        },
        {
          "indexed": true,
          "internalType": "address",
          "name": "account",
          "type": "address"
        },
        {
          "indexed": true,
          "internalType": "address",
          "name": "sender",
          "type": "address"
        }
      ],
      "name": "RoleRevoked",
      "type": "event"
    },
    {
      "inputs": [],
      "name": "DEFAULT_ADMIN_ROLE",
      "outputs": [
        {
          "internalType": "bytes32",
          "name": "",
          "type": "bytes32"
        }
      ],
      "stateMutability": "view",
      "type": "function"
    },
    {
      "inputs": [],
      "name": "SEND_MESSAGE_EVENT_SIG",
      "outputs": [
        {
          "internalType": "bytes32",
          "name": "",
          "type": "bytes32"
        }
      ],
      "stateMutability": "view",
      "type": "function"
    },
    {
      "inputs": [],
      "name": "checkpointManager",
      "outputs": [
        {
          "internalType": "contract ICheckpointManager",
          "name": "",
          "type": "address"
        }
      ],
      "stateMutability": "view",
      "type": "function"
    },
    {
      "inputs": [],
      "name": "childTunnel",
      "outputs": [
        {
          "internalType": "address",
          "name": "",
          "type": "address"
        }
      ],
      "stateMutability": "view",
      "type": "function"
    },
    {
      "inputs": [
        {
          "internalType": "bytes32",
          "name": "role",
          "type": "bytes32"
        }
      ],
      "name": "getRoleAdmin",
      "outputs": [
        {
          "internalType": "bytes32",
          "name": "",
          "type": "bytes32"
        }
      ],
      "stateMutability": "view",
      "type": "function"
    },
    {
      "inputs": [
        {
          "internalType": "bytes32",
          "name": "role",
          "type": "bytes32"
        },
        {
          "internalType": "uint256",
          "name": "index",
          "type": "uint256"
        }
      ],
      "name": "getRoleMember",
      "outputs": [
        {
          "internalType": "address",
          "name": "",
          "type": "address"
        }
      ],
      "stateMutability": "view",
      "type": "function"
    },
    {
      "inputs": [
        {
          "internalType": "bytes32",
          "name": "role",
          "type": "bytes32"
        }
      ],
      "name": "getRoleMemberCount",
      "outputs": [
        {
          "internalType": "uint256",
          "name": "",
          "type": "uint256"
        }
      ],
      "stateMutability": "view",
      "type": "function"
    },
    {
      "inputs": [
        {
          "internalType": "bytes32",
          "name": "role",
          "type": "bytes32"
        },
        {
          "internalType": "address",
          "name": "account",
          "type": "address"
        }
      ],
      "name": "grantRole",
      "outputs": [],
      "stateMutability": "nonpayable",
      "type": "function"
    },
    {
      "inputs": [
        {
          "internalType": "bytes32",
          "name": "role",
          "type": "bytes32"
        },
        {
          "internalType": "address",
          "name": "account",
          "type": "address"
        }
      ],
      "name": "hasRole",
      "outputs": [
        {
          "internalType": "bool",
          "name": "",
          "type": "bool"
        }
      ],
      "stateMutability": "view",
      "type": "function"
    },
    {
      "inputs": [
        {
          "internalType": "bytes32",
          "name": "",
          "type": "bytes32"
        }
      ],
      "name": "processedExits",
      "outputs": [
        {
          "internalType": "bool",
          "name": "",
          "type": "bool"
        }
      ],
      "stateMutability": "view",
      "type": "function"
    },
    {
      "inputs": [
        {
          "internalType": "bytes",
          "name": "inputData",
          "type": "bytes"
        }
      ],
      "name": "receiveMessage",
      "outputs": [],
      "stateMutability": "nonpayable",
      "type": "function"
    },
    {
      "inputs": [],
      "name": "receivedNumber",
      "outputs": [
        {
          "internalType": "uint256",
          "name": "",
          "type": "uint256"
        }
      ],
      "stateMutability": "view",
      "type": "function"
    },
    {
      "inputs": [
        {
          "internalType": "bytes32",
          "name": "role",
          "type": "bytes32"
        },
        {
          "internalType": "address",
          "name": "account",
          "type": "address"
        }
      ],
      "name": "renounceRole",
      "outputs": [],
      "stateMutability": "nonpayable",
      "type": "function"
    },
    {
      "inputs": [
        {
          "internalType": "bytes32",
          "name": "role",
          "type": "bytes32"
        },
        {
          "internalType": "address",
          "name": "account",
          "type": "address"
        }
      ],
      "name": "revokeRole",
      "outputs": [],
      "stateMutability": "nonpayable",
      "type": "function"
    },
    {
      "inputs": [
        {
          "internalType": "address",
          "name": "newCheckpointManager",
          "type": "address"
        }
      ],
      "name": "setCheckpointManager",
      "outputs": [],
      "stateMutability": "nonpayable",
      "type": "function"
    },
    {
      "inputs": [
        {
          "internalType": "address",
          "name": "newChildTunnel",
          "type": "address"
        }
      ],
      "name": "setChildTunnel",
      "outputs": [],
      "stateMutability": "nonpayable",
      "type": "function"
    },
    {
      "inputs": [
        {
          "internalType": "address",
          "name": "newStateSender",
          "type": "address"
        }
      ],
      "name": "setStateSender",
      "outputs": [],
      "stateMutability": "nonpayable",
      "type": "function"
    },
    {
      "inputs": [],
      "name": "stateSender",
      "outputs": [
        {
          "internalType": "contract IStateSender",
          "name": "",
          "type": "address"
        }
      ],
      "stateMutability": "view",
      "type": "function"
    }
  ],
  "bytecode": "0x60806040526200001a6000336001600160e01b036200005516565b60408051808201909152600a815269149bdbdd151d5b9b995b60b21b60208201526200004f906001600160e01b036200006e16565b620002d2565b6200006a82826001600160e01b036200011016565b5050565b806040516020018082805190602001908083835b60208310620000a35780518252601f19909201916020918201910162000082565b51815160209384036101000a60001901801990921691161790527f3a20494e53554646494349454e545f5045524d495353494f4e530000000000009190930190815260408051808303600519018152601a909201905280516200006a955060019450920191905062000230565b6000828152602081815260409091206200013591839062000e0462000192821b17901c565b156200006a576200014e6001600160e01b03620001bb16565b6001600160a01b0316816001600160a01b0316837f2f8788117e7eff1d82e926ec794901d17c78024a50270940304540a733656f0d60405160405180910390a45050565b6000620001b2836001600160a01b0384166001600160e01b03620001c016565b90505b92915050565b335b90565b6000620001d783836001600160e01b036200021816565b6200020f57508154600181810184556000848152602080822090930184905584548482528286019093526040902091909155620001b5565b506000620001b5565b60009081526001919091016020526040902054151590565b828054600181600116156101000203166002900490600052602060002090601f016020900481019282601f106200027357805160ff1916838001178555620002a3565b82800160010185558215620002a3579182015b82811115620002a357825182559160200191906001019062000286565b50620002b1929150620002b5565b5090565b620001bd91905b80821115620002b15760008155600101620002bc565b6121e980620002e26000396000f3fe608060405234801561001057600080fd5b50600436106101165760003560e01c8063a217fddf116100a2578063ca02b26711610071578063ca02b267146102b4578063ca15c873146102da578063cb10f94c146102f7578063d547741f146102ff578063f953cec71461032b57610116565b8063a217fddf14610276578063bc08452b1461027e578063c0857ba0146102a4578063c9f703a9146102ac57610116565b8063607f2d42116100e9578063607f2d42146101ac5780636cb136b0146101dd5780636d6aa34d146102035780639010d07c1461022757806391d148541461024a57610116565b80630e387de61461011b578063248a9ca3146101355780632f2ff15d1461015257806336568abe14610180575b600080fd5b6101236103d1565b60408051918252519081900360200190f35b6101236004803603602081101561014b57600080fd5b50356103f5565b61017e6004803603604081101561016857600080fd5b50803590602001356001600160a01b031661040d565b005b61017e6004803603604081101561019657600080fd5b50803590602001356001600160a01b0316610479565b6101c9600480360360208110156101c257600080fd5b50356104da565b604080519115158252519081900360200190f35b61017e600480360360208110156101f357600080fd5b50356001600160a01b03166104ef565b61020b61061c565b604080516001600160a01b039092168252519081900360200190f35b61020b6004803603604081101561023d57600080fd5b508035906020013561062b565b6101c96004803603604081101561026057600080fd5b50803590602001356001600160a01b0316610652565b610123610670565b61017e6004803603602081101561029457600080fd5b50356001600160a01b0316610675565b61020b610752565b610123610761565b61017e600480360360208110156102ca57600080fd5b50356001600160a01b0316610767565b610123600480360360208110156102f057600080fd5b5035610844565b61020b61085b565b61017e6004803603604081101561031557600080fd5b50803590602001356001600160a01b031661086a565b61017e6004803603602081101561034157600080fd5b81019060208101813564010000000081111561035c57600080fd5b82018360208201111561036e57600080fd5b8035906020019184600183028401116401000000008311171561039057600080fd5b91908080601f0160208091040260200160405190810160405280939291908181526020018383808284376000920191909152509295506108c3945050505050565b7f8c5261668696ce22758910d05bab8f186d6eb247ceac2af2e82c7dc17669b03681565b6000818152602081905260409020600201545b919050565b6000828152602081905260409020600201546104309061042b6108d9565b610652565b61046b5760405162461bcd60e51b815260040180806020018281038252602f815260200180612095602f913960400191505060405180910390fd5b61047582826108dd565b5050565b6104816108d9565b6001600160a01b0316816001600160a01b0316146104d05760405162461bcd60e51b815260040180806020018281038252602f81526020018061215d602f913960400191505060405180910390fd5b610475828261094c565b60056020526000908152604090205460ff1681565b60006104fd8161042b6108d9565b60019061059d5760405162461bcd60e51b815260206004820190815282546002600019610100600184161502019091160460248301819052909182916044909101908490801561058e5780601f106105635761010080835404028352916020019161058e565b820191906000526020600020905b81548152906001019060200180831161057157829003601f168201915b50509250505060405180910390fd5b506001600160a01b0382166105f9576040805162461bcd60e51b815260206004820181905260248201527f526f6f7454756e6e656c3a204241445f4e45575f53544154455f53454e444552604482015290519081900360640190fd5b50600280546001600160a01b0319166001600160a01b0392909216919091179055565b6004546001600160a01b031681565b6000828152602081905260408120610649908363ffffffff6109bb16565b90505b92915050565b6000828152602081905260408120610649908363ffffffff6109c716565b600081565b60006106838161042b6108d9565b6001906106e95760405162461bcd60e51b815260206004820190815282546002600019610100600184161502019091160460248301819052909182916044909101908490801561058e5780601f106105635761010080835404028352916020019161058e565b506001600160a01b03821661072f5760405162461bcd60e51b81526004018080602001828103825260268152602001806120c46026913960400191505060405180910390fd5b50600380546001600160a01b0319166001600160a01b0392909216919091179055565b6003546001600160a01b031681565b60065481565b60006107758161042b6108d9565b6001906107db5760405162461bcd60e51b815260206004820190815282546002600019610100600184161502019091160460248301819052909182916044909101908490801561058e5780601f106105635761010080835404028352916020019161058e565b506001600160a01b0382166108215760405162461bcd60e51b815260040180806020018281038252602881526020018061218c6028913960400191505060405180910390fd5b50600480546001600160a01b0319166001600160a01b0392909216919091179055565b600081815260208190526040812061064c906109dc565b6002546001600160a01b031681565b6000828152602081905260409020600201546108889061042b6108d9565b6104d05760405162461bcd60e51b81526004018080602001828103825260308152602001806120ea6030913960400191505060405180910390fd5b60606108ce826109e7565b905061047581610dae565b3390565b60008281526020819052604090206108fb908263ffffffff610e0416565b15610475576109086108d9565b6001600160a01b0316816001600160a01b0316837f2f8788117e7eff1d82e926ec794901d17c78024a50270940304540a733656f0d60405160405180910390a45050565b600082815260208190526040902061096a908263ffffffff610e1916565b15610475576109776108d9565b6001600160a01b0316816001600160a01b0316837ff6391f5c32d9c69d2a47ea670b442974b53935d1edc7fd64eb21e047a839171b60405160405180910390a45050565b60006106498383610e2e565b6000610649836001600160a01b038416610e92565b600061064c82610eaa565b60606109f1612004565b6109fa83610eae565b90506060610a0782610ede565b90506000610a1483610f01565b610a1d83610f24565b610a2685611097565b6040516020018084815260200183805190602001908083835b60208310610a5e5780518252601f199092019160209182019101610a3f565b51815160209384036101000a6000190180199092169116179052920193845250604080518085038152938201815283519382019390932060008181526005909252929020549194505060ff16159150610aea90505760405162461bcd60e51b815260040180806020018281038252602281526020018061211a6022913960400191505060405180910390fd5b6000818152600560205260409020805460ff19166001179055610b0b612017565b610b14846110ad565b9050610b1e612038565b610b2782611197565b9050610b3281611204565b6004546001600160a01b03908116911614610b94576040805162461bcd60e51b815260206004820181905260248201527f526f6f7454756e6e656c3a20494e56414c49445f4348494c445f54554e4e454c604482015290519081900360640190fd5b610bb8610ba083611227565b85610baa8861122e565b610bb389611244565b61125a565b610bf35760405162461bcd60e51b815260040180806020018281038252602181526020018061213c6021913960400191505060405180910390fd5b610c31610bff86610f01565b610c08876114a1565b610c11886114b7565b610c1a89611244565b610c238a6114cd565b610c2c8b6114e3565b6114f9565b50610c3a612004565b610c4382611642565b90507f8c5261668696ce22758910d05bab8f186d6eb247ceac2af2e82c7dc17669b036610c7f610c7a83600063ffffffff61167116565b611697565b14610cd1576040805162461bcd60e51b815260206004820152601d60248201527f526f6f7454756e6e656c3a20494e56414c49445f5349474e4154555245000000604482015290519081900360640190fd5b6060610cdc836116e4565b8060200190516020811015610cf057600080fd5b8101908080516040519392919084640100000000821115610d1057600080fd5b908301906020820185811115610d2557600080fd5b8251640100000000811182820188101715610d3f57600080fd5b82525081516020918201929091019080838360005b83811015610d6c578181015183820152602001610d54565b50505050905090810190601f168015610d995780820380516001836020036101000a031916815260200191505b5060405250919b9a5050505050505050505050565b6000818060200190516020811015610dc557600080fd5b50516040805182815290519192507f898be1981b8ae7b9d60bff0dda850b61e6ea5be09fab181db7ecbaa6dcac6fba919081900360200190a160065550565b6000610649836001600160a01b0384166116fa565b6000610649836001600160a01b038416611744565b81546000908210610e705760405162461bcd60e51b81526004018080602001828103825260228152602001806120736022913960400191505060405180910390fd5b826000018281548110610e7f57fe5b9060005260206000200154905092915050565b60009081526001919091016020526040902054151590565b5490565b610eb6612004565b6060610ec9610ec48461180a565b61182f565b60408051602081019091529081529392505050565b606061064c8260000151600881518110610ef457fe5b6020026020010151611917565b600061064c8260000151600281518110610f1757fe5b6020026020010151611697565b6040805160208101909152600081528151606091901561064c57600080610f4c600086611994565b60f81c90506001811480610f6357508060ff166003145b15610ff257600185516002020367ffffffffffffffff81118015610f8657600080fd5b506040519080825280601f01601f191660200182016040528015610fb1576020820181803683370190505b5092506000610fc1600187611994565b90508084600081518110610fd157fe5b60200101906001600160f81b031916908160001a9053506001925050611043565b600285516002020367ffffffffffffffff8111801561101057600080fd5b506040519080825280601f01601f19166020018201604052801561103b576020820181803683370190505b509250600091505b60ff82165b835181101561108e576110638360ff16820360020187611994565b84828151811061106f57fe5b60200101906001600160f81b031916908160001a905350600101611048565b50505092915050565b600061064c8260000151600981518110610f1757fe5b6110b5612017565b6110c98260000151600681518110610ef457fe5b60208201526110d6612058565b6110e3826020015161180a565b90506110ee816119f1565b15611103576110fc8161182f565b8252611183565b602082015180516060906000190167ffffffffffffffff8111801561112757600080fd5b506040519080825280601f01601f191660200182016040528015611152576020820181803683370190505b50905060008083602101915082602001905061117082828551611a2b565b61117c610ec48461180a565b8652505050505b61118c83611097565b604083015250919050565b61119f612038565b6111a7612058565b6111c883600001516003815181106111bb57fe5b602002602001015161182f565b8360400151815181106111d757fe5b6020026020010151905060405180604001604052808281526020016111fb8361182f565b90529392505050565b600061064c826020015160008151811061121a57fe5b6020026020010151611a76565b6020015190565b606061064c8260000151600781518110610ef457fe5b600061064c8260000151600581518110610f1757fe5b6000611264612058565b61126d8461180a565b9050606061127a8261182f565b90506060808560008261128c8b610f24565b90508051600014156112a8576000975050505050505050611499565b60005b86518110156114905781518311156112ce57600098505050505050505050611499565b6112ea8782815181106112dd57fe5b6020026020010151611a90565b95508580519060200120841461130b57600098505050505050505050611499565b61131a8782815181106111bb57fe5b94508451601114156113d7578151831415611376578c8051906020012061134786601081518110610ef457fe5b80519060200120141561136557600198505050505050505050611499565b600098505050505050505050611499565b600082848151811061138457fe5b016020015160f81c905060108111156113a95760009950505050505050505050611499565b6113c8868260ff16815181106113bb57fe5b6020026020010151611b0f565b94505060019290920191611488565b8451600214156113655760006113fd6113f687600081518110610ef457fe5b8486611b2c565b905082518185011415611453578d8051906020012061142287600181518110610ef457fe5b8051906020012014156114415760019950505050505050505050611499565b60009950505050505050505050611499565b8061146a5760009950505050505050505050611499565b808401935061147f866001815181106113bb57fe5b94506114889050565b6001016112ab565b50505050505050505b949350505050565b600061064c8260000151600381518110610f1757fe5b600061064c8260000151600481518110610f1757fe5b600061064c8260000151600081518110610f1757fe5b606061064c8260000151600181518110610ef457fe5b600354604080516320a9cea560e11b81526004810185905290516000928392839283926001600160a01b0316916341539d4a9160248083019260a0929190829003018186803b15801561154b57600080fd5b505afa15801561155f573d6000803e3d6000fd5b505050506040513d60a081101561157557600080fd5b508051602082015160609092015190945090925090506115e461159e8b8463ffffffff611c0b16565b6040805160208082018f90528183018e9052606082018d905260808083018d90528351808403909101815260a0909201909252805191012090858863ffffffff611c4d16565b611635576040805162461bcd60e51b815260206004820152601a60248201527f526f6f7454756e6e656c3a20494e56414c49445f484541444552000000000000604482015290519081900360640190fd5b9998505050505050505050565b61164a612004565b604051806020016040528061166984602001516001815181106111bb57fe5b905292915050565b611679612058565b825180518390811061168757fe5b6020026020010151905092915050565b8051600090158015906116ac57508151602110155b6116b557600080fd5b6000806116c184611da3565b8151919350915060208210156114995760208290036101000a9004949350505050565b606061064c8260200151600281518110610ef457fe5b60006117068383610e92565b61173c5750815460018181018455600084815260208082209093018490558454848252828601909352604090209190915561064c565b50600061064c565b60008181526001830160205260408120548015611800578354600019808301919081019060009087908390811061177757fe5b906000526020600020015490508087600001848154811061179457fe5b6000918252602080832090910192909255828152600189810190925260409020908401905586548790806117c457fe5b6001900381819060005260206000200160009055905586600101600087815260200190815260200160002060009055600194505050505061064c565b600091505061064c565b611812612058565b506040805180820190915281518152602082810190820152919050565b606061183a826119f1565b61184357600080fd5b600061184e83611dc9565b905060608167ffffffffffffffff8111801561186957600080fd5b506040519080825280602002602001820160405280156118a357816020015b611890612058565b8152602001906001900390816118885790505b50905060006118b58560200151611e25565b60208601510190506000805b8481101561190c576118d283611e88565b91506040518060400160405280838152602001848152508482815181106118f557fe5b6020908102919091010152918101916001016118c1565b509195945050505050565b805160609061192557600080fd5b60008061193184611da3565b9150915060608167ffffffffffffffff8111801561194e57600080fd5b506040519080825280601f01601f191660200182016040528015611979576020820181803683370190505b5090506020810161198b848285611f1c565b50949350505050565b600060028306156119c55760108260028504815181106119b057fe5b016020015160f81c816119bf57fe5b066119e7565b60108260028504815181106119d657fe5b016020015160f81c816119e557fe5b045b60f81b9392505050565b8051600090611a0257506000610408565b6020820151805160001a9060c0821015611a2157600092505050610408565b5060019392505050565b80611a3557611a71565b5b60208110611a55578251825260209283019290910190601f1901611a36565b8251825160208390036101000a60001901801990921691161782525b505050565b8051600090601514611a8757600080fd5b61064c82611697565b606080826000015167ffffffffffffffff81118015611aae57600080fd5b506040519080825280601f01601f191660200182016040528015611ad9576020820181803683370190505b509050805160001415611aed579050610408565b6000816020019050611b088460200151828660000151611f1c565b5092915050565b8051600090602114611b2057600080fd5b50602001516001015190565b6000806060611b3a86610f24565b90506060815167ffffffffffffffff81118015611b5657600080fd5b506040519080825280601f01601f191660200182016040528015611b81576020820181803683370190505b509050845b82518601811015611bdb576000878281518110611b9f57fe5b602001015160f81c60f81b9050808388840381518110611bbb57fe5b60200101906001600160f81b031916908160001a90535050600101611b86565b50808051906020012082805190602001201415611bfb5781519250611c00565b600092505b509095945050505050565b600061064983836040518060400160405280601e81526020017f536166654d6174683a207375627472616374696f6e206f766572666c6f770000815250611f6d565b60006020825181611c5a57fe5b0615611ca4576040805162461bcd60e51b8152602060048201526014602482015273092dcecc2d8d2c840e0e4dedecc40d8cadccee8d60631b604482015290519081900360640190fd5b60006020835181611cb157fe5b0490508060020a8510611d03576040805162461bcd60e51b81526020600482015260156024820152744c65616620696e64657820697320746f6f2062696760581b604482015290519081900360640190fd5b60008660205b85518111611d955785810151925060028806611d555781836040516020018083815260200182815260200192505050604051602081830303815290604052805190602001209150611d87565b828260405160200180838152602001828152602001925050506040516020818303038152906040528051906020012091505b600288049750602001611d09565b509094149695505050505050565b6000806000611db58460200151611e25565b602085015194519481019594039392505050565b8051600090611dda57506000610408565b60008090506000611dee8460200151611e25565b602085015185519181019250015b80821015611e1c57611e0d82611e88565b60019093019290910190611dfc565b50909392505050565b8051600090811a6080811015611e3f576000915050610408565b60b8811080611e5a575060c08110801590611e5a575060f881105b15611e69576001915050610408565b60c0811015611e7d5760b519019050610408565b60f519019050610408565b80516000908190811a6080811015611ea35760019150611b08565b60b8811015611eb857607e1981019150611b08565b60c0811015611ee55760b78103600185019450806020036101000a85510460018201810193505050611b08565b60f8811015611efa5760be1981019150611b08565b60019390930151602084900360f7016101000a900490920160f5190192915050565b80611f2657611a71565b5b60208110611f46578251825260209283019290910190601f1901611f27565b8015611a7157915181516020939093036101000a6000190180199091169216919091179052565b60008184841115611ffc5760405162461bcd60e51b81526004018080602001828103825283818151815260200191508051906020019080838360005b83811015611fc1578181015183820152602001611fa9565b50505050905090810190601f168015611fee5780820380516001836020036101000a031916815260200191505b509250505060405180910390fd5b505050900390565b6040518060200160405280606081525090565b60405180606001604052806060815260200160608152602001600081525090565b604051806040016040528061204b612058565b8152602001606081525090565b60405180604001604052806000815260200160008152509056fe456e756d657261626c655365743a20696e646578206f7574206f6620626f756e6473416363657373436f6e74726f6c3a2073656e646572206d75737420626520616e2061646d696e20746f206772616e74526f6f7454756e6e656c3a204241445f4e45575f434845434b504f494e545f4d414e41474552416363657373436f6e74726f6c3a2073656e646572206d75737420626520616e2061646d696e20746f207265766f6b65526f6f7454756e6e656c3a20455849545f414c52454144595f50524f434553534544526f6f7454756e6e656c3a20494e56414c49445f524543454950545f50524f4f46416363657373436f6e74726f6c3a2063616e206f6e6c792072656e6f756e636520726f6c657320666f722073656c66526f6f7454756e6e656c3a20494e56414c49445f4348494c445f54554e4e454c5f41444452455353a2646970667358221220112f5eab7afdeefd179ab24eac14b7cba12daf017a4f0af9fde5032d78901eeb64736f6c63430006060033",
  "immutableReferences": {},
  "source": "pragma solidity 0.6.6;\n\nimport {BaseRootTunnel} from \"../tunnel/BaseRootTunnel.sol\";\n\ncontract TestRootTunnel is BaseRootTunnel {\n    uint256 public receivedNumber;\n\n    event MessageReceivedFromChild(uint256);\n\n    function _processMessageFromChild(bytes memory message) internal override {\n        (uint256 n) = abi.decode(message, (uint256));\n        emit MessageReceivedFromChild(n);\n        receivedNumber = n;\n    }\n}\n",
  "sourcePath": "/home/moiz/NETSOl/Task-25, Bridge between polygon and ethereum (erc-20) Use-case 2/Ethereum_Polygon_Custom_Bridge_ERC20_Contracts_on_Testnet_without_status_Checks_Use_case_2/contracts/test/TestRootTunnel.sol",
  "compiler": {
    "name": "solc",
    "version": "0.6.6+commit.6c089d02.Emscripten.clang"
  },
  "schemaVersion": "3.4.8",
  "updatedAt": "2022-09-21T07:54:15.233Z",
  "networkType": "ethereum",
  "devdoc": {
    "methods": {
      "getRoleAdmin(bytes32)": {
        "details": "Returns the admin role that controls `role`. See {grantRole} and {revokeRole}.     * To change a role's admin, use {_setRoleAdmin}."
      },
      "getRoleMember(bytes32,uint256)": {
        "details": "Returns one of the accounts that have `role`. `index` must be a value between 0 and {getRoleMemberCount}, non-inclusive.     * Role bearers are not sorted in any particular way, and their ordering may change at any point.     * WARNING: When using {getRoleMember} and {getRoleMemberCount}, make sure you perform all queries on the same block. See the following https://forum.openzeppelin.com/t/iterating-over-elements-on-enumerableset-in-openzeppelin-contracts/2296[forum post] for more information."
      },
      "getRoleMemberCount(bytes32)": {
        "details": "Returns the number of accounts that have `role`. Can be used together with {getRoleMember} to enumerate all bearers of a role."
      },
      "grantRole(bytes32,address)": {
        "details": "Grants `role` to `account`.     * If `account` had not been already granted `role`, emits a {RoleGranted} event.     * Requirements:     * - the caller must have ``role``'s admin role."
      },
      "hasRole(bytes32,address)": {
        "details": "Returns `true` if `account` has been granted `role`."
      },
      "receiveMessage(bytes)": {
        "details": "This function verifies if the transaction actually happened on child chain",
        "params": {
          "inputData": "RLP encoded data of the reference tx containing following list of fields 0 - headerNumber - Checkpoint header block number containing the reference tx 1 - blockProof - Proof that the block header (in the child chain) is a leaf in the submitted merkle root 2 - blockNumber - Block number containing the reference tx on child chain 3 - blockTime - Reference tx block time 4 - txRoot - Transactions root of block 5 - receiptRoot - Receipts root of block 6 - receipt - Receipt of the reference transaction 7 - receiptProof - Merkle proof of the reference receipt 8 - branchMask - 32 bits denoting the path of receipt in merkle tree 9 - receiptLogIndex - Log Index to read from the receipt"
        }
      },
      "renounceRole(bytes32,address)": {
        "details": "Revokes `role` from the calling account.     * Roles are often managed via {grantRole} and {revokeRole}: this function's purpose is to provide a mechanism for accounts to lose their privileges if they are compromised (such as when a trusted device is misplaced).     * If the calling account had been granted `role`, emits a {RoleRevoked} event.     * Requirements:     * - the caller must be `account`."
      },
      "revokeRole(bytes32,address)": {
        "details": "Revokes `role` from `account`.     * If `account` had been granted `role`, emits a {RoleRevoked} event.     * Requirements:     * - the caller must have ``role``'s admin role."
      },
      "setCheckpointManager(address)": {
        "details": "This should be the plasma contract responsible for keeping track of checkpoints",
        "params": {
          "newCheckpointManager": "address of checkpoint manager contract"
        }
      },
      "setChildTunnel(address)": {
        "details": "This should be the contract responsible to receive data bytes on child chain",
        "params": {
          "newChildTunnel": "address of child tunnel contract"
        }
      },
      "setStateSender(address)": {
        "details": "This should be the state sender from plasma contracts It is used to send bytes from root to child chain",
        "params": {
          "newStateSender": "address of state sender contract"
        }
      }
    }
  },
  "userdoc": {
    "methods": {
      "receiveMessage(bytes)": {
        "notice": "receive message from  L2 to L1, validated by proof"
      },
      "setCheckpointManager(address)": {
        "notice": "Set the checkpoint manager, callable only by admins"
      },
      "setChildTunnel(address)": {
        "notice": "Set the child chain tunnel, callable only by admins"
      },
      "setStateSender(address)": {
        "notice": "Set the state sender, callable only by admins"
      }
    }
  }
}