{
  "contractName": "TestUChildERC20",
  "abi": [
    {
      "anonymous": false,
      "inputs": [
        {
          "indexed": true,
          "internalType": "address",
          "name": "owner",
          "type": "address"
        },
        {
          "indexed": true,
          "internalType": "address",
          "name": "spender",
          "type": "address"
        },
        {
          "indexed": false,
          "internalType": "uint256",
          "name": "value",
          "type": "uint256"
        }
      ],
      "name": "Approval",
      "type": "event"
    },
    {
      "anonymous": false,
      "inputs": [
        {
          "indexed": false,
          "internalType": "address",
          "name": "userAddress",
          "type": "address"
        },
        {
          "indexed": false,
          "internalType": "address payable",
          "name": "relayerAddress",
          "type": "address"
        },
        {
          "indexed": false,
          "internalType": "bytes",
          "name": "functionSignature",
          "type": "bytes"
        }
      ],
      "name": "MetaTransactionExecuted",
      "type": "event"
    },
    {
      "anonymous": false,
      "inputs": [
        {
          "indexed": true,
          "internalType": "bytes32",
          "name": "role",
          "type": "bytes32"
        },
        {
          "indexed": true,
          "internalType": "bytes32",
          "name": "previousAdminRole",
          "type": "bytes32"
        },
        {
          "indexed": true,
          "internalType": "bytes32",
          "name": "newAdminRole",
          "type": "bytes32"
        }
      ],
      "name": "RoleAdminChanged",
      "type": "event"
    },
    {
      "anonymous": false,
      "inputs": [
        {
          "indexed": true,
          "internalType": "bytes32",
          "name": "role",
          "type": "bytes32"
        },
        {
          "indexed": true,
          "internalType": "address",
          "name": "account",
          "type": "address"
        },
        {
          "indexed": true,
          "internalType": "address",
          "name": "sender",
          "type": "address"
        }
      ],
      "name": "RoleGranted",
      "type": "event"
    },
    {
      "anonymous": false,
      "inputs": [
        {
          "indexed": true,
          "internalType": "bytes32",
          "name": "role",
          "type": "bytes32"
        },
        {
          "indexed": true,
          "internalType": "address",
          "name": "account",
          "type": "address"
        },
        {
          "indexed": true,
          "internalType": "address",
          "name": "sender",
          "type": "address"
        }
      ],
      "name": "RoleRevoked",
      "type": "event"
    },
    {
      "anonymous": false,
      "inputs": [
        {
          "indexed": true,
          "internalType": "address",
          "name": "from",
          "type": "address"
        },
        {
          "indexed": true,
          "internalType": "address",
          "name": "to",
          "type": "address"
        },
        {
          "indexed": false,
          "internalType": "uint256",
          "name": "value",
          "type": "uint256"
        }
      ],
      "name": "Transfer",
      "type": "event"
    },
    {
      "inputs": [],
      "name": "DEFAULT_ADMIN_ROLE",
      "outputs": [
        {
          "internalType": "bytes32",
          "name": "",
          "type": "bytes32"
        }
      ],
      "stateMutability": "view",
      "type": "function"
    },
    {
      "inputs": [],
      "name": "DEPOSITOR_ROLE",
      "outputs": [
        {
          "internalType": "bytes32",
          "name": "",
          "type": "bytes32"
        }
      ],
      "stateMutability": "view",
      "type": "function"
    },
    {
      "inputs": [],
      "name": "ERC712_VERSION",
      "outputs": [
        {
          "internalType": "string",
          "name": "",
          "type": "string"
        }
      ],
      "stateMutability": "view",
      "type": "function"
    },
    {
      "inputs": [
        {
          "internalType": "address",
          "name": "owner",
          "type": "address"
        },
        {
          "internalType": "address",
          "name": "spender",
          "type": "address"
        }
      ],
      "name": "allowance",
      "outputs": [
        {
          "internalType": "uint256",
          "name": "",
          "type": "uint256"
        }
      ],
      "stateMutability": "view",
      "type": "function"
    },
    {
      "inputs": [
        {
          "internalType": "address",
          "name": "spender",
          "type": "address"
        },
        {
          "internalType": "uint256",
          "name": "amount",
          "type": "uint256"
        }
      ],
      "name": "approve",
      "outputs": [
        {
          "internalType": "bool",
          "name": "",
          "type": "bool"
        }
      ],
      "stateMutability": "nonpayable",
      "type": "function"
    },
    {
      "inputs": [
        {
          "internalType": "address",
          "name": "account",
          "type": "address"
        }
      ],
      "name": "balanceOf",
      "outputs": [
        {
          "internalType": "uint256",
          "name": "",
          "type": "uint256"
        }
      ],
      "stateMutability": "view",
      "type": "function"
    },
    {
      "inputs": [
        {
          "internalType": "string",
          "name": "name_",
          "type": "string"
        }
      ],
      "name": "changeName",
      "outputs": [],
      "stateMutability": "nonpayable",
      "type": "function"
    },
    {
      "inputs": [],
      "name": "decimals",
      "outputs": [
        {
          "internalType": "uint8",
          "name": "",
          "type": "uint8"
        }
      ],
      "stateMutability": "view",
      "type": "function"
    },
    {
      "inputs": [
        {
          "internalType": "address",
          "name": "spender",
          "type": "address"
        },
        {
          "internalType": "uint256",
          "name": "subtractedValue",
          "type": "uint256"
        }
      ],
      "name": "decreaseAllowance",
      "outputs": [
        {
          "internalType": "bool",
          "name": "",
          "type": "bool"
        }
      ],
      "stateMutability": "nonpayable",
      "type": "function"
    },
    {
      "inputs": [
        {
          "internalType": "address",
          "name": "user",
          "type": "address"
        },
        {
          "internalType": "bytes",
          "name": "depositData",
          "type": "bytes"
        }
      ],
      "name": "deposit",
      "outputs": [],
      "stateMutability": "nonpayable",
      "type": "function"
    },
    {
      "inputs": [
        {
          "internalType": "address",
          "name": "userAddress",
          "type": "address"
        },
        {
          "internalType": "bytes",
          "name": "functionSignature",
          "type": "bytes"
        },
        {
          "internalType": "bytes32",
          "name": "sigR",
          "type": "bytes32"
        },
        {
          "internalType": "bytes32",
          "name": "sigS",
          "type": "bytes32"
        },
        {
          "internalType": "uint8",
          "name": "sigV",
          "type": "uint8"
        }
      ],
      "name": "executeMetaTransaction",
      "outputs": [
        {
          "internalType": "bytes",
          "name": "",
          "type": "bytes"
        }
      ],
      "stateMutability": "payable",
      "type": "function"
    },
    {
      "inputs": [],
      "name": "getChainId",
      "outputs": [
        {
          "internalType": "uint256",
          "name": "",
          "type": "uint256"
        }
      ],
      "stateMutability": "pure",
      "type": "function"
    },
    {
      "inputs": [],
      "name": "getDomainSeperator",
      "outputs": [
        {
          "internalType": "bytes32",
          "name": "",
          "type": "bytes32"
        }
      ],
      "stateMutability": "view",
      "type": "function"
    },
    {
      "inputs": [
        {
          "internalType": "address",
          "name": "user",
          "type": "address"
        }
      ],
      "name": "getNonce",
      "outputs": [
        {
          "internalType": "uint256",
          "name": "nonce",
          "type": "uint256"
        }
      ],
      "stateMutability": "view",
      "type": "function"
    },
    {
      "inputs": [
        {
          "internalType": "bytes32",
          "name": "role",
          "type": "bytes32"
        }
      ],
      "name": "getRoleAdmin",
      "outputs": [
        {
          "internalType": "bytes32",
          "name": "",
          "type": "bytes32"
        }
      ],
      "stateMutability": "view",
      "type": "function"
    },
    {
      "inputs": [
        {
          "internalType": "bytes32",
          "name": "role",
          "type": "bytes32"
        },
        {
          "internalType": "uint256",
          "name": "index",
          "type": "uint256"
        }
      ],
      "name": "getRoleMember",
      "outputs": [
        {
          "internalType": "address",
          "name": "",
          "type": "address"
        }
      ],
      "stateMutability": "view",
      "type": "function"
    },
    {
      "inputs": [
        {
          "internalType": "bytes32",
          "name": "role",
          "type": "bytes32"
        }
      ],
      "name": "getRoleMemberCount",
      "outputs": [
        {
          "internalType": "uint256",
          "name": "",
          "type": "uint256"
        }
      ],
      "stateMutability": "view",
      "type": "function"
    },
    {
      "inputs": [
        {
          "internalType": "bytes32",
          "name": "role",
          "type": "bytes32"
        },
        {
          "internalType": "address",
          "name": "account",
          "type": "address"
        }
      ],
      "name": "grantRole",
      "outputs": [],
      "stateMutability": "nonpayable",
      "type": "function"
    },
    {
      "inputs": [
        {
          "internalType": "bytes32",
          "name": "role",
          "type": "bytes32"
        },
        {
          "internalType": "address",
          "name": "account",
          "type": "address"
        }
      ],
      "name": "hasRole",
      "outputs": [
        {
          "internalType": "bool",
          "name": "",
          "type": "bool"
        }
      ],
      "stateMutability": "view",
      "type": "function"
    },
    {
      "inputs": [
        {
          "internalType": "address",
          "name": "spender",
          "type": "address"
        },
        {
          "internalType": "uint256",
          "name": "addedValue",
          "type": "uint256"
        }
      ],
      "name": "increaseAllowance",
      "outputs": [
        {
          "internalType": "bool",
          "name": "",
          "type": "bool"
        }
      ],
      "stateMutability": "nonpayable",
      "type": "function"
    },
    {
      "inputs": [
        {
          "internalType": "string",
          "name": "name_",
          "type": "string"
        },
        {
          "internalType": "string",
          "name": "symbol_",
          "type": "string"
        },
        {
          "internalType": "uint8",
          "name": "decimals_",
          "type": "uint8"
        },
        {
          "internalType": "address",
          "name": "childChainManager",
          "type": "address"
        }
      ],
      "name": "initialize",
      "outputs": [],
      "stateMutability": "nonpayable",
      "type": "function"
    },
    {
      "inputs": [],
      "name": "name",
      "outputs": [
        {
          "internalType": "string",
          "name": "",
          "type": "string"
        }
      ],
      "stateMutability": "view",
      "type": "function"
    },
    {
      "inputs": [
        {
          "internalType": "bytes32",
          "name": "role",
          "type": "bytes32"
        },
        {
          "internalType": "address",
          "name": "account",
          "type": "address"
        }
      ],
      "name": "renounceRole",
      "outputs": [],
      "stateMutability": "nonpayable",
      "type": "function"
    },
    {
      "inputs": [
        {
          "internalType": "bytes32",
          "name": "role",
          "type": "bytes32"
        },
        {
          "internalType": "address",
          "name": "account",
          "type": "address"
        }
      ],
      "name": "revokeRole",
      "outputs": [],
      "stateMutability": "nonpayable",
      "type": "function"
    },
    {
      "inputs": [],
      "name": "symbol",
      "outputs": [
        {
          "internalType": "string",
          "name": "",
          "type": "string"
        }
      ],
      "stateMutability": "view",
      "type": "function"
    },
    {
      "inputs": [],
      "name": "totalSupply",
      "outputs": [
        {
          "internalType": "uint256",
          "name": "",
          "type": "uint256"
        }
      ],
      "stateMutability": "view",
      "type": "function"
    },
    {
      "inputs": [
        {
          "internalType": "address",
          "name": "recipient",
          "type": "address"
        },
        {
          "internalType": "uint256",
          "name": "amount",
          "type": "uint256"
        }
      ],
      "name": "transfer",
      "outputs": [
        {
          "internalType": "bool",
          "name": "",
          "type": "bool"
        }
      ],
      "stateMutability": "nonpayable",
      "type": "function"
    },
    {
      "inputs": [
        {
          "internalType": "address",
          "name": "sender",
          "type": "address"
        },
        {
          "internalType": "address",
          "name": "recipient",
          "type": "address"
        },
        {
          "internalType": "uint256",
          "name": "amount",
          "type": "uint256"
        }
      ],
      "name": "transferFrom",
      "outputs": [
        {
          "internalType": "bool",
          "name": "",
          "type": "bool"
        }
      ],
      "stateMutability": "nonpayable",
      "type": "function"
    },
    {
      "inputs": [
        {
          "internalType": "uint256",
          "name": "amount",
          "type": "uint256"
        }
      ],
      "name": "withdraw",
      "outputs": [],
      "stateMutability": "nonpayable",
      "type": "function"
    },
    {
      "inputs": [],
      "name": "magic",
      "outputs": [
        {
          "internalType": "string",
          "name": "",
          "type": "string"
        }
      ],
      "stateMutability": "pure",
      "type": "function"
    }
  ],
  "bytecode": "0x6008805460ff191690556000608081815260c060405260a082815290916200002c90600390839062000058565b5080516200004290600490602084019062000058565b50506005805460ff1916601217905550620000fd565b828054600181600116156101000203166002900490600052602060002090601f016020900481019282601f106200009b57805160ff1916838001178555620000cb565b82800160010185558215620000cb579182015b82811115620000cb578251825591602001919060010190620000ae565b50620000d9929150620000dd565b5090565b620000fa91905b80821115620000d95760008155600101620000e4565b90565b612536806200010d6000396000f3fe6080604052600436106101cd5760003560e01c806339509351116100f7578063a3b0b5a311610095578063cf2c52cb11610064578063cf2c52cb14610796578063d547741f14610821578063dd62ed3e1461085a578063de7ea79d14610895576101cd565b8063a3b0b5a3146106e5578063a457c2d7146106fa578063a9059cbb14610733578063ca15c8731461076c576101cd565b80639010d07c116100d15780639010d07c1461063657806391d148541461068257806395d89b41146106bb578063a217fddf146106d0576101cd565b8063395093511461054f5780635353a2d81461058857806370a0823114610603576101cd565b806323b872dd1161016f5780632f2ff15d1161013e5780632f2ff15d1461049d578063313ce567146104d65780633408e4701461050157806336568abe14610516576101cd565b806323b872dd146103d1578063248a9ca3146104145780632d0335ab1461043e5780632e1a7d4d14610471576101cd565b80630d854646116101ab5780630d8546461461036b5780630f7e59701461038057806318160ddd1461039557806320379ee5146103bc576101cd565b806306fdde03146101d2578063095ea7b31461025c5780630c53c51c146102a9575b600080fd5b3480156101de57600080fd5b506101e7610972565b6040805160208082528351818301528351919283929083019185019080838360005b83811015610221578181015183820152602001610209565b50505050905090810190601f16801561024e5780820380516001836020036101000a031916815260200191505b509250505060405180910390f35b34801561026857600080fd5b506102956004803603604081101561027f57600080fd5b506001600160a01b038135169060200135610a09565b604080519115158252519081900360200190f35b6101e7600480360360a08110156102bf57600080fd5b6001600160a01b038235169190810190604081016020820135600160201b8111156102e957600080fd5b8201836020820111156102fb57600080fd5b803590602001918460018302840111600160201b8311171561031c57600080fd5b91908080601f016020809104026020016040519081016040528093929190818152602001838380828437600092019190915250929550508235935050506020810135906040013560ff16610a27565b34801561037757600080fd5b506101e7610d2a565b34801561038c57600080fd5b506101e7610d49565b3480156103a157600080fd5b506103aa610d66565b60408051918252519081900360200190f35b3480156103c857600080fd5b506103aa610d6c565b3480156103dd57600080fd5b50610295600480360360608110156103f457600080fd5b506001600160a01b03813581169160208101359091169060400135610d72565b34801561042057600080fd5b506103aa6004803603602081101561043757600080fd5b5035610dff565b34801561044a57600080fd5b506103aa6004803603602081101561046157600080fd5b50356001600160a01b0316610e14565b34801561047d57600080fd5b5061049b6004803603602081101561049457600080fd5b5035610e2f565b005b3480156104a957600080fd5b5061049b600480360360408110156104c057600080fd5b50803590602001356001600160a01b0316610e43565b3480156104e257600080fd5b506104eb610eaf565b6040805160ff9092168252519081900360200190f35b34801561050d57600080fd5b506103aa610eb8565b34801561052257600080fd5b5061049b6004803603604081101561053957600080fd5b50803590602001356001600160a01b0316610ebc565b34801561055b57600080fd5b506102956004803603604081101561057257600080fd5b506001600160a01b038135169060200135610f1d565b34801561059457600080fd5b5061049b600480360360208110156105ab57600080fd5b810190602081018135600160201b8111156105c557600080fd5b8201836020820111156105d757600080fd5b803590602001918460018302840111600160201b831117156105f857600080fd5b509092509050610f71565b34801561060f57600080fd5b506103aa6004803603602081101561062657600080fd5b50356001600160a01b03166110a3565b34801561064257600080fd5b506106666004803603604081101561065957600080fd5b50803590602001356110be565b604080516001600160a01b039092168252519081900360200190f35b34801561068e57600080fd5b50610295600480360360408110156106a557600080fd5b50803590602001356001600160a01b03166110e3565b3480156106c757600080fd5b506101e7611101565b3480156106dc57600080fd5b506103aa611162565b3480156106f157600080fd5b506103aa611167565b34801561070657600080fd5b506102956004803603604081101561071d57600080fd5b506001600160a01b03813516906020013561118d565b34801561073f57600080fd5b506102956004803603604081101561075657600080fd5b506001600160a01b0381351690602001356111fb565b34801561077857600080fd5b506103aa6004803603602081101561078f57600080fd5b503561120f565b3480156107a257600080fd5b5061049b600480360360408110156107b957600080fd5b6001600160a01b038235169190810190604081016020820135600160201b8111156107e357600080fd5b8201836020820111156107f557600080fd5b803590602001918460018302840111600160201b8311171561081657600080fd5b509092509050611226565b34801561082d57600080fd5b5061049b6004803603604081101561084457600080fd5b50803590602001356001600160a01b03166112e3565b34801561086657600080fd5b506103aa6004803603604081101561087d57600080fd5b506001600160a01b038135811691602001351661133c565b3480156108a157600080fd5b5061049b600480360360808110156108b857600080fd5b810190602081018135600160201b8111156108d257600080fd5b8201836020820111156108e457600080fd5b803590602001918460018302840111600160201b8311171561090557600080fd5b919390929091602081019035600160201b81111561092257600080fd5b82018360208201111561093457600080fd5b803590602001918460018302840111600160201b8311171561095557600080fd5b9193509150803560ff1690602001356001600160a01b0316611367565b60038054604080516020601f60026000196101006001881615020190951694909404938401819004810282018101909252828152606093909290918301828280156109fe5780601f106109d3576101008083540402835291602001916109fe565b820191906000526020600020905b8154815290600101906020018083116109e157829003601f168201915b505050505090505b90565b6000610a1d610a1661150b565b848461151a565b5060015b92915050565b6060610a31612172565b50604080516060810182526001600160a01b0388166000818152600a602090815290849020548352820152908101869052610a6f8782878787611606565b610aaa5760405162461bcd60e51b81526004018080602001828103825260218152602001806124226021913960400191505060405180910390fd5b6001600160a01b0387166000908152600a6020526040902054610ad490600163ffffffff6116e316565b6001600160a01b0388166000818152600a602090815260408083209490945583519283523383820181905260609484018581528b51958501959095528a517f5845892132946850460bff5a0083f71031bc5bf9aadcd40f1de79423eac9b10b958d9592948d94919260808501928601918190849084905b83811015610b63578181015183820152602001610b4b565b50505050905090810190601f168015610b905780820380516001836020036101000a031916815260200191505b5094505050505060405180910390a160006060306001600160a01b0316888a6040516020018083805190602001908083835b60208310610be15780518252601f199092019160209182019101610bc2565b6001836020036101000a038019825116818451168082178552505050505050905001826001600160a01b03166001600160a01b031660601b8152601401925050506040516020818303038152906040526040518082805190602001908083835b60208310610c605780518252601f199092019160209182019101610c41565b6001836020036101000a0380198251168184511680821785525050505050509050019150506000604051808303816000865af19150503d8060008114610cc2576040519150601f19603f3d011682016040523d82523d6000602084013e610cc7565b606091505b509150915081610d1e576040805162461bcd60e51b815260206004820152601c60248201527f46756e6374696f6e2063616c6c206e6f74207375636365737366756c00000000604482015290519081900360640190fd5b98975050505050505050565b6040805180820190915260058152646d6167696360d81b602082015290565b604051806040016040528060018152602001603160f81b81525081565b60025490565b60095490565b6000610d7f84848461173d565b610df584610d8b61150b565b610df0856040518060600160405280602881526020016123fa602891396001600160a01b038a16600090815260016020526040812090610dc961150b565b6001600160a01b03168152602081019190915260400160002054919063ffffffff6118a416565b61151a565b5060019392505050565b60009081526006602052604090206002015490565b6001600160a01b03166000908152600a602052604090205490565b610e40610e3a61150b565b8261193b565b50565b600082815260066020526040902060020154610e6690610e6161150b565b6110e3565b610ea15760405162461bcd60e51b815260040180806020018281038252602f81526020018061227a602f913960400191505060405180910390fd5b610eab8282611a43565b5050565b60055460ff1690565b4690565b610ec461150b565b6001600160a01b0316816001600160a01b031614610f135760405162461bcd60e51b815260040180806020018281038252602f8152602001806124d2602f913960400191505060405180910390fd5b610eab8282611ab2565b6000610a1d610f2a61150b565b84610df08560016000610f3b61150b565b6001600160a01b03908116825260208083019390935260409182016000908120918c16815292529020549063ffffffff6116e316565b6000610f7f81610e6161150b565b60079061101f5760405162461bcd60e51b81526020600482019081528254600260001961010060018416150201909116046024830181905290918291604490910190849080156110105780601f10610fe557610100808354040283529160200191611010565b820191906000526020600020905b815481529060010190602001808311610ff357829003601f168201915b50509250505060405180910390fd5b5061105f83838080601f016020809104026020016040519081016040528093929190818152602001838380828437600092019190915250611b2192505050565b61109e83838080601f016020809104026020016040519081016040528093929190818152602001838380828437600092019190915250611b3492505050565b505050565b6001600160a01b031660009081526020819052604090205490565b60008281526006602052604081206110dc908363ffffffff611bf016565b9392505050565b60008281526006602052604081206110dc908363ffffffff611bfc16565b60048054604080516020601f60026000196101006001881615020190951694909404938401819004810282018101909252828152606093909290918301828280156109fe5780601f106109d3576101008083540402835291602001916109fe565b600081565b604080516d4445504f5349544f525f524f4c4560901b8152905190819003600e01902081565b6000610a1d61119a61150b565b84610df0856040518060600160405280602581526020016124ad60259139600160006111c461150b565b6001600160a01b03908116825260208083019390935260409182016000908120918d1681529252902054919063ffffffff6118a416565b6000610a1d61120861150b565b848461173d565b6000818152600660205260408120610a2190611c11565b604080516d4445504f5349544f525f524f4c4560901b8152905190819003600e01902061125581610e6161150b565b6007906112bb5760405162461bcd60e51b81526020600482019081528254600260001961010060018416150201909116046024830181905290918291604490910190849080156110105780601f10610fe557610100808354040283529160200191611010565b506000838360208110156112ce57600080fd5b503590506112dc8582611c1c565b5050505050565b60008281526006602052604090206002015461130190610e6161150b565b610f135760405162461bcd60e51b81526004018080602001828103825260308152602001806123a56030913960400191505060405180910390fd5b6001600160a01b03918216600090815260016020908152604080832093909416825291909152205490565b60085460ff16156113b0576040805162461bcd60e51b815260206004820152600e60248201526d185b1c9958591e481a5b9a5d195960921b604482015290519081900360640190fd5b6113ef86868080601f016020809104026020016040519081016040528093929190818152602001838380828437600092019190915250611b2192505050565b61142e84848080601f016020809104026020016040519081016040528093929190818152602001838380828437600092019190915250611d1892505050565b61143782611d2b565b611478848460405160200180806410da1a5b1960da1b8152506005018383808284378083019250505092505050604051602081830303815290604052611d41565b61148a600061148561150b565b610ea1565b604080516d4445504f5349544f525f524f4c4560901b8152905190819003600e0190206114b79082610ea1565b6114f686868080601f016020809104026020016040519081016040528093929190818152602001838380828437600092019190915250611ddf92505050565b50506008805460ff1916600117905550505050565b6000611515611e41565b905090565b6001600160a01b03831661155f5760405162461bcd60e51b81526004018080602001828103825260248152602001806124896024913960400191505060405180910390fd5b6001600160a01b0382166115a45760405162461bcd60e51b815260040180806020018281038252602281526020018061230e6022913960400191505060405180910390fd5b6001600160a01b03808416600081815260016020908152604080832094871680845294825291829020859055815185815291517f8c5be1e5ebec7d5bd14f71427d1e84f3dd0314c0f7b2291e5b200ac8c7c3b9259281900390910190a3505050565b60006001600160a01b03861661164d5760405162461bcd60e51b81526004018080602001828103825260258152602001806123d56025913960400191505060405180910390fd5b600161166061165b87611e9e565b611f2a565b83868660405160008152602001604052604051808581526020018460ff1660ff1681526020018381526020018281526020019450505050506020604051602081039080840390855afa1580156116ba573d6000803e3d6000fd5b505050602060405103516001600160a01b0316866001600160a01b031614905095945050505050565b6000828201838110156110dc576040805162461bcd60e51b815260206004820152601b60248201527f536166654d6174683a206164646974696f6e206f766572666c6f770000000000604482015290519081900360640190fd5b6001600160a01b0383166117825760405162461bcd60e51b81526004018080602001828103825260258152602001806124646025913960400191505060405180910390fd5b6001600160a01b0382166117c75760405162461bcd60e51b81526004018080602001828103825260238152602001806122576023913960400191505060405180910390fd5b6117d283838361109e565b6118158160405180606001604052806026815260200161237f602691396001600160a01b038616600090815260208190526040902054919063ffffffff6118a416565b6001600160a01b03808516600090815260208190526040808220939093559084168152205461184a908263ffffffff6116e316565b6001600160a01b038084166000818152602081815260409182902094909455805185815290519193928716927fddf252ad1be2c89b69c2b068fc378daa952ba7f163c4a11628f55a4df523b3ef92918290030190a3505050565b600081848411156119335760405162461bcd60e51b81526004018080602001828103825283818151815260200191508051906020019080838360005b838110156118f85781810151838201526020016118e0565b50505050905090810190601f1680156119255780820380516001836020036101000a031916815260200191505b509250505060405180910390fd5b505050900390565b6001600160a01b0382166119805760405162461bcd60e51b81526004018080602001828103825260218152602001806124436021913960400191505060405180910390fd5b61198c8260008361109e565b6119cf816040518060600160405280602281526020016122a9602291396001600160a01b038516600090815260208190526040902054919063ffffffff6118a416565b6001600160a01b0383166000908152602081905260409020556002546119fb908263ffffffff611f7616565b6002556040805182815290516000916001600160a01b038516917fddf252ad1be2c89b69c2b068fc378daa952ba7f163c4a11628f55a4df523b3ef9181900360200190a35050565b6000828152600660205260409020611a61908263ffffffff611fb816565b15610eab57611a6e61150b565b6001600160a01b0316816001600160a01b0316837f2f8788117e7eff1d82e926ec794901d17c78024a50270940304540a733656f0d60405160405180910390a45050565b6000828152600660205260409020611ad0908263ffffffff611fcd16565b15610eab57611add61150b565b6001600160a01b0316816001600160a01b0316837ff6391f5c32d9c69d2a47ea670b442974b53935d1edc7fd64eb21e047a839171b60405160405180910390a45050565b8051610eab90600390602084019061219c565b6040518060800160405280604f8152602001612330604f913980516020918201208251838301206040805180820190915260018152603160f81b930192909252907fc89efdaa54c0f20c7adf612882df0950f5a951637e0307cdcb4c672f298b8bc630611b9f610eb8565b604080516020808201979097528082019590955260608501939093526001600160a01b03909116608084015260a0808401919091528151808403909101815260c09092019052805191012060095550565b60006110dc8383611fe2565b60006110dc836001600160a01b038416612046565b6000610a218261205e565b6001600160a01b038216611c77576040805162461bcd60e51b815260206004820152601f60248201527f45524332303a206d696e7420746f20746865207a65726f206164647265737300604482015290519081900360640190fd5b611c836000838361109e565b600254611c96908263ffffffff6116e316565b6002556001600160a01b038216600090815260208190526040902054611cc2908263ffffffff6116e316565b6001600160a01b0383166000818152602081815260408083209490945583518581529351929391927fddf252ad1be2c89b69c2b068fc378daa952ba7f163c4a11628f55a4df523b3ef9281900390910190a35050565b8051610eab90600490602084019061219c565b6005805460ff191660ff92909216919091179055565b806040516020018082805190602001908083835b60208310611d745780518252601f199092019160209182019101611d55565b51815160209384036101000a60001901801990921691161790527f3a20494e53554646494349454e545f5045524d495353494f4e530000000000009190930190815260408051808303600519018152601a90920190528051610eab955060079450920191905061219c565b60085460ff1615611e28576040805162461bcd60e51b815260206004820152600e60248201526d185b1c9958591e481a5b9a5d195960921b604482015290519081900360640190fd5b611e3181611b34565b506008805460ff19166001179055565b600033301415611e995760606000368080601f0160208091040260200160405190810160405280939291908181526020018383808284376000920191909152505050503601516001600160a01b03169150610a069050565b503390565b60006040518060800160405280604381526020016122cb60439139805190602001208260000151836020015184604001518051906020012060405160200180858152602001848152602001836001600160a01b03166001600160a01b03168152602001828152602001945050505050604051602081830303815290604052805190602001209050919050565b6000611f34610d6c565b82604051602001808061190160f01b81525060020183815260200182815260200192505050604051602081830303815290604052805190602001209050919050565b60006110dc83836040518060400160405280601e81526020017f536166654d6174683a207375627472616374696f6e206f766572666c6f7700008152506118a4565b60006110dc836001600160a01b038416612062565b60006110dc836001600160a01b0384166120ac565b815460009082106120245760405162461bcd60e51b81526004018080602001828103825260228152602001806122356022913960400191505060405180910390fd5b82600001828154811061203357fe5b9060005260206000200154905092915050565b60009081526001919091016020526040902054151590565b5490565b600061206e8383612046565b6120a457508154600181810184556000848152602080822090930184905584548482528286019093526040902091909155610a21565b506000610a21565b6000818152600183016020526040812054801561216857835460001980830191908101906000908790839081106120df57fe5b90600052602060002001549050808760000184815481106120fc57fe5b60009182526020808320909101929092558281526001898101909252604090209084019055865487908061212c57fe5b60019003818190600052602060002001600090559055866001016000878152602001908152602001600020600090556001945050505050610a21565b6000915050610a21565b60405180606001604052806000815260200160006001600160a01b03168152602001606081525090565b828054600181600116156101000203166002900490600052602060002090601f016020900481019282601f106121dd57805160ff191683800117855561220a565b8280016001018555821561220a579182015b8281111561220a5782518255916020019190600101906121ef565b5061221692915061221a565b5090565b610a0691905b80821115612216576000815560010161222056fe456e756d657261626c655365743a20696e646578206f7574206f6620626f756e647345524332303a207472616e7366657220746f20746865207a65726f2061646472657373416363657373436f6e74726f6c3a2073656e646572206d75737420626520616e2061646d696e20746f206772616e7445524332303a206275726e20616d6f756e7420657863656564732062616c616e63654d6574615472616e73616374696f6e2875696e74323536206e6f6e63652c616464726573732066726f6d2c62797465732066756e6374696f6e5369676e61747572652945524332303a20617070726f766520746f20746865207a65726f2061646472657373454950373132446f6d61696e28737472696e67206e616d652c737472696e672076657273696f6e2c6164647265737320766572696679696e67436f6e74726163742c627974657333322073616c742945524332303a207472616e7366657220616d6f756e7420657863656564732062616c616e6365416363657373436f6e74726f6c3a2073656e646572206d75737420626520616e2061646d696e20746f207265766f6b654e61746976654d6574615472616e73616374696f6e3a20494e56414c49445f5349474e455245524332303a207472616e7366657220616d6f756e74206578636565647320616c6c6f77616e63655369676e657220616e64207369676e617475726520646f206e6f74206d6174636845524332303a206275726e2066726f6d20746865207a65726f206164647265737345524332303a207472616e736665722066726f6d20746865207a65726f206164647265737345524332303a20617070726f76652066726f6d20746865207a65726f206164647265737345524332303a2064656372656173656420616c6c6f77616e63652062656c6f77207a65726f416363657373436f6e74726f6c3a2063616e206f6e6c792072656e6f756e636520726f6c657320666f722073656c66a2646970667358221220eb908778a0c52a6c12ca52898e828ff1ba79f7d15858df5c039a4c77f6c7257f64736f6c63430006060033",
  "immutableReferences": {},
  "source": "pragma solidity 0.6.6;\n\nimport {UChildERC20} from \"../child/ChildToken/UpgradeableChildERC20/UChildERC20.sol\";\n\ncontract TestUChildERC20 is UChildERC20 {\n    function magic() external pure returns (string memory) {\n      return \"magic\";\n    }\n}\n",
  "sourcePath": "/home/moiz/NETSOl/Task-25, Bridge between polygon and ethereum (erc-20) Use-case 2/Ethereum_Polygon_Custom_Bridge_ERC20_Contracts_on_Testnet_without_status_Checks_Use_case_2/contracts/test/TestUChildERC20.sol",
  "compiler": {
    "name": "solc",
    "version": "0.6.6+commit.6c089d02.Emscripten.clang"
  },
  "schemaVersion": "3.4.8",
  "updatedAt": "2022-09-21T07:45:21.981Z",
  "devdoc": {
    "methods": {
      "allowance(address,address)": {
        "details": "See {IERC20-allowance}."
      },
      "approve(address,uint256)": {
        "details": "See {IERC20-approve}.     * Requirements:     * - `spender` cannot be the zero address."
      },
      "balanceOf(address)": {
        "details": "See {IERC20-balanceOf}."
      },
      "decimals()": {
        "details": "Returns the number of decimals used to get its user representation. For example, if `decimals` equals `2`, a balance of `505` tokens should be displayed to a user as `5,05` (`505 / 10 ** 2`).     * Tokens usually opt for a value of 18, imitating the relationship between Ether and Wei. This is the value {ERC20} uses, unless {_setupDecimals} is called.     * NOTE: This information is only used for _display_ purposes: it in no way affects any of the arithmetic of the contract, including {IERC20-balanceOf} and {IERC20-transfer}."
      },
      "decreaseAllowance(address,uint256)": {
        "details": "Atomically decreases the allowance granted to `spender` by the caller.     * This is an alternative to {approve} that can be used as a mitigation for problems described in {IERC20-approve}.     * Emits an {Approval} event indicating the updated allowance.     * Requirements:     * - `spender` cannot be the zero address. - `spender` must have allowance for the caller of at least `subtractedValue`."
      },
      "deposit(address,bytes)": {
        "details": "Should be callable only by ChildChainManager Should handle deposit by minting the required amount for user Make sure minting is done only by this function",
        "params": {
          "depositData": "abi encoded amount",
          "user": "user address for whom deposit is being done"
        }
      },
      "getRoleAdmin(bytes32)": {
        "details": "Returns the admin role that controls `role`. See {grantRole} and {revokeRole}.     * To change a role's admin, use {_setRoleAdmin}."
      },
      "getRoleMember(bytes32,uint256)": {
        "details": "Returns one of the accounts that have `role`. `index` must be a value between 0 and {getRoleMemberCount}, non-inclusive.     * Role bearers are not sorted in any particular way, and their ordering may change at any point.     * WARNING: When using {getRoleMember} and {getRoleMemberCount}, make sure you perform all queries on the same block. See the following https://forum.openzeppelin.com/t/iterating-over-elements-on-enumerableset-in-openzeppelin-contracts/2296[forum post] for more information."
      },
      "getRoleMemberCount(bytes32)": {
        "details": "Returns the number of accounts that have `role`. Can be used together with {getRoleMember} to enumerate all bearers of a role."
      },
      "grantRole(bytes32,address)": {
        "details": "Grants `role` to `account`.     * If `account` had not been already granted `role`, emits a {RoleGranted} event.     * Requirements:     * - the caller must have ``role``'s admin role."
      },
      "hasRole(bytes32,address)": {
        "details": "Returns `true` if `account` has been granted `role`."
      },
      "increaseAllowance(address,uint256)": {
        "details": "Atomically increases the allowance granted to `spender` by the caller.     * This is an alternative to {approve} that can be used as a mitigation for problems described in {IERC20-approve}.     * Emits an {Approval} event indicating the updated allowance.     * Requirements:     * - `spender` cannot be the zero address."
      },
      "initialize(string,string,uint8,address)": {
        "details": "meant to be called once immediately after deployment"
      },
      "name()": {
        "details": "Returns the name of the token."
      },
      "renounceRole(bytes32,address)": {
        "details": "Revokes `role` from the calling account.     * Roles are often managed via {grantRole} and {revokeRole}: this function's purpose is to provide a mechanism for accounts to lose their privileges if they are compromised (such as when a trusted device is misplaced).     * If the calling account had been granted `role`, emits a {RoleRevoked} event.     * Requirements:     * - the caller must be `account`."
      },
      "revokeRole(bytes32,address)": {
        "details": "Revokes `role` from `account`.     * If `account` had been granted `role`, emits a {RoleRevoked} event.     * Requirements:     * - the caller must have ``role``'s admin role."
      },
      "symbol()": {
        "details": "Returns the symbol of the token, usually a shorter version of the name."
      },
      "totalSupply()": {
        "details": "See {IERC20-totalSupply}."
      },
      "transfer(address,uint256)": {
        "details": "See {IERC20-transfer}.     * Requirements:     * - `recipient` cannot be the zero address. - the caller must have a balance of at least `amount`."
      },
      "transferFrom(address,address,uint256)": {
        "details": "See {IERC20-transferFrom}.     * Emits an {Approval} event indicating the updated allowance. This is not required by the EIP. See the note at the beginning of {ERC20};     * Requirements: - `sender` and `recipient` cannot be the zero address. - `sender` must have a balance of at least `amount`. - the caller must have allowance for ``sender``'s tokens of at least `amount`."
      },
      "withdraw(uint256)": {
        "details": "Should burn user's tokens. This transaction will be verified when exiting on root chain",
        "params": {
          "amount": "amount of tokens to withdraw"
        }
      }
    }
  },
  "userdoc": {
    "methods": {
      "deposit(address,bytes)": {
        "notice": "called when token is deposited on root chain"
      },
      "initialize(string,string,uint8,address)": {
        "notice": "Initialize the contract after it has been proxified"
      },
      "withdraw(uint256)": {
        "notice": "called when user wants to withdraw tokens back to root chain"
      }
    }
  }
}