{
  "contractName": "UChildDAI",
  "abi": [
    {
      "anonymous": false,
      "inputs": [
        {
          "indexed": true,
          "internalType": "address",
          "name": "owner",
          "type": "address"
        },
        {
          "indexed": true,
          "internalType": "address",
          "name": "spender",
          "type": "address"
        },
        {
          "indexed": false,
          "internalType": "uint256",
          "name": "value",
          "type": "uint256"
        }
      ],
      "name": "Approval",
      "type": "event"
    },
    {
      "anonymous": false,
      "inputs": [
        {
          "indexed": false,
          "internalType": "address",
          "name": "userAddress",
          "type": "address"
        },
        {
          "indexed": false,
          "internalType": "address payable",
          "name": "relayerAddress",
          "type": "address"
        },
        {
          "indexed": false,
          "internalType": "bytes",
          "name": "functionSignature",
          "type": "bytes"
        }
      ],
      "name": "MetaTransactionExecuted",
      "type": "event"
    },
    {
      "anonymous": false,
      "inputs": [
        {
          "indexed": true,
          "internalType": "bytes32",
          "name": "role",
          "type": "bytes32"
        },
        {
          "indexed": true,
          "internalType": "bytes32",
          "name": "previousAdminRole",
          "type": "bytes32"
        },
        {
          "indexed": true,
          "internalType": "bytes32",
          "name": "newAdminRole",
          "type": "bytes32"
        }
      ],
      "name": "RoleAdminChanged",
      "type": "event"
    },
    {
      "anonymous": false,
      "inputs": [
        {
          "indexed": true,
          "internalType": "bytes32",
          "name": "role",
          "type": "bytes32"
        },
        {
          "indexed": true,
          "internalType": "address",
          "name": "account",
          "type": "address"
        },
        {
          "indexed": true,
          "internalType": "address",
          "name": "sender",
          "type": "address"
        }
      ],
      "name": "RoleGranted",
      "type": "event"
    },
    {
      "anonymous": false,
      "inputs": [
        {
          "indexed": true,
          "internalType": "bytes32",
          "name": "role",
          "type": "bytes32"
        },
        {
          "indexed": true,
          "internalType": "address",
          "name": "account",
          "type": "address"
        },
        {
          "indexed": true,
          "internalType": "address",
          "name": "sender",
          "type": "address"
        }
      ],
      "name": "RoleRevoked",
      "type": "event"
    },
    {
      "anonymous": false,
      "inputs": [
        {
          "indexed": true,
          "internalType": "address",
          "name": "from",
          "type": "address"
        },
        {
          "indexed": true,
          "internalType": "address",
          "name": "to",
          "type": "address"
        },
        {
          "indexed": false,
          "internalType": "uint256",
          "name": "value",
          "type": "uint256"
        }
      ],
      "name": "Transfer",
      "type": "event"
    },
    {
      "inputs": [],
      "name": "DEFAULT_ADMIN_ROLE",
      "outputs": [
        {
          "internalType": "bytes32",
          "name": "",
          "type": "bytes32"
        }
      ],
      "stateMutability": "view",
      "type": "function"
    },
    {
      "inputs": [],
      "name": "DEPOSITOR_ROLE",
      "outputs": [
        {
          "internalType": "bytes32",
          "name": "",
          "type": "bytes32"
        }
      ],
      "stateMutability": "view",
      "type": "function"
    },
    {
      "inputs": [],
      "name": "ERC712_VERSION",
      "outputs": [
        {
          "internalType": "string",
          "name": "",
          "type": "string"
        }
      ],
      "stateMutability": "view",
      "type": "function"
    },
    {
      "inputs": [],
      "name": "PERMIT_TYPEHASH",
      "outputs": [
        {
          "internalType": "bytes32",
          "name": "",
          "type": "bytes32"
        }
      ],
      "stateMutability": "view",
      "type": "function"
    },
    {
      "inputs": [
        {
          "internalType": "address",
          "name": "owner",
          "type": "address"
        },
        {
          "internalType": "address",
          "name": "spender",
          "type": "address"
        }
      ],
      "name": "allowance",
      "outputs": [
        {
          "internalType": "uint256",
          "name": "",
          "type": "uint256"
        }
      ],
      "stateMutability": "view",
      "type": "function"
    },
    {
      "inputs": [
        {
          "internalType": "address",
          "name": "spender",
          "type": "address"
        },
        {
          "internalType": "uint256",
          "name": "amount",
          "type": "uint256"
        }
      ],
      "name": "approve",
      "outputs": [
        {
          "internalType": "bool",
          "name": "",
          "type": "bool"
        }
      ],
      "stateMutability": "nonpayable",
      "type": "function"
    },
    {
      "inputs": [
        {
          "internalType": "address",
          "name": "account",
          "type": "address"
        }
      ],
      "name": "balanceOf",
      "outputs": [
        {
          "internalType": "uint256",
          "name": "",
          "type": "uint256"
        }
      ],
      "stateMutability": "view",
      "type": "function"
    },
    {
      "inputs": [
        {
          "internalType": "string",
          "name": "name_",
          "type": "string"
        }
      ],
      "name": "changeName",
      "outputs": [],
      "stateMutability": "nonpayable",
      "type": "function"
    },
    {
      "inputs": [],
      "name": "decimals",
      "outputs": [
        {
          "internalType": "uint8",
          "name": "",
          "type": "uint8"
        }
      ],
      "stateMutability": "view",
      "type": "function"
    },
    {
      "inputs": [
        {
          "internalType": "address",
          "name": "spender",
          "type": "address"
        },
        {
          "internalType": "uint256",
          "name": "subtractedValue",
          "type": "uint256"
        }
      ],
      "name": "decreaseAllowance",
      "outputs": [
        {
          "internalType": "bool",
          "name": "",
          "type": "bool"
        }
      ],
      "stateMutability": "nonpayable",
      "type": "function"
    },
    {
      "inputs": [
        {
          "internalType": "address",
          "name": "userAddress",
          "type": "address"
        },
        {
          "internalType": "bytes",
          "name": "functionSignature",
          "type": "bytes"
        },
        {
          "internalType": "bytes32",
          "name": "sigR",
          "type": "bytes32"
        },
        {
          "internalType": "bytes32",
          "name": "sigS",
          "type": "bytes32"
        },
        {
          "internalType": "uint8",
          "name": "sigV",
          "type": "uint8"
        }
      ],
      "name": "executeMetaTransaction",
      "outputs": [
        {
          "internalType": "bytes",
          "name": "",
          "type": "bytes"
        }
      ],
      "stateMutability": "payable",
      "type": "function"
    },
    {
      "inputs": [],
      "name": "getChainId",
      "outputs": [
        {
          "internalType": "uint256",
          "name": "",
          "type": "uint256"
        }
      ],
      "stateMutability": "pure",
      "type": "function"
    },
    {
      "inputs": [],
      "name": "getDomainSeperator",
      "outputs": [
        {
          "internalType": "bytes32",
          "name": "",
          "type": "bytes32"
        }
      ],
      "stateMutability": "view",
      "type": "function"
    },
    {
      "inputs": [
        {
          "internalType": "address",
          "name": "user",
          "type": "address"
        }
      ],
      "name": "getNonce",
      "outputs": [
        {
          "internalType": "uint256",
          "name": "nonce",
          "type": "uint256"
        }
      ],
      "stateMutability": "view",
      "type": "function"
    },
    {
      "inputs": [
        {
          "internalType": "bytes32",
          "name": "role",
          "type": "bytes32"
        }
      ],
      "name": "getRoleAdmin",
      "outputs": [
        {
          "internalType": "bytes32",
          "name": "",
          "type": "bytes32"
        }
      ],
      "stateMutability": "view",
      "type": "function"
    },
    {
      "inputs": [
        {
          "internalType": "bytes32",
          "name": "role",
          "type": "bytes32"
        },
        {
          "internalType": "uint256",
          "name": "index",
          "type": "uint256"
        }
      ],
      "name": "getRoleMember",
      "outputs": [
        {
          "internalType": "address",
          "name": "",
          "type": "address"
        }
      ],
      "stateMutability": "view",
      "type": "function"
    },
    {
      "inputs": [
        {
          "internalType": "bytes32",
          "name": "role",
          "type": "bytes32"
        }
      ],
      "name": "getRoleMemberCount",
      "outputs": [
        {
          "internalType": "uint256",
          "name": "",
          "type": "uint256"
        }
      ],
      "stateMutability": "view",
      "type": "function"
    },
    {
      "inputs": [
        {
          "internalType": "bytes32",
          "name": "role",
          "type": "bytes32"
        },
        {
          "internalType": "address",
          "name": "account",
          "type": "address"
        }
      ],
      "name": "grantRole",
      "outputs": [],
      "stateMutability": "nonpayable",
      "type": "function"
    },
    {
      "inputs": [
        {
          "internalType": "bytes32",
          "name": "role",
          "type": "bytes32"
        },
        {
          "internalType": "address",
          "name": "account",
          "type": "address"
        }
      ],
      "name": "hasRole",
      "outputs": [
        {
          "internalType": "bool",
          "name": "",
          "type": "bool"
        }
      ],
      "stateMutability": "view",
      "type": "function"
    },
    {
      "inputs": [
        {
          "internalType": "address",
          "name": "spender",
          "type": "address"
        },
        {
          "internalType": "uint256",
          "name": "addedValue",
          "type": "uint256"
        }
      ],
      "name": "increaseAllowance",
      "outputs": [
        {
          "internalType": "bool",
          "name": "",
          "type": "bool"
        }
      ],
      "stateMutability": "nonpayable",
      "type": "function"
    },
    {
      "inputs": [
        {
          "internalType": "string",
          "name": "name_",
          "type": "string"
        },
        {
          "internalType": "string",
          "name": "symbol_",
          "type": "string"
        },
        {
          "internalType": "uint8",
          "name": "decimals_",
          "type": "uint8"
        },
        {
          "internalType": "address",
          "name": "childChainManager",
          "type": "address"
        }
      ],
      "name": "initialize",
      "outputs": [],
      "stateMutability": "nonpayable",
      "type": "function"
    },
    {
      "inputs": [],
      "name": "name",
      "outputs": [
        {
          "internalType": "string",
          "name": "",
          "type": "string"
        }
      ],
      "stateMutability": "view",
      "type": "function"
    },
    {
      "inputs": [
        {
          "internalType": "bytes32",
          "name": "role",
          "type": "bytes32"
        },
        {
          "internalType": "address",
          "name": "account",
          "type": "address"
        }
      ],
      "name": "renounceRole",
      "outputs": [],
      "stateMutability": "nonpayable",
      "type": "function"
    },
    {
      "inputs": [
        {
          "internalType": "bytes32",
          "name": "role",
          "type": "bytes32"
        },
        {
          "internalType": "address",
          "name": "account",
          "type": "address"
        }
      ],
      "name": "revokeRole",
      "outputs": [],
      "stateMutability": "nonpayable",
      "type": "function"
    },
    {
      "inputs": [],
      "name": "symbol",
      "outputs": [
        {
          "internalType": "string",
          "name": "",
          "type": "string"
        }
      ],
      "stateMutability": "view",
      "type": "function"
    },
    {
      "inputs": [],
      "name": "totalSupply",
      "outputs": [
        {
          "internalType": "uint256",
          "name": "",
          "type": "uint256"
        }
      ],
      "stateMutability": "view",
      "type": "function"
    },
    {
      "inputs": [
        {
          "internalType": "address",
          "name": "user",
          "type": "address"
        },
        {
          "internalType": "bytes",
          "name": "depositData",
          "type": "bytes"
        },
        {
          "internalType": "address",
          "name": "childERC20Predicate",
          "type": "address"
        }
      ],
      "name": "transfer",
      "outputs": [],
      "stateMutability": "nonpayable",
      "type": "function"
    },
    {
      "inputs": [
        {
          "internalType": "address",
          "name": "recipient",
          "type": "address"
        },
        {
          "internalType": "uint256",
          "name": "amount",
          "type": "uint256"
        }
      ],
      "name": "transfer",
      "outputs": [
        {
          "internalType": "bool",
          "name": "",
          "type": "bool"
        }
      ],
      "stateMutability": "nonpayable",
      "type": "function"
    },
    {
      "inputs": [
        {
          "internalType": "address",
          "name": "sender",
          "type": "address"
        },
        {
          "internalType": "address",
          "name": "recipient",
          "type": "address"
        },
        {
          "internalType": "uint256",
          "name": "amount",
          "type": "uint256"
        }
      ],
      "name": "transferFrom",
      "outputs": [
        {
          "internalType": "bool",
          "name": "",
          "type": "bool"
        }
      ],
      "stateMutability": "nonpayable",
      "type": "function"
    },
    {
      "inputs": [
        {
          "internalType": "address",
          "name": "usr",
          "type": "address"
        },
        {
          "internalType": "uint256",
          "name": "wad",
          "type": "uint256"
        }
      ],
      "name": "push",
      "outputs": [],
      "stateMutability": "nonpayable",
      "type": "function"
    },
    {
      "inputs": [
        {
          "internalType": "address",
          "name": "usr",
          "type": "address"
        },
        {
          "internalType": "uint256",
          "name": "wad",
          "type": "uint256"
        }
      ],
      "name": "pull",
      "outputs": [],
      "stateMutability": "nonpayable",
      "type": "function"
    },
    {
      "inputs": [
        {
          "internalType": "address",
          "name": "src",
          "type": "address"
        },
        {
          "internalType": "address",
          "name": "dst",
          "type": "address"
        },
        {
          "internalType": "uint256",
          "name": "wad",
          "type": "uint256"
        }
      ],
      "name": "move",
      "outputs": [],
      "stateMutability": "nonpayable",
      "type": "function"
    },
    {
      "inputs": [
        {
          "internalType": "address",
          "name": "holder",
          "type": "address"
        },
        {
          "internalType": "address",
          "name": "spender",
          "type": "address"
        },
        {
          "internalType": "uint256",
          "name": "nonce",
          "type": "uint256"
        },
        {
          "internalType": "uint256",
          "name": "expiry",
          "type": "uint256"
        },
        {
          "internalType": "bool",
          "name": "allowed",
          "type": "bool"
        },
        {
          "internalType": "uint8",
          "name": "v",
          "type": "uint8"
        },
        {
          "internalType": "bytes32",
          "name": "r",
          "type": "bytes32"
        },
        {
          "internalType": "bytes32",
          "name": "s",
          "type": "bytes32"
        }
      ],
      "name": "permit",
      "outputs": [],
      "stateMutability": "nonpayable",
      "type": "function"
    }
  ],
  "bytecode": "0x6008805460ff191690556000608081815260c060405260a082815290916200002c90600390839062000058565b5080516200004290600490602084019062000058565b50506005805460ff1916601217905550620000fd565b828054600181600116156101000203166002900490600052602060002090601f016020900481019282601f106200009b57805160ff1916838001178555620000cb565b82800160010185558215620000cb579182015b82811115620000cb578251825591602001919060010190620000ae565b50620000d9929150620000dd565b5090565b620000fa91905b80821115620000d95760008155600101620000e4565b90565b6126c4806200010d6000396000f3fe6080604052600436106101ee5760003560e01c80635353a2d81161010d578063a457c2d7116100a0578063ca15c8731161006f578063ca15c873146108da578063d547741f14610904578063dd62ed3e1461093d578063de7ea79d14610978578063f2d5d56b14610a55576101ee565b8063a457c2d7146107ec578063a9059cbb14610825578063b753a98c1461085e578063bb35783b14610897576101ee565b806391d14854116100dc57806391d148541461077457806395d89b41146107ad578063a217fddf146107c2578063a3b0b5a3146107d7576101ee565b80635353a2d81461061357806370a082311461068e5780638fcbaf0c146106c15780639010d07c14610728576101ee565b80632d0335ab116101855780633408e470116101545780633408e470146104f857806336568abe1461050d578063395093511461054657806349d5f3f21461057f576101ee565b80632d0335ab1461044a5780632f2ff15d1461047d57806330adf81f146104b8578063313ce567146104cd576101ee565b806318160ddd116101c157806318160ddd146103a157806320379ee5146103c857806323b872dd146103dd578063248a9ca314610420576101ee565b806306fdde03146101f3578063095ea7b31461027d5780630c53c51c146102ca5780630f7e59701461038c575b600080fd5b3480156101ff57600080fd5b50610208610a8e565b6040805160208082528351818301528351919283929083019185019080838360005b8381101561024257818101518382015260200161022a565b50505050905090810190601f16801561026f5780820380516001836020036101000a031916815260200191505b509250505060405180910390f35b34801561028957600080fd5b506102b6600480360360408110156102a057600080fd5b506001600160a01b038135169060200135610b25565b604080519115158252519081900360200190f35b610208600480360360a08110156102e057600080fd5b6001600160a01b038235169190810190604081016020820135600160201b81111561030a57600080fd5b82018360208201111561031c57600080fd5b803590602001918460018302840111600160201b8311171561033d57600080fd5b91908080601f016020809104026020016040519081016040528093929190818152602001838380828437600092019190915250929550508235935050506020810135906040013560ff16610b43565b34801561039857600080fd5b50610208610e46565b3480156103ad57600080fd5b506103b6610e63565b60408051918252519081900360200190f35b3480156103d457600080fd5b506103b6610e69565b3480156103e957600080fd5b506102b66004803603606081101561040057600080fd5b506001600160a01b03813581169160208101359091169060400135610e6f565b34801561042c57600080fd5b506103b66004803603602081101561044357600080fd5b5035610efc565b34801561045657600080fd5b506103b66004803603602081101561046d57600080fd5b50356001600160a01b0316610f11565b34801561048957600080fd5b506104b6600480360360408110156104a057600080fd5b50803590602001356001600160a01b0316610f2c565b005b3480156104c457600080fd5b506103b6610f98565b3480156104d957600080fd5b506104e2610fbc565b6040805160ff9092168252519081900360200190f35b34801561050457600080fd5b506103b6610fc5565b34801561051957600080fd5b506104b66004803603604081101561053057600080fd5b50803590602001356001600160a01b0316610fc9565b34801561055257600080fd5b506102b66004803603604081101561056957600080fd5b506001600160a01b03813516906020013561102a565b34801561058b57600080fd5b506104b6600480360360608110156105a257600080fd5b6001600160a01b038235169190810190604081016020820135600160201b8111156105cc57600080fd5b8201836020820111156105de57600080fd5b803590602001918460018302840111600160201b831117156105ff57600080fd5b9193509150356001600160a01b031661107e565b34801561061f57600080fd5b506104b66004803603602081101561063657600080fd5b810190602081018135600160201b81111561065057600080fd5b82018360208201111561066257600080fd5b803590602001918460018302840111600160201b8311171561068357600080fd5b509092509050611177565b34801561069a57600080fd5b506103b6600480360360208110156106b157600080fd5b50356001600160a01b031661126f565b3480156106cd57600080fd5b506104b660048036036101008110156106e557600080fd5b506001600160a01b038135811691602081013590911690604081013590606081013590608081013515159060ff60a0820135169060c08101359060e0013561128a565b34801561073457600080fd5b506107586004803603604081101561074b57600080fd5b5080359060200135611549565b604080516001600160a01b039092168252519081900360200190f35b34801561078057600080fd5b506102b66004803603604081101561079757600080fd5b50803590602001356001600160a01b031661156e565b3480156107b957600080fd5b5061020861158c565b3480156107ce57600080fd5b506103b66115ed565b3480156107e357600080fd5b506103b66115f2565b3480156107f857600080fd5b506102b66004803603604081101561080f57600080fd5b506001600160a01b038135169060200135611618565b34801561083157600080fd5b506102b66004803603604081101561084857600080fd5b506001600160a01b038135169060200135611686565b34801561086a57600080fd5b506104b66004803603604081101561088157600080fd5b506001600160a01b03813516906020013561169a565b3480156108a357600080fd5b506104b6600480360360608110156108ba57600080fd5b506001600160a01b038135811691602081013590911690604001356116a5565b3480156108e657600080fd5b506103b6600480360360208110156108fd57600080fd5b50356116b6565b34801561091057600080fd5b506104b66004803603604081101561092757600080fd5b50803590602001356001600160a01b03166116cd565b34801561094957600080fd5b506103b66004803603604081101561096057600080fd5b506001600160a01b0381358116916020013516611726565b34801561098457600080fd5b506104b66004803603608081101561099b57600080fd5b810190602081018135600160201b8111156109b557600080fd5b8201836020820111156109c757600080fd5b803590602001918460018302840111600160201b831117156109e857600080fd5b919390929091602081019035600160201b811115610a0557600080fd5b820183602082011115610a1757600080fd5b803590602001918460018302840111600160201b83111715610a3857600080fd5b9193509150803560ff1690602001356001600160a01b0316611751565b348015610a6157600080fd5b506104b660048036036040811015610a7857600080fd5b506001600160a01b0381351690602001356118f5565b60038054604080516020601f6002600019610100600188161502019095169490940493840181900481028201810190925282815260609390929091830182828015610b1a5780601f10610aef57610100808354040283529160200191610b1a565b820191906000526020600020905b815481529060010190602001808311610afd57829003601f168201915b505050505090505b90565b6000610b39610b32611900565b848461190f565b5060015b92915050565b6060610b4d612321565b50604080516060810182526001600160a01b0388166000818152600a602090815290849020548352820152908101869052610b8b87828787876119fb565b610bc65760405162461bcd60e51b81526004018080602001828103825260218152602001806125af6021913960400191505060405180910390fd5b6001600160a01b0387166000908152600a6020526040902054610bf090600163ffffffff611ad816565b6001600160a01b0388166000818152600a602090815260408083209490945583519283523383820181905260609484018581528b51958501959095528a517f5845892132946850460bff5a0083f71031bc5bf9aadcd40f1de79423eac9b10b958d9592948d94919260808501928601918190849084905b83811015610c7f578181015183820152602001610c67565b50505050905090810190601f168015610cac5780820380516001836020036101000a031916815260200191505b5094505050505060405180910390a160006060306001600160a01b0316888a6040516020018083805190602001908083835b60208310610cfd5780518252601f199092019160209182019101610cde565b6001836020036101000a038019825116818451168082178552505050505050905001826001600160a01b03166001600160a01b031660601b8152601401925050506040516020818303038152906040526040518082805190602001908083835b60208310610d7c5780518252601f199092019160209182019101610d5d565b6001836020036101000a0380198251168184511680821785525050505050509050019150506000604051808303816000865af19150503d8060008114610dde576040519150601f19603f3d011682016040523d82523d6000602084013e610de3565b606091505b509150915081610e3a576040805162461bcd60e51b815260206004820152601c60248201527f46756e6374696f6e2063616c6c206e6f74207375636365737366756c00000000604482015290519081900360640190fd5b98975050505050505050565b604051806040016040528060018152602001603160f81b81525081565b60025490565b60095490565b6000610e7c848484611b32565b610ef284610e88611900565b610eed85604051806060016040528060288152602001612587602891396001600160a01b038a16600090815260016020526040812090610ec6611900565b6001600160a01b03168152602081019190915260400160002054919063ffffffff611c9916565b61190f565b5060019392505050565b60009081526006602052604090206002015490565b6001600160a01b03166000908152600a602052604090205490565b600082815260066020526040902060020154610f4f90610f4a611900565b61156e565b610f8a5760405162461bcd60e51b815260040180806020018281038252602f815260200180612429602f913960400191505060405180910390fd5b610f948282611d30565b5050565b7fea2aa0a1be11a07ed86d755c93467f4f82362b452371d1ba94d1715123511acb81565b60055460ff1690565b4690565b610fd1611900565b6001600160a01b0316816001600160a01b0316146110205760405162461bcd60e51b815260040180806020018281038252602f81526020018061263e602f913960400191505060405180910390fd5b610f948282611d9f565b6000610b39611037611900565b84610eed8560016000611048611900565b6001600160a01b03908116825260208083019390935260409182016000908120918c16815292529020549063ffffffff611ad816565b604080516d4445504f5349544f525f524f4c4560901b8152905190819003600e0190206110ad81610f4a611900565b60079061114d5760405162461bcd60e51b815260206004820190815282546002600019610100600184161502019091160460248301819052909182916044909101908490801561113e5780601f106111135761010080835404028352916020019161113e565b820191906000526020600020905b81548152906001019060200180831161112157829003601f168201915b50509250505060405180910390fd5b5060008484602081101561116057600080fd5b5035905061116f838783611b32565b505050505050565b600061118581610f4a611900565b6007906111eb5760405162461bcd60e51b815260206004820190815282546002600019610100600184161502019091160460248301819052909182916044909101908490801561113e5780601f106111135761010080835404028352916020019161113e565b5061122b83838080601f016020809104026020016040519081016040528093929190818152602001838380828437600092019190915250611e0e92505050565b61126a83838080601f016020809104026020016040519081016040528093929190818152602001838380828437600092019190915250611e2192505050565b505050565b6001600160a01b031660009081526020819052604090205490565b6000611294610e69565b604080517fea2aa0a1be11a07ed86d755c93467f4f82362b452371d1ba94d1715123511acb6020808301919091526001600160a01b03808e16838501528c166060830152608082018b905260a082018a905288151560c0808401919091528351808403909101815260e08301845280519082012061190160f01b610100840152610102830194909452610122808301949094528251808303909401845261014282018084528451948201949094206000909452610162820180845284905260ff88166101828301526101a282018790526101c2820186905291519293506001926101e28083019392601f198301929081900390910190855afa15801561139e573d6000803e3d6000fd5b505050602060405103516001600160a01b0316896001600160a01b03161461140d576040805162461bcd60e51b815260206004820152601960248201527f554368696c644441493a20494e56414c49442d5045524d495400000000000000604482015290519081900360640190fd5b85158061141a5750854211155b61146b576040805162461bcd60e51b815260206004820152601960248201527f554368696c644441493a205045524d49542d4558504952454400000000000000604482015290519081900360640190fd5b6001600160a01b0389166000908152600a6020526040902080546001810190915587146114df576040805162461bcd60e51b815260206004820152601860248201527f554368696c644441493a20494e56414c49442d4e4f4e43450000000000000000604482015290519081900360640190fd5b3330141561151e5760405162461bcd60e51b815260040180806020018281038252602281526020018061266d6022913960400191505060405180910390fd5b60008561152c576000611530565b6000195b905061153d8a8a8361190f565b50505050505050505050565b6000828152600660205260408120611567908363ffffffff611edd16565b9392505050565b6000828152600660205260408120611567908363ffffffff611ee916565b60048054604080516020601f6002600019610100600188161502019095169490940493840181900481028201810190925282815260609390929091830182828015610b1a5780601f10610aef57610100808354040283529160200191610b1a565b600081565b604080516d4445504f5349544f525f524f4c4560901b8152905190819003600e01902081565b6000610b39611625611900565b84610eed85604051806060016040528060258152602001612619602591396001600061164f611900565b6001600160a01b03908116825260208083019390935260409182016000908120918d1681529252902054919063ffffffff611c9916565b6000610b39611693611900565b8484611b32565b61126a338383610e6f565b6116b0838383610e6f565b50505050565b6000818152600660205260408120610b3d90611efe565b6000828152600660205260409020600201546116eb90610f4a611900565b6110205760405162461bcd60e51b81526004018080602001828103825260308152602001806125326030913960400191505060405180910390fd5b6001600160a01b03918216600090815260016020908152604080832093909416825291909152205490565b60085460ff161561179a576040805162461bcd60e51b815260206004820152600e60248201526d185b1c9958591e481a5b9a5d195960921b604482015290519081900360640190fd5b6117d986868080601f016020809104026020016040519081016040528093929190818152602001838380828437600092019190915250611e0e92505050565b61181884848080601f016020809104026020016040519081016040528093929190818152602001838380828437600092019190915250611f0992505050565b61182182611f1c565b611862848460405160200180806410da1a5b1960da1b8152506005018383808284378083019250505092505050604051602081830303815290604052611f32565b611874600061186f611900565b610f8a565b604080516d4445504f5349544f525f524f4c4560901b8152905190819003600e0190206118a19082610f8a565b6118e086868080601f016020809104026020016040519081016040528093929190818152602001838380828437600092019190915250611fd092505050565b50506008805460ff1916600117905550505050565b61126a823383610e6f565b600061190a612032565b905090565b6001600160a01b0383166119545760405162461bcd60e51b81526004018080602001828103825260248152602001806125f56024913960400191505060405180910390fd5b6001600160a01b0382166119995760405162461bcd60e51b815260040180806020018281038252602281526020018061249b6022913960400191505060405180910390fd5b6001600160a01b03808416600081815260016020908152604080832094871680845294825291829020859055815185815291517f8c5be1e5ebec7d5bd14f71427d1e84f3dd0314c0f7b2291e5b200ac8c7c3b9259281900390910190a3505050565b60006001600160a01b038616611a425760405162461bcd60e51b81526004018080602001828103825260258152602001806125626025913960400191505060405180910390fd5b6001611a55611a508761208f565b61211b565b83868660405160008152602001604052604051808581526020018460ff1660ff1681526020018381526020018281526020019450505050506020604051602081039080840390855afa158015611aaf573d6000803e3d6000fd5b505050602060405103516001600160a01b0316866001600160a01b031614905095945050505050565b600082820183811015611567576040805162461bcd60e51b815260206004820152601b60248201527f536166654d6174683a206164646974696f6e206f766572666c6f770000000000604482015290519081900360640190fd5b6001600160a01b038316611b775760405162461bcd60e51b81526004018080602001828103825260258152602001806125d06025913960400191505060405180910390fd5b6001600160a01b038216611bbc5760405162461bcd60e51b81526004018080602001828103825260238152602001806124066023913960400191505060405180910390fd5b611bc783838361126a565b611c0a8160405180606001604052806026815260200161250c602691396001600160a01b038616600090815260208190526040902054919063ffffffff611c9916565b6001600160a01b038085166000908152602081905260408082209390935590841681522054611c3f908263ffffffff611ad816565b6001600160a01b038084166000818152602081815260409182902094909455805185815290519193928716927fddf252ad1be2c89b69c2b068fc378daa952ba7f163c4a11628f55a4df523b3ef92918290030190a3505050565b60008184841115611d285760405162461bcd60e51b81526004018080602001828103825283818151815260200191508051906020019080838360005b83811015611ced578181015183820152602001611cd5565b50505050905090810190601f168015611d1a5780820380516001836020036101000a031916815260200191505b509250505060405180910390fd5b505050900390565b6000828152600660205260409020611d4e908263ffffffff61216716565b15610f9457611d5b611900565b6001600160a01b0316816001600160a01b0316837f2f8788117e7eff1d82e926ec794901d17c78024a50270940304540a733656f0d60405160405180910390a45050565b6000828152600660205260409020611dbd908263ffffffff61217c16565b15610f9457611dca611900565b6001600160a01b0316816001600160a01b0316837ff6391f5c32d9c69d2a47ea670b442974b53935d1edc7fd64eb21e047a839171b60405160405180910390a45050565b8051610f9490600390602084019061234b565b6040518060800160405280604f81526020016124bd604f913980516020918201208251838301206040805180820190915260018152603160f81b930192909252907fc89efdaa54c0f20c7adf612882df0950f5a951637e0307cdcb4c672f298b8bc630611e8c610fc5565b604080516020808201979097528082019590955260608501939093526001600160a01b03909116608084015260a0808401919091528151808403909101815260c09092019052805191012060095550565b60006115678383612191565b6000611567836001600160a01b0384166121f5565b6000610b3d8261220d565b8051610f9490600490602084019061234b565b6005805460ff191660ff92909216919091179055565b806040516020018082805190602001908083835b60208310611f655780518252601f199092019160209182019101611f46565b51815160209384036101000a60001901801990921691161790527f3a20494e53554646494349454e545f5045524d495353494f4e530000000000009190930190815260408051808303600519018152601a90920190528051610f94955060079450920191905061234b565b60085460ff1615612019576040805162461bcd60e51b815260206004820152600e60248201526d185b1c9958591e481a5b9a5d195960921b604482015290519081900360640190fd5b61202281611e21565b506008805460ff19166001179055565b60003330141561208a5760606000368080601f0160208091040260200160405190810160405280939291908181526020018383808284376000920191909152505050503601516001600160a01b03169150610b229050565b503390565b600060405180608001604052806043815260200161245860439139805190602001208260000151836020015184604001518051906020012060405160200180858152602001848152602001836001600160a01b03166001600160a01b03168152602001828152602001945050505050604051602081830303815290604052805190602001209050919050565b6000612125610e69565b82604051602001808061190160f01b81525060020183815260200182815260200192505050604051602081830303815290604052805190602001209050919050565b6000611567836001600160a01b038416612211565b6000611567836001600160a01b03841661225b565b815460009082106121d35760405162461bcd60e51b81526004018080602001828103825260228152602001806123e46022913960400191505060405180910390fd5b8260000182815481106121e257fe5b9060005260206000200154905092915050565b60009081526001919091016020526040902054151590565b5490565b600061221d83836121f5565b61225357508154600181810184556000848152602080822090930184905584548482528286019093526040902091909155610b3d565b506000610b3d565b60008181526001830160205260408120548015612317578354600019808301919081019060009087908390811061228e57fe5b90600052602060002001549050808760000184815481106122ab57fe5b6000918252602080832090910192909255828152600189810190925260409020908401905586548790806122db57fe5b60019003818190600052602060002001600090559055866001016000878152602001908152602001600020600090556001945050505050610b3d565b6000915050610b3d565b60405180606001604052806000815260200160006001600160a01b03168152602001606081525090565b828054600181600116156101000203166002900490600052602060002090601f016020900481019282601f1061238c57805160ff19168380011785556123b9565b828001600101855582156123b9579182015b828111156123b957825182559160200191906001019061239e565b506123c59291506123c9565b5090565b610b2291905b808211156123c557600081556001016123cf56fe456e756d657261626c655365743a20696e646578206f7574206f6620626f756e647345524332303a207472616e7366657220746f20746865207a65726f2061646472657373416363657373436f6e74726f6c3a2073656e646572206d75737420626520616e2061646d696e20746f206772616e744d6574615472616e73616374696f6e2875696e74323536206e6f6e63652c616464726573732066726f6d2c62797465732066756e6374696f6e5369676e61747572652945524332303a20617070726f766520746f20746865207a65726f2061646472657373454950373132446f6d61696e28737472696e67206e616d652c737472696e672076657273696f6e2c6164647265737320766572696679696e67436f6e74726163742c627974657333322073616c742945524332303a207472616e7366657220616d6f756e7420657863656564732062616c616e6365416363657373436f6e74726f6c3a2073656e646572206d75737420626520616e2061646d696e20746f207265766f6b654e61746976654d6574615472616e73616374696f6e3a20494e56414c49445f5349474e455245524332303a207472616e7366657220616d6f756e74206578636565647320616c6c6f77616e63655369676e657220616e64207369676e617475726520646f206e6f74206d6174636845524332303a207472616e736665722066726f6d20746865207a65726f206164647265737345524332303a20617070726f76652066726f6d20746865207a65726f206164647265737345524332303a2064656372656173656420616c6c6f77616e63652062656c6f77207a65726f416363657373436f6e74726f6c3a2063616e206f6e6c792072656e6f756e636520726f6c657320666f722073656c66554368696c644441493a205045524d49545f4d4554415f54585f44495341424c4544a264697066735822122070d3c54d27f2a493d28dfc69c57163d559210cb0b9f4b4e92c2269197dec7cd064736f6c63430006060033",
  "immutableReferences": {},
  "source": "pragma solidity 0.6.6;\n\nimport {UChildERC20} from \"../UpgradeableChildERC20/UChildERC20.sol\";\n\ncontract UChildDAI is UChildERC20 {\n    // bytes32 public constant PERMIT_TYPEHASH = keccak256(\"Permit(address holder,address spender,uint256 nonce,uint256 expiry,bool allowed)\");\n    bytes32 public constant PERMIT_TYPEHASH = 0xea2aa0a1be11a07ed86d755c93467f4f82362b452371d1ba94d1715123511acb;\n\n    // --- Alias ---\n    function push(address usr, uint wad) external {\n        transferFrom(msg.sender, usr, wad);\n    }\n    function pull(address usr, uint wad) external {\n        transferFrom(usr, msg.sender, wad);\n    }\n    function move(address src, address dst, uint wad) external {\n        transferFrom(src, dst, wad);\n    }\n\n    // --- Approve by signature ---\n    function permit(\n        address holder,\n        address spender,\n        uint256 nonce,\n        uint256 expiry,\n        bool allowed,\n        uint8 v,\n        bytes32 r,\n        bytes32 s\n    ) external {\n        bytes32 digest = keccak256(\n            abi.encodePacked(\n                \"\\x19\\x01\",\n                getDomainSeperator(),\n                keccak256(\n                    abi.encode(\n                        PERMIT_TYPEHASH,\n                        holder,\n                        spender,\n                        nonce,\n                        expiry,\n                        allowed\n                    )\n                )\n        ));\n\n        require(holder == ecrecover(digest, v, r, s), \"UChildDAI: INVALID-PERMIT\");\n        require(expiry == 0 || now <= expiry, \"UChildDAI: PERMIT-EXPIRED\");\n        require(nonce == nonces[holder]++, \"UChildDAI: INVALID-NONCE\");\n        require(msg.sender != address(this), \"UChildDAI: PERMIT_META_TX_DISABLED\");\n        uint wad = allowed ? uint(-1) : 0;\n        _approve(holder, spender, wad);\n    }\n}\n",
  "sourcePath": "/home/moiz/Desktop/Eth_Matic_Custom_Bridge_Use_Case_2-Actual-/contracts/child/ChildToken/DappTokens/UChildDAI.sol",
  "compiler": {
    "name": "solc",
    "version": "0.6.6+commit.6c089d02.Emscripten.clang"
  },
  "schemaVersion": "3.4.10",
  "updatedAt": "2022-09-27T12:27:36.600Z",
  "devdoc": {
    "methods": {
      "allowance(address,address)": {
        "details": "See {IERC20-allowance}."
      },
      "approve(address,uint256)": {
        "details": "See {IERC20-approve}.     * Requirements:     * - `spender` cannot be the zero address."
      },
      "balanceOf(address)": {
        "details": "See {IERC20-balanceOf}."
      },
      "decimals()": {
        "details": "Returns the number of decimals used to get its user representation. For example, if `decimals` equals `2`, a balance of `505` tokens should be displayed to a user as `5,05` (`505 / 10 ** 2`).     * Tokens usually opt for a value of 18, imitating the relationship between Ether and Wei. This is the value {ERC20} uses, unless {_setupDecimals} is called.     * NOTE: This information is only used for _display_ purposes: it in no way affects any of the arithmetic of the contract, including {IERC20-balanceOf} and {IERC20-transfer}."
      },
      "decreaseAllowance(address,uint256)": {
        "details": "Atomically decreases the allowance granted to `spender` by the caller.     * This is an alternative to {approve} that can be used as a mitigation for problems described in {IERC20-approve}.     * Emits an {Approval} event indicating the updated allowance.     * Requirements:     * - `spender` cannot be the zero address. - `spender` must have allowance for the caller of at least `subtractedValue`."
      },
      "getRoleAdmin(bytes32)": {
        "details": "Returns the admin role that controls `role`. See {grantRole} and {revokeRole}.     * To change a role's admin, use {_setRoleAdmin}."
      },
      "getRoleMember(bytes32,uint256)": {
        "details": "Returns one of the accounts that have `role`. `index` must be a value between 0 and {getRoleMemberCount}, non-inclusive.     * Role bearers are not sorted in any particular way, and their ordering may change at any point.     * WARNING: When using {getRoleMember} and {getRoleMemberCount}, make sure you perform all queries on the same block. See the following https://forum.openzeppelin.com/t/iterating-over-elements-on-enumerableset-in-openzeppelin-contracts/2296[forum post] for more information."
      },
      "getRoleMemberCount(bytes32)": {
        "details": "Returns the number of accounts that have `role`. Can be used together with {getRoleMember} to enumerate all bearers of a role."
      },
      "grantRole(bytes32,address)": {
        "details": "Grants `role` to `account`.     * If `account` had not been already granted `role`, emits a {RoleGranted} event.     * Requirements:     * - the caller must have ``role``'s admin role."
      },
      "hasRole(bytes32,address)": {
        "details": "Returns `true` if `account` has been granted `role`."
      },
      "increaseAllowance(address,uint256)": {
        "details": "Atomically increases the allowance granted to `spender` by the caller.     * This is an alternative to {approve} that can be used as a mitigation for problems described in {IERC20-approve}.     * Emits an {Approval} event indicating the updated allowance.     * Requirements:     * - `spender` cannot be the zero address."
      },
      "initialize(string,string,uint8,address)": {
        "details": "meant to be called once immediately after deployment"
      },
      "name()": {
        "details": "Returns the name of the token."
      },
      "renounceRole(bytes32,address)": {
        "details": "Revokes `role` from the calling account.     * Roles are often managed via {grantRole} and {revokeRole}: this function's purpose is to provide a mechanism for accounts to lose their privileges if they are compromised (such as when a trusted device is misplaced).     * If the calling account had been granted `role`, emits a {RoleRevoked} event.     * Requirements:     * - the caller must be `account`."
      },
      "revokeRole(bytes32,address)": {
        "details": "Revokes `role` from `account`.     * If `account` had been granted `role`, emits a {RoleRevoked} event.     * Requirements:     * - the caller must have ``role``'s admin role."
      },
      "symbol()": {
        "details": "Returns the symbol of the token, usually a shorter version of the name."
      },
      "totalSupply()": {
        "details": "See {IERC20-totalSupply}."
      },
      "transfer(address,uint256)": {
        "details": "See {IERC20-transfer}.     * Requirements:     * - `recipient` cannot be the zero address. - the caller must have a balance of at least `amount`."
      },
      "transferFrom(address,address,uint256)": {
        "details": "See {IERC20-transferFrom}.     * Emits an {Approval} event indicating the updated allowance. This is not required by the EIP. See the note at the beginning of {ERC20};     * Requirements: - `sender` and `recipient` cannot be the zero address. - `sender` must have a balance of at least `amount`. - the caller must have allowance for ``sender``'s tokens of at least `amount`."
      }
    }
  },
  "userdoc": {
    "methods": {
      "initialize(string,string,uint8,address)": {
        "notice": "Initialize the contract after it has been proxified"
      }
    }
  }
}