{
  "contractName": "UChildERC20",
  "abi": [
    {
      "inputs": [],
      "stateMutability": "nonpayable",
      "type": "constructor"
    },
    {
      "anonymous": false,
      "inputs": [
        {
          "indexed": true,
          "internalType": "address",
          "name": "owner",
          "type": "address"
        },
        {
          "indexed": true,
          "internalType": "address",
          "name": "spender",
          "type": "address"
        },
        {
          "indexed": false,
          "internalType": "uint256",
          "name": "value",
          "type": "uint256"
        }
      ],
      "name": "Approval",
      "type": "event"
    },
    {
      "anonymous": false,
      "inputs": [
        {
          "indexed": false,
          "internalType": "address",
          "name": "userAddress",
          "type": "address"
        },
        {
          "indexed": false,
          "internalType": "address payable",
          "name": "relayerAddress",
          "type": "address"
        },
        {
          "indexed": false,
          "internalType": "bytes",
          "name": "functionSignature",
          "type": "bytes"
        }
      ],
      "name": "MetaTransactionExecuted",
      "type": "event"
    },
    {
      "anonymous": false,
      "inputs": [
        {
          "indexed": true,
          "internalType": "bytes32",
          "name": "role",
          "type": "bytes32"
        },
        {
          "indexed": true,
          "internalType": "bytes32",
          "name": "previousAdminRole",
          "type": "bytes32"
        },
        {
          "indexed": true,
          "internalType": "bytes32",
          "name": "newAdminRole",
          "type": "bytes32"
        }
      ],
      "name": "RoleAdminChanged",
      "type": "event"
    },
    {
      "anonymous": false,
      "inputs": [
        {
          "indexed": true,
          "internalType": "bytes32",
          "name": "role",
          "type": "bytes32"
        },
        {
          "indexed": true,
          "internalType": "address",
          "name": "account",
          "type": "address"
        },
        {
          "indexed": true,
          "internalType": "address",
          "name": "sender",
          "type": "address"
        }
      ],
      "name": "RoleGranted",
      "type": "event"
    },
    {
      "anonymous": false,
      "inputs": [
        {
          "indexed": true,
          "internalType": "bytes32",
          "name": "role",
          "type": "bytes32"
        },
        {
          "indexed": true,
          "internalType": "address",
          "name": "account",
          "type": "address"
        },
        {
          "indexed": true,
          "internalType": "address",
          "name": "sender",
          "type": "address"
        }
      ],
      "name": "RoleRevoked",
      "type": "event"
    },
    {
      "anonymous": false,
      "inputs": [
        {
          "indexed": true,
          "internalType": "address",
          "name": "from",
          "type": "address"
        },
        {
          "indexed": true,
          "internalType": "address",
          "name": "to",
          "type": "address"
        },
        {
          "indexed": false,
          "internalType": "uint256",
          "name": "value",
          "type": "uint256"
        }
      ],
      "name": "Transfer",
      "type": "event"
    },
    {
      "inputs": [],
      "name": "DEFAULT_ADMIN_ROLE",
      "outputs": [
        {
          "internalType": "bytes32",
          "name": "",
          "type": "bytes32"
        }
      ],
      "stateMutability": "view",
      "type": "function"
    },
    {
      "inputs": [],
      "name": "DEPOSITOR_ROLE",
      "outputs": [
        {
          "internalType": "bytes32",
          "name": "",
          "type": "bytes32"
        }
      ],
      "stateMutability": "view",
      "type": "function"
    },
    {
      "inputs": [],
      "name": "ERC712_VERSION",
      "outputs": [
        {
          "internalType": "string",
          "name": "",
          "type": "string"
        }
      ],
      "stateMutability": "view",
      "type": "function"
    },
    {
      "inputs": [
        {
          "internalType": "address",
          "name": "owner",
          "type": "address"
        },
        {
          "internalType": "address",
          "name": "spender",
          "type": "address"
        }
      ],
      "name": "allowance",
      "outputs": [
        {
          "internalType": "uint256",
          "name": "",
          "type": "uint256"
        }
      ],
      "stateMutability": "view",
      "type": "function"
    },
    {
      "inputs": [
        {
          "internalType": "address",
          "name": "spender",
          "type": "address"
        },
        {
          "internalType": "uint256",
          "name": "amount",
          "type": "uint256"
        }
      ],
      "name": "approve",
      "outputs": [
        {
          "internalType": "bool",
          "name": "",
          "type": "bool"
        }
      ],
      "stateMutability": "nonpayable",
      "type": "function"
    },
    {
      "inputs": [
        {
          "internalType": "address",
          "name": "account",
          "type": "address"
        }
      ],
      "name": "balanceOf",
      "outputs": [
        {
          "internalType": "uint256",
          "name": "",
          "type": "uint256"
        }
      ],
      "stateMutability": "view",
      "type": "function"
    },
    {
      "inputs": [],
      "name": "decimals",
      "outputs": [
        {
          "internalType": "uint8",
          "name": "",
          "type": "uint8"
        }
      ],
      "stateMutability": "view",
      "type": "function"
    },
    {
      "inputs": [
        {
          "internalType": "address",
          "name": "spender",
          "type": "address"
        },
        {
          "internalType": "uint256",
          "name": "subtractedValue",
          "type": "uint256"
        }
      ],
      "name": "decreaseAllowance",
      "outputs": [
        {
          "internalType": "bool",
          "name": "",
          "type": "bool"
        }
      ],
      "stateMutability": "nonpayable",
      "type": "function"
    },
    {
      "inputs": [
        {
          "internalType": "address",
          "name": "userAddress",
          "type": "address"
        },
        {
          "internalType": "bytes",
          "name": "functionSignature",
          "type": "bytes"
        },
        {
          "internalType": "bytes32",
          "name": "sigR",
          "type": "bytes32"
        },
        {
          "internalType": "bytes32",
          "name": "sigS",
          "type": "bytes32"
        },
        {
          "internalType": "uint8",
          "name": "sigV",
          "type": "uint8"
        }
      ],
      "name": "executeMetaTransaction",
      "outputs": [
        {
          "internalType": "bytes",
          "name": "",
          "type": "bytes"
        }
      ],
      "stateMutability": "payable",
      "type": "function"
    },
    {
      "inputs": [],
      "name": "getChainId",
      "outputs": [
        {
          "internalType": "uint256",
          "name": "",
          "type": "uint256"
        }
      ],
      "stateMutability": "pure",
      "type": "function"
    },
    {
      "inputs": [],
      "name": "getDomainSeperator",
      "outputs": [
        {
          "internalType": "bytes32",
          "name": "",
          "type": "bytes32"
        }
      ],
      "stateMutability": "view",
      "type": "function"
    },
    {
      "inputs": [
        {
          "internalType": "address",
          "name": "user",
          "type": "address"
        }
      ],
      "name": "getNonce",
      "outputs": [
        {
          "internalType": "uint256",
          "name": "nonce",
          "type": "uint256"
        }
      ],
      "stateMutability": "view",
      "type": "function"
    },
    {
      "inputs": [
        {
          "internalType": "bytes32",
          "name": "role",
          "type": "bytes32"
        }
      ],
      "name": "getRoleAdmin",
      "outputs": [
        {
          "internalType": "bytes32",
          "name": "",
          "type": "bytes32"
        }
      ],
      "stateMutability": "view",
      "type": "function"
    },
    {
      "inputs": [
        {
          "internalType": "bytes32",
          "name": "role",
          "type": "bytes32"
        },
        {
          "internalType": "uint256",
          "name": "index",
          "type": "uint256"
        }
      ],
      "name": "getRoleMember",
      "outputs": [
        {
          "internalType": "address",
          "name": "",
          "type": "address"
        }
      ],
      "stateMutability": "view",
      "type": "function"
    },
    {
      "inputs": [
        {
          "internalType": "bytes32",
          "name": "role",
          "type": "bytes32"
        }
      ],
      "name": "getRoleMemberCount",
      "outputs": [
        {
          "internalType": "uint256",
          "name": "",
          "type": "uint256"
        }
      ],
      "stateMutability": "view",
      "type": "function"
    },
    {
      "inputs": [
        {
          "internalType": "bytes32",
          "name": "role",
          "type": "bytes32"
        },
        {
          "internalType": "address",
          "name": "account",
          "type": "address"
        }
      ],
      "name": "grantRole",
      "outputs": [],
      "stateMutability": "nonpayable",
      "type": "function"
    },
    {
      "inputs": [
        {
          "internalType": "bytes32",
          "name": "role",
          "type": "bytes32"
        },
        {
          "internalType": "address",
          "name": "account",
          "type": "address"
        }
      ],
      "name": "hasRole",
      "outputs": [
        {
          "internalType": "bool",
          "name": "",
          "type": "bool"
        }
      ],
      "stateMutability": "view",
      "type": "function"
    },
    {
      "inputs": [
        {
          "internalType": "address",
          "name": "spender",
          "type": "address"
        },
        {
          "internalType": "uint256",
          "name": "addedValue",
          "type": "uint256"
        }
      ],
      "name": "increaseAllowance",
      "outputs": [
        {
          "internalType": "bool",
          "name": "",
          "type": "bool"
        }
      ],
      "stateMutability": "nonpayable",
      "type": "function"
    },
    {
      "inputs": [],
      "name": "name",
      "outputs": [
        {
          "internalType": "string",
          "name": "",
          "type": "string"
        }
      ],
      "stateMutability": "view",
      "type": "function"
    },
    {
      "inputs": [
        {
          "internalType": "bytes32",
          "name": "role",
          "type": "bytes32"
        },
        {
          "internalType": "address",
          "name": "account",
          "type": "address"
        }
      ],
      "name": "renounceRole",
      "outputs": [],
      "stateMutability": "nonpayable",
      "type": "function"
    },
    {
      "inputs": [
        {
          "internalType": "bytes32",
          "name": "role",
          "type": "bytes32"
        },
        {
          "internalType": "address",
          "name": "account",
          "type": "address"
        }
      ],
      "name": "revokeRole",
      "outputs": [],
      "stateMutability": "nonpayable",
      "type": "function"
    },
    {
      "inputs": [],
      "name": "symbol",
      "outputs": [
        {
          "internalType": "string",
          "name": "",
          "type": "string"
        }
      ],
      "stateMutability": "view",
      "type": "function"
    },
    {
      "inputs": [],
      "name": "totalSupply",
      "outputs": [
        {
          "internalType": "uint256",
          "name": "",
          "type": "uint256"
        }
      ],
      "stateMutability": "view",
      "type": "function"
    },
    {
      "inputs": [
        {
          "internalType": "address",
          "name": "sender",
          "type": "address"
        },
        {
          "internalType": "address",
          "name": "recipient",
          "type": "address"
        },
        {
          "internalType": "uint256",
          "name": "amount",
          "type": "uint256"
        }
      ],
      "name": "transferFrom",
      "outputs": [
        {
          "internalType": "bool",
          "name": "",
          "type": "bool"
        }
      ],
      "stateMutability": "nonpayable",
      "type": "function"
    },
    {
      "inputs": [
        {
          "internalType": "string",
          "name": "name_",
          "type": "string"
        },
        {
          "internalType": "string",
          "name": "symbol_",
          "type": "string"
        },
        {
          "internalType": "uint8",
          "name": "decimals_",
          "type": "uint8"
        },
        {
          "internalType": "address",
          "name": "childChainManager",
          "type": "address"
        }
      ],
      "name": "initialize",
      "outputs": [],
      "stateMutability": "nonpayable",
      "type": "function"
    },
    {
      "inputs": [
        {
          "internalType": "string",
          "name": "name_",
          "type": "string"
        }
      ],
      "name": "changeName",
      "outputs": [],
      "stateMutability": "nonpayable",
      "type": "function"
    },
    {
      "inputs": [
        {
          "internalType": "address",
          "name": "user",
          "type": "address"
        },
        {
          "internalType": "bytes",
          "name": "depositData",
          "type": "bytes"
        },
        {
          "internalType": "address",
          "name": "childERC20Predicate",
          "type": "address"
        }
      ],
      "name": "transfer",
      "outputs": [],
      "stateMutability": "nonpayable",
      "type": "function"
    },
    {
      "inputs": [
        {
          "internalType": "address",
          "name": "recipient",
          "type": "address"
        },
        {
          "internalType": "uint256",
          "name": "amount",
          "type": "uint256"
        }
      ],
      "name": "transfer",
      "outputs": [
        {
          "internalType": "bool",
          "name": "",
          "type": "bool"
        }
      ],
      "stateMutability": "nonpayable",
      "type": "function"
    }
  ],
  "bytecode": "0x60806040526008805460ff191690553480156200001b57600080fd5b50604080516020808201808452600080845284519283019094529281528151919290916200004c9160039162000078565b5080516200006290600490602084019062000078565b50506005805460ff19166012179055506200011d565b828054600181600116156101000203166002900490600052602060002090601f016020900481019282601f10620000bb57805160ff1916838001178555620000eb565b82800160010185558215620000eb579182015b82811115620000eb578251825591602001919060010190620000ce565b50620000f9929150620000fd565b5090565b6200011a91905b80821115620000f9576000815560010162000104565b90565b612230806200012d6000396000f3fe6080604052600436106101b75760003560e01c806349d5f3f2116100ec578063a3b0b5a31161008a578063ca15c87311610064578063ca15c873146107ab578063d547741f146107d5578063dd62ed3e1461080e578063de7ea79d14610849576101b7565b8063a3b0b5a314610724578063a457c2d714610739578063a9059cbb14610772576101b7565b80639010d07c116100c65780639010d07c1461067557806391d14854146106c157806395d89b41146106fa578063a217fddf1461070f576101b7565b806349d5f3f2146105335780635353a2d8146105c757806370a0823114610642576101b7565b8063248a9ca311610159578063313ce56711610133578063313ce567146104815780633408e470146104ac57806336568abe146104c157806339509351146104fa576101b7565b8063248a9ca3146103e95780632d0335ab146104135780632f2ff15d14610446576101b7565b80630f7e5970116101955780630f7e59701461035557806318160ddd1461036a57806320379ee51461039157806323b872dd146103a6576101b7565b806306fdde03146101bc578063095ea7b3146102465780630c53c51c14610293575b600080fd5b3480156101c857600080fd5b506101d1610926565b6040805160208082528351818301528351919283929083019185019080838360005b8381101561020b5781810151838201526020016101f3565b50505050905090810190601f1680156102385780820380516001836020036101000a031916815260200191505b509250505060405180910390f35b34801561025257600080fd5b5061027f6004803603604081101561026957600080fd5b506001600160a01b0381351690602001356109bd565b604080519115158252519081900360200190f35b6101d1600480360360a08110156102a957600080fd5b6001600160a01b038235169190810190604081016020820135600160201b8111156102d357600080fd5b8201836020820111156102e557600080fd5b803590602001918460018302840111600160201b8311171561030657600080fd5b91908080601f016020809104026020016040519081016040528093929190818152602001838380828437600092019190915250929550508235935050506020810135906040013560ff166109db565b34801561036157600080fd5b506101d1610cde565b34801561037657600080fd5b5061037f610cfb565b60408051918252519081900360200190f35b34801561039d57600080fd5b5061037f610d01565b3480156103b257600080fd5b5061027f600480360360608110156103c957600080fd5b506001600160a01b03813581169160208101359091169060400135610d07565b3480156103f557600080fd5b5061037f6004803603602081101561040c57600080fd5b5035610d94565b34801561041f57600080fd5b5061037f6004803603602081101561043657600080fd5b50356001600160a01b0316610da9565b34801561045257600080fd5b5061047f6004803603604081101561046957600080fd5b50803590602001356001600160a01b0316610dc4565b005b34801561048d57600080fd5b50610496610e30565b6040805160ff9092168252519081900360200190f35b3480156104b857600080fd5b5061037f610e39565b3480156104cd57600080fd5b5061047f600480360360408110156104e457600080fd5b50803590602001356001600160a01b0316610e3d565b34801561050657600080fd5b5061027f6004803603604081101561051d57600080fd5b506001600160a01b038135169060200135610e9e565b34801561053f57600080fd5b5061047f6004803603606081101561055657600080fd5b6001600160a01b038235169190810190604081016020820135600160201b81111561058057600080fd5b82018360208201111561059257600080fd5b803590602001918460018302840111600160201b831117156105b357600080fd5b9193509150356001600160a01b0316610ef2565b3480156105d357600080fd5b5061047f600480360360208110156105ea57600080fd5b810190602081018135600160201b81111561060457600080fd5b82018360208201111561061657600080fd5b803590602001918460018302840111600160201b8311171561063757600080fd5b509092509050610feb565b34801561064e57600080fd5b5061037f6004803603602081101561066557600080fd5b50356001600160a01b03166110e3565b34801561068157600080fd5b506106a56004803603604081101561069857600080fd5b50803590602001356110fe565b604080516001600160a01b039092168252519081900360200190f35b3480156106cd57600080fd5b5061027f600480360360408110156106e457600080fd5b50803590602001356001600160a01b0316611123565b34801561070657600080fd5b506101d1611141565b34801561071b57600080fd5b5061037f6111a2565b34801561073057600080fd5b5061037f6111a7565b34801561074557600080fd5b5061027f6004803603604081101561075c57600080fd5b506001600160a01b0381351690602001356111cd565b34801561077e57600080fd5b5061027f6004803603604081101561079557600080fd5b506001600160a01b03813516906020013561123b565b3480156107b757600080fd5b5061037f600480360360208110156107ce57600080fd5b503561124f565b3480156107e157600080fd5b5061047f600480360360408110156107f857600080fd5b50803590602001356001600160a01b0316611266565b34801561081a57600080fd5b5061037f6004803603604081101561083157600080fd5b506001600160a01b03813581169160200135166112bf565b34801561085557600080fd5b5061047f6004803603608081101561086c57600080fd5b810190602081018135600160201b81111561088657600080fd5b82018360208201111561089857600080fd5b803590602001918460018302840111600160201b831117156108b957600080fd5b919390929091602081019035600160201b8111156108d657600080fd5b8201836020820111156108e857600080fd5b803590602001918460018302840111600160201b8311171561090957600080fd5b9193509150803560ff1690602001356001600160a01b03166112ea565b60038054604080516020601f60026000196101006001881615020190951694909404938401819004810282018101909252828152606093909290918301828280156109b25780601f10610987576101008083540402835291602001916109b2565b820191906000526020600020905b81548152906001019060200180831161099557829003601f168201915b505050505090505b90565b60006109d16109ca61148e565b848461149d565b5060015b92915050565b60606109e5611eaf565b50604080516060810182526001600160a01b0388166000818152600a602090815290849020548352820152908101869052610a238782878787611589565b610a5e5760405162461bcd60e51b815260040180806020018281038252602181526020018061213d6021913960400191505060405180910390fd5b6001600160a01b0387166000908152600a6020526040902054610a8890600163ffffffff61166616565b6001600160a01b0388166000818152600a602090815260408083209490945583519283523383820181905260609484018581528b51958501959095528a517f5845892132946850460bff5a0083f71031bc5bf9aadcd40f1de79423eac9b10b958d9592948d94919260808501928601918190849084905b83811015610b17578181015183820152602001610aff565b50505050905090810190601f168015610b445780820380516001836020036101000a031916815260200191505b5094505050505060405180910390a160006060306001600160a01b0316888a6040516020018083805190602001908083835b60208310610b955780518252601f199092019160209182019101610b76565b6001836020036101000a038019825116818451168082178552505050505050905001826001600160a01b03166001600160a01b031660601b8152601401925050506040516020818303038152906040526040518082805190602001908083835b60208310610c145780518252601f199092019160209182019101610bf5565b6001836020036101000a0380198251168184511680821785525050505050509050019150506000604051808303816000865af19150503d8060008114610c76576040519150601f19603f3d011682016040523d82523d6000602084013e610c7b565b606091505b509150915081610cd2576040805162461bcd60e51b815260206004820152601c60248201527f46756e6374696f6e2063616c6c206e6f74207375636365737366756c00000000604482015290519081900360640190fd5b98975050505050505050565b604051806040016040528060018152602001603160f81b81525081565b60025490565b60095490565b6000610d148484846116c0565b610d8a84610d2061148e565b610d8585604051806060016040528060288152602001612115602891396001600160a01b038a16600090815260016020526040812090610d5e61148e565b6001600160a01b03168152602081019190915260400160002054919063ffffffff61182716565b61149d565b5060019392505050565b60009081526006602052604090206002015490565b6001600160a01b03166000908152600a602052604090205490565b600082815260066020526040902060020154610de790610de261148e565b611123565b610e225760405162461bcd60e51b815260040180806020018281038252602f815260200180611fb7602f913960400191505060405180910390fd5b610e2c82826118be565b5050565b60055460ff1690565b4690565b610e4561148e565b6001600160a01b0316816001600160a01b031614610e945760405162461bcd60e51b815260040180806020018281038252602f8152602001806121cc602f913960400191505060405180910390fd5b610e2c828261192d565b60006109d1610eab61148e565b84610d858560016000610ebc61148e565b6001600160a01b03908116825260208083019390935260409182016000908120918c16815292529020549063ffffffff61166616565b604080516d4445504f5349544f525f524f4c4560901b8152905190819003600e019020610f2181610de261148e565b600790610fc15760405162461bcd60e51b8152602060048201908152825460026000196101006001841615020190911604602483018190529091829160449091019084908015610fb25780601f10610f8757610100808354040283529160200191610fb2565b820191906000526020600020905b815481529060010190602001808311610f9557829003601f168201915b50509250505060405180910390fd5b50600084846020811015610fd457600080fd5b50359050610fe38387836116c0565b505050505050565b6000610ff981610de261148e565b60079061105f5760405162461bcd60e51b8152602060048201908152825460026000196101006001841615020190911604602483018190529091829160449091019084908015610fb25780601f10610f8757610100808354040283529160200191610fb2565b5061109f83838080601f01602080910402602001604051908101604052809392919081815260200183838082843760009201919091525061199c92505050565b6110de83838080601f0160208091040260200160405190810160405280939291908181526020018383808284376000920191909152506119af92505050565b505050565b6001600160a01b031660009081526020819052604090205490565b600082815260066020526040812061111c908363ffffffff611a6b16565b9392505050565b600082815260066020526040812061111c908363ffffffff611a7716565b60048054604080516020601f60026000196101006001881615020190951694909404938401819004810282018101909252828152606093909290918301828280156109b25780601f10610987576101008083540402835291602001916109b2565b600081565b604080516d4445504f5349544f525f524f4c4560901b8152905190819003600e01902081565b60006109d16111da61148e565b84610d85856040518060600160405280602581526020016121a7602591396001600061120461148e565b6001600160a01b03908116825260208083019390935260409182016000908120918d1681529252902054919063ffffffff61182716565b60006109d161124861148e565b84846116c0565b60008181526006602052604081206109d590611a8c565b60008281526006602052604090206002015461128490610de261148e565b610e945760405162461bcd60e51b81526004018080602001828103825260308152602001806120c06030913960400191505060405180910390fd5b6001600160a01b03918216600090815260016020908152604080832093909416825291909152205490565b60085460ff1615611333576040805162461bcd60e51b815260206004820152600e60248201526d185b1c9958591e481a5b9a5d195960921b604482015290519081900360640190fd5b61137286868080601f01602080910402602001604051908101604052809392919081815260200183838082843760009201919091525061199c92505050565b6113b184848080601f016020809104026020016040519081016040528093929190818152602001838380828437600092019190915250611a9792505050565b6113ba82611aaa565b6113fb848460405160200180806410da1a5b1960da1b8152506005018383808284378083019250505092505050604051602081830303815290604052611ac0565b61140d600061140861148e565b610e22565b604080516d4445504f5349544f525f524f4c4560901b8152905190819003600e01902061143a9082610e22565b61147986868080601f016020809104026020016040519081016040528093929190818152602001838380828437600092019190915250611b5e92505050565b50506008805460ff1916600117905550505050565b6000611498611bc0565b905090565b6001600160a01b0383166114e25760405162461bcd60e51b81526004018080602001828103825260248152602001806121836024913960400191505060405180910390fd5b6001600160a01b0382166115275760405162461bcd60e51b81526004018080602001828103825260228152602001806120296022913960400191505060405180910390fd5b6001600160a01b03808416600081815260016020908152604080832094871680845294825291829020859055815185815291517f8c5be1e5ebec7d5bd14f71427d1e84f3dd0314c0f7b2291e5b200ac8c7c3b9259281900390910190a3505050565b60006001600160a01b0386166115d05760405162461bcd60e51b81526004018080602001828103825260258152602001806120f06025913960400191505060405180910390fd5b60016115e36115de87611c1d565b611ca9565b83868660405160008152602001604052604051808581526020018460ff1660ff1681526020018381526020018281526020019450505050506020604051602081039080840390855afa15801561163d573d6000803e3d6000fd5b505050602060405103516001600160a01b0316866001600160a01b031614905095945050505050565b60008282018381101561111c576040805162461bcd60e51b815260206004820152601b60248201527f536166654d6174683a206164646974696f6e206f766572666c6f770000000000604482015290519081900360640190fd5b6001600160a01b0383166117055760405162461bcd60e51b815260040180806020018281038252602581526020018061215e6025913960400191505060405180910390fd5b6001600160a01b03821661174a5760405162461bcd60e51b8152600401808060200182810382526023815260200180611f946023913960400191505060405180910390fd5b6117558383836110de565b6117988160405180606001604052806026815260200161209a602691396001600160a01b038616600090815260208190526040902054919063ffffffff61182716565b6001600160a01b0380851660009081526020819052604080822093909355908416815220546117cd908263ffffffff61166616565b6001600160a01b038084166000818152602081815260409182902094909455805185815290519193928716927fddf252ad1be2c89b69c2b068fc378daa952ba7f163c4a11628f55a4df523b3ef92918290030190a3505050565b600081848411156118b65760405162461bcd60e51b81526004018080602001828103825283818151815260200191508051906020019080838360005b8381101561187b578181015183820152602001611863565b50505050905090810190601f1680156118a85780820380516001836020036101000a031916815260200191505b509250505060405180910390fd5b505050900390565b60008281526006602052604090206118dc908263ffffffff611cf516565b15610e2c576118e961148e565b6001600160a01b0316816001600160a01b0316837f2f8788117e7eff1d82e926ec794901d17c78024a50270940304540a733656f0d60405160405180910390a45050565b600082815260066020526040902061194b908263ffffffff611d0a16565b15610e2c5761195861148e565b6001600160a01b0316816001600160a01b0316837ff6391f5c32d9c69d2a47ea670b442974b53935d1edc7fd64eb21e047a839171b60405160405180910390a45050565b8051610e2c906003906020840190611ed9565b6040518060800160405280604f815260200161204b604f913980516020918201208251838301206040805180820190915260018152603160f81b930192909252907fc89efdaa54c0f20c7adf612882df0950f5a951637e0307cdcb4c672f298b8bc630611a1a610e39565b604080516020808201979097528082019590955260608501939093526001600160a01b03909116608084015260a0808401919091528151808403909101815260c09092019052805191012060095550565b600061111c8383611d1f565b600061111c836001600160a01b038416611d83565b60006109d582611d9b565b8051610e2c906004906020840190611ed9565b6005805460ff191660ff92909216919091179055565b806040516020018082805190602001908083835b60208310611af35780518252601f199092019160209182019101611ad4565b51815160209384036101000a60001901801990921691161790527f3a20494e53554646494349454e545f5045524d495353494f4e530000000000009190930190815260408051808303600519018152601a90920190528051610e2c9550600794509201919050611ed9565b60085460ff1615611ba7576040805162461bcd60e51b815260206004820152600e60248201526d185b1c9958591e481a5b9a5d195960921b604482015290519081900360640190fd5b611bb0816119af565b506008805460ff19166001179055565b600033301415611c185760606000368080601f0160208091040260200160405190810160405280939291908181526020018383808284376000920191909152505050503601516001600160a01b031691506109ba9050565b503390565b6000604051806080016040528060438152602001611fe660439139805190602001208260000151836020015184604001518051906020012060405160200180858152602001848152602001836001600160a01b03166001600160a01b03168152602001828152602001945050505050604051602081830303815290604052805190602001209050919050565b6000611cb3610d01565b82604051602001808061190160f01b81525060020183815260200182815260200192505050604051602081830303815290604052805190602001209050919050565b600061111c836001600160a01b038416611d9f565b600061111c836001600160a01b038416611de9565b81546000908210611d615760405162461bcd60e51b8152600401808060200182810382526022815260200180611f726022913960400191505060405180910390fd5b826000018281548110611d7057fe5b9060005260206000200154905092915050565b60009081526001919091016020526040902054151590565b5490565b6000611dab8383611d83565b611de1575081546001818101845560008481526020808220909301849055845484825282860190935260409020919091556109d5565b5060006109d5565b60008181526001830160205260408120548015611ea55783546000198083019190810190600090879083908110611e1c57fe5b9060005260206000200154905080876000018481548110611e3957fe5b600091825260208083209091019290925582815260018981019092526040902090840190558654879080611e6957fe5b600190038181906000526020600020016000905590558660010160008781526020019081526020016000206000905560019450505050506109d5565b60009150506109d5565b60405180606001604052806000815260200160006001600160a01b03168152602001606081525090565b828054600181600116156101000203166002900490600052602060002090601f016020900481019282601f10611f1a57805160ff1916838001178555611f47565b82800160010185558215611f47579182015b82811115611f47578251825591602001919060010190611f2c565b50611f53929150611f57565b5090565b6109ba91905b80821115611f535760008155600101611f5d56fe456e756d657261626c655365743a20696e646578206f7574206f6620626f756e647345524332303a207472616e7366657220746f20746865207a65726f2061646472657373416363657373436f6e74726f6c3a2073656e646572206d75737420626520616e2061646d696e20746f206772616e744d6574615472616e73616374696f6e2875696e74323536206e6f6e63652c616464726573732066726f6d2c62797465732066756e6374696f6e5369676e61747572652945524332303a20617070726f766520746f20746865207a65726f2061646472657373454950373132446f6d61696e28737472696e67206e616d652c737472696e672076657273696f6e2c6164647265737320766572696679696e67436f6e74726163742c627974657333322073616c742945524332303a207472616e7366657220616d6f756e7420657863656564732062616c616e6365416363657373436f6e74726f6c3a2073656e646572206d75737420626520616e2061646d696e20746f207265766f6b654e61746976654d6574615472616e73616374696f6e3a20494e56414c49445f5349474e455245524332303a207472616e7366657220616d6f756e74206578636565647320616c6c6f77616e63655369676e657220616e64207369676e617475726520646f206e6f74206d6174636845524332303a207472616e736665722066726f6d20746865207a65726f206164647265737345524332303a20617070726f76652066726f6d20746865207a65726f206164647265737345524332303a2064656372656173656420616c6c6f77616e63652062656c6f77207a65726f416363657373436f6e74726f6c3a2063616e206f6e6c792072656e6f756e636520726f6c657320666f722073656c66a2646970667358221220c433bea924091e99bfeb5b20191cb60d398b2b5dc6c49dca502c4f482bee69b864736f6c63430006060033",
  "immutableReferences": {},
  "source": "pragma solidity 0.6.6;\n\nimport {ERC20} from \"./ERC20.sol\";\nimport {AccessControlMixin} from \"../../../common/AccessControlMixin.sol\";\nimport {IChildToken} from \"../IChildToken.sol\";\nimport {NativeMetaTransaction} from \"../../../common/NativeMetaTransaction.sol\";\nimport {ContextMixin} from \"../../../common/ContextMixin.sol\";\n\ncontract UChildERC20 is\n    ERC20,\n    IChildToken,\n    AccessControlMixin,\n    NativeMetaTransaction,\n    ContextMixin\n{\n    bytes32 public constant DEPOSITOR_ROLE = keccak256(\"DEPOSITOR_ROLE\");\n\n    constructor() public ERC20(\"\", \"\") {}\n\n    /**\n     * @notice Initialize the contract after it has been proxified\n     * @dev meant to be called once immediately after deployment\n     */\n    function initialize(\n        string calldata name_,\n        string calldata symbol_,\n        uint8 decimals_,\n        address childChainManager\n    ) external initializer {\n        setName(name_);\n        setSymbol(symbol_);\n        setDecimals(decimals_);\n        _setupContractId(string(abi.encodePacked(\"Child\", symbol_)));\n        _setupRole(DEFAULT_ADMIN_ROLE, _msgSender());\n        _setupRole(DEPOSITOR_ROLE, childChainManager);\n        _initializeEIP712(name_);\n    }\n\n    // This is to support Native meta transactions\n    // never use msg.sender directly, use _msgSender() instead\n    function _msgSender()\n        internal\n        view\n        override\n        returns (address payable sender)\n    {\n        return ContextMixin.msgSender();\n    }\n\n    function changeName(string calldata name_)\n        external\n        only(DEFAULT_ADMIN_ROLE)\n    {\n        setName(name_);\n        _setDomainSeperator(name_);\n    }\n\n    function transfer(\n        address user,\n        bytes calldata depositData,\n        address childERC20Predicate\n    ) external override only(DEPOSITOR_ROLE) {\n        uint256 amount = abi.decode(depositData, (uint256));\n        _transfer(childERC20Predicate, user, amount);\n    }\n}\n",
  "sourcePath": "/home/moiz/Desktop/Eth_Matic_Custom_Bridge_Use_Case_2-Actual-/contracts/child/ChildToken/UpgradeableChildERC20/UChildERC20.sol",
  "compiler": {
    "name": "solc",
    "version": "0.6.6+commit.6c089d02.Emscripten.clang"
  },
  "schemaVersion": "3.4.10",
  "updatedAt": "2022-09-27T12:27:36.605Z",
  "devdoc": {
    "methods": {
      "allowance(address,address)": {
        "details": "See {IERC20-allowance}."
      },
      "approve(address,uint256)": {
        "details": "See {IERC20-approve}.     * Requirements:     * - `spender` cannot be the zero address."
      },
      "balanceOf(address)": {
        "details": "See {IERC20-balanceOf}."
      },
      "decimals()": {
        "details": "Returns the number of decimals used to get its user representation. For example, if `decimals` equals `2`, a balance of `505` tokens should be displayed to a user as `5,05` (`505 / 10 ** 2`).     * Tokens usually opt for a value of 18, imitating the relationship between Ether and Wei. This is the value {ERC20} uses, unless {_setupDecimals} is called.     * NOTE: This information is only used for _display_ purposes: it in no way affects any of the arithmetic of the contract, including {IERC20-balanceOf} and {IERC20-transfer}."
      },
      "decreaseAllowance(address,uint256)": {
        "details": "Atomically decreases the allowance granted to `spender` by the caller.     * This is an alternative to {approve} that can be used as a mitigation for problems described in {IERC20-approve}.     * Emits an {Approval} event indicating the updated allowance.     * Requirements:     * - `spender` cannot be the zero address. - `spender` must have allowance for the caller of at least `subtractedValue`."
      },
      "getRoleAdmin(bytes32)": {
        "details": "Returns the admin role that controls `role`. See {grantRole} and {revokeRole}.     * To change a role's admin, use {_setRoleAdmin}."
      },
      "getRoleMember(bytes32,uint256)": {
        "details": "Returns one of the accounts that have `role`. `index` must be a value between 0 and {getRoleMemberCount}, non-inclusive.     * Role bearers are not sorted in any particular way, and their ordering may change at any point.     * WARNING: When using {getRoleMember} and {getRoleMemberCount}, make sure you perform all queries on the same block. See the following https://forum.openzeppelin.com/t/iterating-over-elements-on-enumerableset-in-openzeppelin-contracts/2296[forum post] for more information."
      },
      "getRoleMemberCount(bytes32)": {
        "details": "Returns the number of accounts that have `role`. Can be used together with {getRoleMember} to enumerate all bearers of a role."
      },
      "grantRole(bytes32,address)": {
        "details": "Grants `role` to `account`.     * If `account` had not been already granted `role`, emits a {RoleGranted} event.     * Requirements:     * - the caller must have ``role``'s admin role."
      },
      "hasRole(bytes32,address)": {
        "details": "Returns `true` if `account` has been granted `role`."
      },
      "increaseAllowance(address,uint256)": {
        "details": "Atomically increases the allowance granted to `spender` by the caller.     * This is an alternative to {approve} that can be used as a mitigation for problems described in {IERC20-approve}.     * Emits an {Approval} event indicating the updated allowance.     * Requirements:     * - `spender` cannot be the zero address."
      },
      "initialize(string,string,uint8,address)": {
        "details": "meant to be called once immediately after deployment"
      },
      "name()": {
        "details": "Returns the name of the token."
      },
      "renounceRole(bytes32,address)": {
        "details": "Revokes `role` from the calling account.     * Roles are often managed via {grantRole} and {revokeRole}: this function's purpose is to provide a mechanism for accounts to lose their privileges if they are compromised (such as when a trusted device is misplaced).     * If the calling account had been granted `role`, emits a {RoleRevoked} event.     * Requirements:     * - the caller must be `account`."
      },
      "revokeRole(bytes32,address)": {
        "details": "Revokes `role` from `account`.     * If `account` had been granted `role`, emits a {RoleRevoked} event.     * Requirements:     * - the caller must have ``role``'s admin role."
      },
      "symbol()": {
        "details": "Returns the symbol of the token, usually a shorter version of the name."
      },
      "totalSupply()": {
        "details": "See {IERC20-totalSupply}."
      },
      "transfer(address,uint256)": {
        "details": "See {IERC20-transfer}.     * Requirements:     * - `recipient` cannot be the zero address. - the caller must have a balance of at least `amount`."
      },
      "transferFrom(address,address,uint256)": {
        "details": "See {IERC20-transferFrom}.     * Emits an {Approval} event indicating the updated allowance. This is not required by the EIP. See the note at the beginning of {ERC20};     * Requirements: - `sender` and `recipient` cannot be the zero address. - `sender` must have a balance of at least `amount`. - the caller must have allowance for ``sender``'s tokens of at least `amount`."
      }
    }
  },
  "userdoc": {
    "methods": {
      "initialize(string,string,uint8,address)": {
        "notice": "Initialize the contract after it has been proxified"
      }
    }
  }
}